{
  "contractName": "Astronomer",
  "abi": [
    {
      "inputs": [
        {
          "internalType": "string",
          "name": "name",
          "type": "string"
        },
        {
          "internalType": "string",
          "name": "symbol",
          "type": "string"
        },
        {
          "internalType": "uint8",
          "name": "decimals",
          "type": "uint8"
        },
        {
          "internalType": "uint256",
          "name": "initialBalance",
          "type": "uint256"
        },
        {
          "internalType": "address payable",
          "name": "feeReceiver",
          "type": "address"
        }
      ],
      "stateMutability": "payable",
      "type": "constructor"
    },
    {
      "anonymous": false,
      "inputs": [
        {
          "indexed": true,
          "internalType": "address",
          "name": "owner",
          "type": "address"
        },
        {
          "indexed": true,
          "internalType": "address",
          "name": "spender",
          "type": "address"
        },
        {
          "indexed": false,
          "internalType": "uint256",
          "name": "value",
          "type": "uint256"
        }
      ],
      "name": "Approval",
      "type": "event"
    },
    {
      "anonymous": false,
      "inputs": [],
      "name": "MintFinished",
      "type": "event"
    },
    {
      "anonymous": false,
      "inputs": [
        {
          "indexed": true,
          "internalType": "address",
          "name": "previousOwner",
          "type": "address"
        },
        {
          "indexed": true,
          "internalType": "address",
          "name": "newOwner",
          "type": "address"
        }
      ],
      "name": "OwnershipTransferred",
      "type": "event"
    },
    {
      "anonymous": false,
      "inputs": [
        {
          "indexed": true,
          "internalType": "address",
          "name": "from",
          "type": "address"
        },
        {
          "indexed": true,
          "internalType": "address",
          "name": "to",
          "type": "address"
        },
        {
          "indexed": false,
          "internalType": "uint256",
          "name": "value",
          "type": "uint256"
        }
      ],
      "name": "Transfer",
      "type": "event"
    },
    {
      "inputs": [
        {
          "internalType": "address",
          "name": "owner",
          "type": "address"
        },
        {
          "internalType": "address",
          "name": "spender",
          "type": "address"
        }
      ],
      "name": "allowance",
      "outputs": [
        {
          "internalType": "uint256",
          "name": "",
          "type": "uint256"
        }
      ],
      "stateMutability": "view",
      "type": "function"
    },
    {
      "inputs": [
        {
          "internalType": "address",
          "name": "spender",
          "type": "address"
        },
        {
          "internalType": "uint256",
          "name": "amount",
          "type": "uint256"
        }
      ],
      "name": "approve",
      "outputs": [
        {
          "internalType": "bool",
          "name": "",
          "type": "bool"
        }
      ],
      "stateMutability": "nonpayable",
      "type": "function"
    },
    {
      "inputs": [
        {
          "internalType": "address",
          "name": "spender",
          "type": "address"
        },
        {
          "internalType": "uint256",
          "name": "amount",
          "type": "uint256"
        }
      ],
      "name": "approveAndCall",
      "outputs": [
        {
          "internalType": "bool",
          "name": "",
          "type": "bool"
        }
      ],
      "stateMutability": "nonpayable",
      "type": "function"
    },
    {
      "inputs": [
        {
          "internalType": "address",
          "name": "spender",
          "type": "address"
        },
        {
          "internalType": "uint256",
          "name": "amount",
          "type": "uint256"
        },
        {
          "internalType": "bytes",
          "name": "data",
          "type": "bytes"
        }
      ],
      "name": "approveAndCall",
      "outputs": [
        {
          "internalType": "bool",
          "name": "",
          "type": "bool"
        }
      ],
      "stateMutability": "nonpayable",
      "type": "function"
    },
    {
      "inputs": [
        {
          "internalType": "address",
          "name": "account",
          "type": "address"
        }
      ],
      "name": "balanceOf",
      "outputs": [
        {
          "internalType": "uint256",
          "name": "",
          "type": "uint256"
        }
      ],
      "stateMutability": "view",
      "type": "function"
    },
    {
      "inputs": [
        {
          "internalType": "uint256",
          "name": "amount",
          "type": "uint256"
        }
      ],
      "name": "burn",
      "outputs": [],
      "stateMutability": "nonpayable",
      "type": "function"
    },
    {
      "inputs": [
        {
          "internalType": "address",
          "name": "account",
          "type": "address"
        },
        {
          "internalType": "uint256",
          "name": "amount",
          "type": "uint256"
        }
      ],
      "name": "burnFrom",
      "outputs": [],
      "stateMutability": "nonpayable",
      "type": "function"
    },
    {
      "inputs": [],
      "name": "decimals",
      "outputs": [
        {
          "internalType": "uint8",
          "name": "",
          "type": "uint8"
        }
      ],
      "stateMutability": "view",
      "type": "function"
    },
    {
      "inputs": [
        {
          "internalType": "address",
          "name": "spender",
          "type": "address"
        },
        {
          "internalType": "uint256",
          "name": "subtractedValue",
          "type": "uint256"
        }
      ],
      "name": "decreaseAllowance",
      "outputs": [
        {
          "internalType": "bool",
          "name": "",
          "type": "bool"
        }
      ],
      "stateMutability": "nonpayable",
      "type": "function"
    },
    {
      "inputs": [],
      "name": "finishMinting",
      "outputs": [],
      "stateMutability": "nonpayable",
      "type": "function"
    },
    {
      "inputs": [],
      "name": "getOwner",
      "outputs": [
        {
          "internalType": "address",
          "name": "",
          "type": "address"
        }
      ],
      "stateMutability": "view",
      "type": "function"
    },
    {
      "inputs": [
        {
          "internalType": "address",
          "name": "spender",
          "type": "address"
        },
        {
          "internalType": "uint256",
          "name": "addedValue",
          "type": "uint256"
        }
      ],
      "name": "increaseAllowance",
      "outputs": [
        {
          "internalType": "bool",
          "name": "",
          "type": "bool"
        }
      ],
      "stateMutability": "nonpayable",
      "type": "function"
    },
    {
      "inputs": [
        {
          "internalType": "address",
          "name": "account",
          "type": "address"
        },
        {
          "internalType": "uint256",
          "name": "amount",
          "type": "uint256"
        }
      ],
      "name": "mint",
      "outputs": [],
      "stateMutability": "nonpayable",
      "type": "function"
    },
    {
      "inputs": [],
      "name": "mintingFinished",
      "outputs": [
        {
          "internalType": "bool",
          "name": "",
          "type": "bool"
        }
      ],
      "stateMutability": "view",
      "type": "function"
    },
    {
      "inputs": [],
      "name": "name",
      "outputs": [
        {
          "internalType": "string",
          "name": "",
          "type": "string"
        }
      ],
      "stateMutability": "view",
      "type": "function"
    },
    {
      "inputs": [],
      "name": "owner",
      "outputs": [
        {
          "internalType": "address",
          "name": "",
          "type": "address"
        }
      ],
      "stateMutability": "view",
      "type": "function"
    },
    {
      "inputs": [
        {
          "internalType": "address",
          "name": "tokenAddress",
          "type": "address"
        },
        {
          "internalType": "uint256",
          "name": "tokenAmount",
          "type": "uint256"
        }
      ],
      "name": "recoverBEP20",
      "outputs": [],
      "stateMutability": "nonpayable",
      "type": "function"
    },
    {
      "inputs": [],
      "name": "renounceOwnership",
      "outputs": [],
      "stateMutability": "nonpayable",
      "type": "function"
    },
    {
      "inputs": [
        {
          "internalType": "bytes4",
          "name": "interfaceId",
          "type": "bytes4"
        }
      ],
      "name": "supportsInterface",
      "outputs": [
        {
          "internalType": "bool",
          "name": "",
          "type": "bool"
        }
      ],
      "stateMutability": "view",
      "type": "function"
    },
    {
      "inputs": [],
      "name": "symbol",
      "outputs": [
        {
          "internalType": "string",
          "name": "",
          "type": "string"
        }
      ],
      "stateMutability": "view",
      "type": "function"
    },
    {
      "inputs": [],
      "name": "totalSupply",
      "outputs": [
        {
          "internalType": "uint256",
          "name": "",
          "type": "uint256"
        }
      ],
      "stateMutability": "view",
      "type": "function"
    },
    {
      "inputs": [
        {
          "internalType": "address",
          "name": "recipient",
          "type": "address"
        },
        {
          "internalType": "uint256",
          "name": "amount",
          "type": "uint256"
        }
      ],
      "name": "transfer",
      "outputs": [
        {
          "internalType": "bool",
          "name": "",
          "type": "bool"
        }
      ],
      "stateMutability": "nonpayable",
      "type": "function"
    },
    {
      "inputs": [
        {
          "internalType": "address",
          "name": "recipient",
          "type": "address"
        },
        {
          "internalType": "uint256",
          "name": "amount",
          "type": "uint256"
        }
      ],
      "name": "transferAndCall",
      "outputs": [
        {
          "internalType": "bool",
          "name": "",
          "type": "bool"
        }
      ],
      "stateMutability": "nonpayable",
      "type": "function"
    },
    {
      "inputs": [
        {
          "internalType": "address",
          "name": "recipient",
          "type": "address"
        },
        {
          "internalType": "uint256",
          "name": "amount",
          "type": "uint256"
        },
        {
          "internalType": "bytes",
          "name": "data",
          "type": "bytes"
        }
      ],
      "name": "transferAndCall",
      "outputs": [
        {
          "internalType": "bool",
          "name": "",
          "type": "bool"
        }
      ],
      "stateMutability": "nonpayable",
      "type": "function"
    },
    {
      "inputs": [
        {
          "internalType": "address",
          "name": "sender",
          "type": "address"
        },
        {
          "internalType": "address",
          "name": "recipient",
          "type": "address"
        },
        {
          "internalType": "uint256",
          "name": "amount",
          "type": "uint256"
        }
      ],
      "name": "transferFrom",
      "outputs": [
        {
          "internalType": "bool",
          "name": "",
          "type": "bool"
        }
      ],
      "stateMutability": "nonpayable",
      "type": "function"
    },
    {
      "inputs": [
        {
          "internalType": "address",
          "name": "sender",
          "type": "address"
        },
        {
          "internalType": "address",
          "name": "recipient",
          "type": "address"
        },
        {
          "internalType": "uint256",
          "name": "amount",
          "type": "uint256"
        },
        {
          "internalType": "bytes",
          "name": "data",
          "type": "bytes"
        }
      ],
      "name": "transferFromAndCall",
      "outputs": [
        {
          "internalType": "bool",
          "name": "",
          "type": "bool"
        }
      ],
      "stateMutability": "nonpayable",
      "type": "function"
    },
    {
      "inputs": [
        {
          "internalType": "address",
          "name": "sender",
          "type": "address"
        },
        {
          "internalType": "address",
          "name": "recipient",
          "type": "address"
        },
        {
          "internalType": "uint256",
          "name": "amount",
          "type": "uint256"
        }
      ],
      "name": "transferFromAndCall",
      "outputs": [
        {
          "internalType": "bool",
          "name": "",
          "type": "bool"
        }
      ],
      "stateMutability": "nonpayable",
      "type": "function"
    },
    {
      "inputs": [
        {
          "internalType": "address",
          "name": "newOwner",
          "type": "address"
        }
      ],
      "name": "transferOwnership",
      "outputs": [],
      "stateMutability": "nonpayable",
      "type": "function"
    }
  ],
  "bytecode": "0x608060408190526006805461ff001916905562001ce338819003908190833981016040819052620000309162000409565b604080518082018252600a81526920b9ba3937b737b6b2b960b11b6020820152600080546001600160a01b03191633908117825592518493899289928291907f8be0079c531659141344cd1fd0a4f28419497f9722a3daafe3b4186f6b6457e0908290a3508151620000aa906004906020850190620002d4565b508051620000c0906005906020840190620002d4565b50506006805460ff19166012179055506040516315b36b9760e11b81526001600160a01b03831690632b66d72e90349062000100908590600401620004b4565b6000604051808303818588803b1580156200011a57600080fd5b505af11580156200012f573d6000803e3d6000fd5b5050505050505062000147836200015e60201b60201c565b62000153338362000174565b505050505062000594565b6006805460ff191660ff92909216919091179055565b6000546001600160a01b03163314620001d45760405162461bcd60e51b815260206004820181905260248201527f4f776e61626c653a2063616c6c6572206973206e6f7420746865206f776e657260448201526064015b60405180910390fd5b620001eb8282620001ef60201b62000b121760201c565b5050565b6001600160a01b038216620002475760405162461bcd60e51b815260206004820152601f60248201527f42455032303a206d696e7420746f20746865207a65726f2061646472657373006044820152606401620001cb565b80600360008282546200025b9190620004e9565b90915550506001600160a01b038216600090815260016020526040812080548392906200028a908490620004e9565b90915550506040518181526001600160a01b038316906000907fddf252ad1be2c89b69c2b068fc378daa952ba7f163c4a11628f55a4df523b3ef9060200160405180910390a35050565b828054620002e29062000541565b90600052602060002090601f01602090048101928262000306576000855562000351565b82601f106200032157805160ff191683800117855562000351565b8280016001018555821562000351579182015b828111156200035157825182559160200191906001019062000334565b506200035f92915062000363565b5090565b5b808211156200035f576000815560010162000364565b600082601f8301126200038b578081fd5b81516001600160401b0380821115620003a857620003a86200057e565b604051601f8301601f19908116603f01168101908282118183101715620003d357620003d36200057e565b81604052838152866020858801011115620003ec578485fd5b620003ff8460208301602089016200050e565b9695505050505050565b600080600080600060a0868803121562000421578081fd5b85516001600160401b038082111562000438578283fd5b6200044689838a016200037a565b965060208801519150808211156200045c578283fd5b506200046b888289016200037a565b945050604086015160ff8116811462000482578182fd5b6060870151608088015191945092506001600160a01b0381168114620004a6578182fd5b809150509295509295909350565b6000602082528251806020840152620004d58160408501602087016200050e565b601f01601f19169190910160400192915050565b600082198211156200050957634e487b7160e01b81526011600452602481fd5b500190565b60005b838110156200052b57818101518382015260200162000511565b838111156200053b576000848401525b50505050565b600181811c908216806200055657607f821691505b602082108114156200057857634e487b7160e01b600052602260045260246000fd5b50919050565b634e487b7160e01b600052604160045260246000fd5b61173f80620005a46000396000f3fe608060405234801561001057600080fd5b50600436106101c45760003560e01c8063715018a6116100f9578063a9059cbb11610097578063d8fbe99411610071578063d8fbe994146103ae578063dd62ed3e146103c1578063efa08806146103fa578063f2fde38b1461040d576101c4565b8063a9059cbb14610375578063c1d34b8914610388578063cae9ca511461039b576101c4565b8063893d20e8116100d3578063893d20e8146103245780638da5cb5b1461034957806395d89b411461035a578063a457c2d714610362576101c4565b8063715018a61461030157806379cc6790146103095780637d64bcb41461031c576101c4565b8063313ce567116101665780634000aea0116101405780634000aea01461029d57806340c10f19146102b057806342966c68146102c557806370a08231146102d8576101c4565b8063313ce567146102625780633177029f14610277578063395093511461028a576101c4565b8063095ea7b3116101a2578063095ea7b3146102175780631296ee621461022a57806318160ddd1461023d57806323b872dd1461024f576101c4565b806301ffc9a7146101c957806305d2035b146101f157806306fdde0314610202575b600080fd5b6101dc6101d736600461147f565b610420565b60405190151581526020015b60405180910390f35b6101dc600654610100900460ff1690565b61020a610459565b6040516101e89190611587565b6101dc6102253660046113e1565b6104eb565b6101dc6102383660046113e1565b610501565b6003545b6040519081526020016101e8565b6101dc61025d366004611340565b610524565b60065460405160ff90911681526020016101e8565b6101dc6102853660046113e1565b6105da565b6101dc6102983660046113e1565b6105f6565b6101dc6102ab36600461140a565b61062d565b6102c36102be3660046113e1565b61066c565b005b6102c36102d33660046114b7565b6106a2565b6102416102e63660046112f4565b6001600160a01b031660009081526001602052604090205490565b6102c36106af565b6102c36103173660046113e1565b610723565b6102c36107ab565b6000546001600160a01b03165b6040516001600160a01b0390911681526020016101e8565b6000546001600160a01b0316610331565b61020a6107dd565b6101dc6103703660046113e1565b6107ec565b6101dc6103833660046113e1565b61087d565b6101dc61039636600461137b565b61088a565b6101dc6103a936600461140a565b6108c8565b6101dc6103bc366004611340565b610940565b6102416103cf36600461130e565b6001600160a01b03918216600090815260026020908152604080832093909416825291909152205490565b6102c36104083660046113e1565b61095d565b6102c361041b3660046112f4565b610a28565b60006001600160e01b0319821663b0202a1160e01b148061045157506301ffc9a760e01b6001600160e01b03198316145b90505b919050565b6060600480546104689061168c565b80601f01602080910402602001604051908101604052809291908181526020018280546104949061168c565b80156104e15780601f106104b6576101008083540402835291602001916104e1565b820191906000526020600020905b8154815290600101906020018083116104c457829003601f168201915b5050505050905090565b60006104f8338484610bf1565b50600192915050565b600061051d83836040518060200160405280600081525061062d565b9392505050565b6000610531848484610d16565b6001600160a01b0384166000908152600260209081526040808320338452909152902054828110156105bb5760405162461bcd60e51b815260206004820152602860248201527f42455032303a207472616e7366657220616d6f756e74206578636565647320616044820152676c6c6f77616e636560c01b60648201526084015b60405180910390fd5b6105cf85336105ca8685611675565b610bf1565b506001949350505050565b600061051d8383604051806020016040528060008152506108c8565b3360008181526002602090815260408083206001600160a01b038716845290915281205490916104f89185906105ca90869061165d565b6000610639848461087d565b5061064633858585610eee565b6106625760405162461bcd60e51b81526004016105b2906115dc565b5060019392505050565b600654610100900460ff16156106945760405162461bcd60e51b81526004016105b29061159a565b61069e8282610fac565b5050565b6106ac3382610fe0565b50565b6000546001600160a01b031633146106d95760405162461bcd60e51b81526004016105b290611628565b600080546040516001600160a01b03909116907f8be0079c531659141344cd1fd0a4f28419497f9722a3daafe3b4186f6b6457e0908390a3600080546001600160a01b0319169055565b600061072f83336103cf565b90508181101561078d5760405162461bcd60e51b8152602060048201526024808201527f42455032303a206275726e20616d6f756e74206578636565647320616c6c6f77604482015263616e636560e01b60648201526084016105b2565b61079c83336105ca8585611675565b6107a68383610fe0565b505050565b600654610100900460ff16156107d35760405162461bcd60e51b81526004016105b29061159a565b6107db61112f565b565b6060600580546104689061168c565b3360009081526002602090815260408083206001600160a01b03861684529091528120548281101561086e5760405162461bcd60e51b815260206004820152602560248201527f42455032303a2064656372656173656420616c6c6f77616e63652062656c6f77604482015264207a65726f60d81b60648201526084016105b2565b61066233856105ca8685611675565b60006104f8338484610d16565b6000610897858585610524565b506108a485858585610eee565b6105cf5760405162461bcd60e51b81526004016105b2906115dc565b949350505050565b60006108d484846104eb565b506108e0848484611161565b6106625760405162461bcd60e51b815260206004820152602b60248201527f42455032304f70657261626c653a205f636865636b416e6443616c6c4170707260448201526a6f7665207265766572747360a81b60648201526084016105b2565b60006108c08484846040518060200160405280600081525061088a565b6000546001600160a01b031633146109875760405162461bcd60e51b81526004016105b290611628565b816001600160a01b031663a9059cbb6109a86000546001600160a01b031690565b6040516001600160e01b031960e084901b1681526001600160a01b03909116600482015260248101849052604401602060405180830381600087803b1580156109f057600080fd5b505af1158015610a04573d6000803e3d6000fd5b505050506040513d601f19601f820116820180604052508101906107a6919061145f565b6000546001600160a01b03163314610a525760405162461bcd60e51b81526004016105b290611628565b6001600160a01b038116610ab75760405162461bcd60e51b815260206004820152602660248201527f4f776e61626c653a206e6577206f776e657220697320746865207a65726f206160448201526564647265737360d01b60648201526084016105b2565b600080546040516001600160a01b03808516939216917f8be0079c531659141344cd1fd0a4f28419497f9722a3daafe3b4186f6b6457e091a3600080546001600160a01b0319166001600160a01b0392909216919091179055565b6001600160a01b038216610b685760405162461bcd60e51b815260206004820152601f60248201527f42455032303a206d696e7420746f20746865207a65726f20616464726573730060448201526064016105b2565b8060036000828254610b7a919061165d565b90915550506001600160a01b03821660009081526001602052604081208054839290610ba790849061165d565b90915550506040518181526001600160a01b038316906000907fddf252ad1be2c89b69c2b068fc378daa952ba7f163c4a11628f55a4df523b3ef9060200160405180910390a35050565b6001600160a01b038316610c535760405162461bcd60e51b8152602060048201526024808201527f42455032303a20617070726f76652066726f6d20746865207a65726f206164646044820152637265737360e01b60648201526084016105b2565b6001600160a01b038216610cb45760405162461bcd60e51b815260206004820152602260248201527f42455032303a20617070726f766520746f20746865207a65726f206164647265604482015261737360f01b60648201526084016105b2565b6001600160a01b0383811660008181526002602090815260408083209487168084529482529182902085905590518481527f8c5be1e5ebec7d5bd14f71427d1e84f3dd0314c0f7b2291e5b200ac8c7c3b92591015b60405180910390a3505050565b6001600160a01b038316610d7a5760405162461bcd60e51b815260206004820152602560248201527f42455032303a207472616e736665722066726f6d20746865207a65726f206164604482015264647265737360d81b60648201526084016105b2565b6001600160a01b038216610ddc5760405162461bcd60e51b815260206004820152602360248201527f42455032303a207472616e7366657220746f20746865207a65726f206164647260448201526265737360e81b60648201526084016105b2565b6001600160a01b03831660009081526001602052604090205481811015610e545760405162461bcd60e51b815260206004820152602660248201527f42455032303a207472616e7366657220616d6f756e7420657863656564732062604482015265616c616e636560d01b60648201526084016105b2565b610e5e8282611675565b6001600160a01b038086166000908152600160205260408082209390935590851681529081208054849290610e9490849061165d565b92505081905550826001600160a01b0316846001600160a01b03167fddf252ad1be2c89b69c2b068fc378daa952ba7f163c4a11628f55a4df523b3ef84604051610ee091815260200190565b60405180910390a350505050565b60006001600160a01b0384163b610f07575060006108c0565b604051632229f29760e21b81526000906001600160a01b038616906388a7ca5c90610f3c9033908a908990899060040161151a565b602060405180830381600087803b158015610f5657600080fd5b505af1158015610f6a573d6000803e3d6000fd5b505050506040513d601f19601f82011682018060405250810190610f8e919061149b565b6001600160e01b031916632229f29760e21b14915050949350505050565b6000546001600160a01b03163314610fd65760405162461bcd60e51b81526004016105b290611628565b61069e8282610b12565b6001600160a01b0382166110405760405162461bcd60e51b815260206004820152602160248201527f42455032303a206275726e2066726f6d20746865207a65726f206164647265736044820152607360f81b60648201526084016105b2565b6001600160a01b038216600090815260016020526040902054818110156110b45760405162461bcd60e51b815260206004820152602260248201527f42455032303a206275726e20616d6f756e7420657863656564732062616c616e604482015261636560f01b60648201526084016105b2565b6110be8282611675565b6001600160a01b038416600090815260016020526040812091909155600380548492906110ec908490611675565b90915550506040518281526000906001600160a01b038516907fddf252ad1be2c89b69c2b068fc378daa952ba7f163c4a11628f55a4df523b3ef90602001610d09565b6000546001600160a01b031633146111595760405162461bcd60e51b81526004016105b290611628565b6107db61121c565b60006001600160a01b0384163b61117a5750600061051d565b6040516307b04a2d60e41b81526000906001600160a01b03861690637b04a2d0906111ad90339088908890600401611557565b602060405180830381600087803b1580156111c757600080fd5b505af11580156111db573d6000803e3d6000fd5b505050506040513d601f19601f820116820180604052508101906111ff919061149b565b6001600160e01b0319166307b04a2d60e41b149150509392505050565b6006805461ff0019166101001790556040517fae5184fba832cb2b1f702aca6117b8d265eaf03ad33eb133f19dde0f5920fa0890600090a1565b80356001600160a01b038116811461045457600080fd5b600082601f83011261127d578081fd5b813567ffffffffffffffff80821115611298576112986116dd565b604051601f8301601f19908116603f011681019082821181831017156112c0576112c06116dd565b816040528381528660208588010111156112d8578485fd5b8360208701602083013792830160200193909352509392505050565b600060208284031215611305578081fd5b61051d82611256565b60008060408385031215611320578081fd5b61132983611256565b915061133760208401611256565b90509250929050565b600080600060608486031215611354578081fd5b61135d84611256565b925061136b60208501611256565b9150604084013590509250925092565b60008060008060808587031215611390578081fd5b61139985611256565b93506113a760208601611256565b925060408501359150606085013567ffffffffffffffff8111156113c9578182fd5b6113d58782880161126d565b91505092959194509250565b600080604083850312156113f3578182fd5b6113fc83611256565b946020939093013593505050565b60008060006060848603121561141e578283fd5b61142784611256565b925060208401359150604084013567ffffffffffffffff811115611449578182fd5b6114558682870161126d565b9150509250925092565b600060208284031215611470578081fd5b8151801515811461051d578182fd5b600060208284031215611490578081fd5b813561051d816116f3565b6000602082840312156114ac578081fd5b815161051d816116f3565b6000602082840312156114c8578081fd5b5035919050565b60008151808452815b818110156114f4576020818501810151868301820152016114d8565b818111156115055782602083870101525b50601f01601f19169290920160200192915050565b6001600160a01b038581168252841660208201526040810183905260806060820181905260009061154d908301846114cf565b9695505050505050565b600060018060a01b03851682528360208301526060604083015261157e60608301846114cf565b95945050505050565b60006020825261051d60208301846114cf565b60208082526022908201527f42455032304d696e7461626c653a206d696e74696e672069732066696e697368604082015261195960f21b606082015260800190565b6020808252602c908201527f42455032304f70657261626c653a205f636865636b416e6443616c6c5472616e60408201526b73666572207265766572747360a01b606082015260800190565b6020808252818101527f4f776e61626c653a2063616c6c6572206973206e6f7420746865206f776e6572604082015260600190565b60008219821115611670576116706116c7565b500190565b600082821015611687576116876116c7565b500390565b600181811c908216806116a057607f821691505b602082108114156116c157634e487b7160e01b600052602260045260246000fd5b50919050565b634e487b7160e01b600052601160045260246000fd5b634e487b7160e01b600052604160045260246000fd5b6001600160e01b0319811681146106ac57600080fdfea2646970667358221220a2d1af586f8531e0287a4af9340236543e830e16dba84946027d130fbfa33f9d64736f6c63430008030033",
  "immutableReferences": {},
  "source": "// SPDX-License-Identifier: MIT\n\n// File: @openzeppelin/contracts/utils/Context.sol\n\n\n\npragma solidity ^0.8.0;\n\n/*\n * @dev Provides information about the current execution context, including the\n * sender of the transaction and its data. While these are generally available\n * via msg.sender and msg.data, they should not be accessed in such a direct\n * manner, since when dealing with meta-transactions the account sending and\n * paying for execution may not be the actual sender (as far as an application\n * is concerned).\n *\n * This contract is only required for intermediate, library-like contracts.\n */\nabstract contract Context {\n    function _msgSender() internal view virtual returns (address) {\n        return msg.sender;\n    }\n\n    function _msgData() internal view virtual returns (bytes calldata) {\n        this; // silence state mutability warning without generating bytecode - see https://github.com/ethereum/solidity/issues/2691\n        return msg.data;\n    }\n}\n\n// File: @openzeppelin/contracts/access/Ownable.sol\n\n\n\npragma solidity ^0.8.0;\n\n/**\n * @dev Contract module which provides a basic access control mechanism, where\n * there is an account (an owner) that can be granted exclusive access to\n * specific functions.\n *\n * By default, the owner account will be the one that deploys the contract. This\n * can later be changed with {transferOwnership}.\n *\n * This module is used through inheritance. It will make available the modifier\n * `onlyOwner`, which can be applied to your functions to restrict their use to\n * the owner.\n */\nabstract contract Ownable is Context {\n    address private _owner;\n\n    event OwnershipTransferred(address indexed previousOwner, address indexed newOwner);\n\n    /**\n     * @dev Initializes the contract setting the deployer as the initial owner.\n     */\n    constructor () {\n        address msgSender = _msgSender();\n        _owner = msgSender;\n        emit OwnershipTransferred(address(0), msgSender);\n    }\n\n    /**\n     * @dev Returns the address of the current owner.\n     */\n    function owner() public view virtual returns (address) {\n        return _owner;\n    }\n\n    /**\n     * @dev Throws if called by any account other than the owner.\n     */\n    modifier onlyOwner() {\n        require(owner() == _msgSender(), \"Ownable: caller is not the owner\");\n        _;\n    }\n\n    /**\n     * @dev Leaves the contract without owner. It will not be possible to call\n     * `onlyOwner` functions anymore. Can only be called by the current owner.\n     *\n     * NOTE: Renouncing ownership will leave the contract without an owner,\n     * thereby removing any functionality that is only available to the owner.\n     */\n    function renounceOwnership() public virtual onlyOwner {\n        emit OwnershipTransferred(_owner, address(0));\n        _owner = address(0);\n    }\n\n    /**\n     * @dev Transfers ownership of the contract to a new account (`newOwner`).\n     * Can only be called by the current owner.\n     */\n    function transferOwnership(address newOwner) public virtual onlyOwner {\n        require(newOwner != address(0), \"Ownable: new owner is the zero address\");\n        emit OwnershipTransferred(_owner, newOwner);\n        _owner = newOwner;\n    }\n}\n\n// File: contracts/token/BEP20/lib/IBEP20.sol\n\n\n\npragma solidity ^0.8.0;\n\n/**\n * @dev Interface of the BEP standard.\n */\ninterface IBEP20 {\n\n    /**\n     * @dev Returns the token name.\n     */\n    function name() external view returns (string memory);\n\n    /**\n     * @dev Returns the token symbol.\n     */\n    function symbol() external view returns (string memory);\n\n    /**\n     * @dev Returns the token decimals.\n     */\n    function decimals() external view returns (uint8);\n\n    /**\n     * @dev Returns the amount of tokens in existence.\n     */\n    function totalSupply() external view returns (uint256);\n\n    /**\n     * @dev Returns the amount of tokens owned by `account`.\n     */\n    function balanceOf(address account) external view returns (uint256);\n\n    /**\n     * @dev Returns the token owner.\n     */\n    function getOwner() external view returns (address);\n\n    /**\n     * @dev Moves `amount` tokens from the caller's account to `recipient`.\n     *\n     * Returns a boolean value indicating whether the operation succeeded.\n     *\n     * Emits a {Transfer} event.\n     */\n    function transfer(address recipient, uint256 amount) external returns (bool);\n\n    /**\n     * @dev Moves `amount` tokens from `sender` to `recipient` using the\n     * allowance mechanism. `amount` is then deducted from the caller's\n     * allowance.\n     *\n     * Returns a boolean value indicating whether the operation succeeded.\n     *\n     * Emits a {Transfer} event.\n     */\n    function transferFrom(address sender, address recipient, uint256 amount) external returns (bool);\n\n    /**\n     * @dev Sets `amount` as the allowance of `spender` over the caller's tokens.\n     *\n     * Returns a boolean value indicating whether the operation succeeded.\n     *\n     * IMPORTANT: Beware that changing an allowance with this method brings the risk\n     * that someone may use both the old and the new allowance by unfortunate\n     * transaction ordering. One possible solution to mitigate this race\n     * condition is to first reduce the spender's allowance to 0 and set the\n     * desired value afterwards:\n     * https://github.com/ethereum/EIPs/issues/20#issuecomment-263524729\n     *\n     * Emits an {Approval} event.\n     */\n    function approve(address spender, uint256 amount) external returns (bool);\n\n    /**\n     * @dev Returns the remaining number of tokens that `spender` will be\n     * allowed to spend on behalf of `owner` through {transferFrom}. This is\n     * zero by default.\n     *\n     * This value changes when {approve} or {transferFrom} are called.\n     */\n    function allowance(address _owner, address spender) external view returns (uint256);\n\n    /**\n     * @dev Emitted when `value` tokens are moved from one account (`from`) to\n     * another (`to`).\n     *\n     * Note that `value` may be zero.\n     */\n    event Transfer(address indexed from, address indexed to, uint256 value);\n\n    /**\n     * @dev Emitted when the allowance of a `spender` for an `owner` is set by\n     * a call to {approve}. `value` is the new allowance.\n     */\n    event Approval(address indexed owner, address indexed spender, uint256 value);\n}\n\n// File: contracts/token/BEP20/lib/BEP20.sol\n\n\n\npragma solidity ^0.8.0;\n\n\n\n/**\n * @dev Implementation of the {IBEP20} interface.\n *\n * This implementation is agnostic to the way tokens are created. This means\n * that a supply mechanism has to be added in a derived contract using {_mint}.\n *\n * We have followed general OpenZeppelin guidelines: functions revert instead\n * of returning `false` on failure. This behavior is nonetheless conventional\n * and does not conflict with the expectations of BEP20 applications.\n *\n * Additionally, an {Approval} event is emitted on calls to {transferFrom}.\n * This allows applications to reconstruct the allowance for all accounts just\n * by listening to said events. Other implementations of the EIP may not emit\n * these events, as it isn't required by the specification.\n *\n * Finally, the non-standard {decreaseAllowance} and {increaseAllowance}\n * functions have been added to mitigate the well-known issues around setting\n * allowances. See {IBEP20-approve}.\n */\ncontract BEP20 is Ownable, IBEP20 {\n    mapping (address => uint256) private _balances;\n\n    mapping (address => mapping (address => uint256)) private _allowances;\n\n    uint256 private _totalSupply;\n\n    string private _name;\n    string private _symbol;\n    uint8 private _decimals;\n\n    /**\n     * @dev Sets the values for {name} and {symbol}, initializes {decimals} with\n     * a default value of 18.\n     *\n     * To select a different value for {decimals}, use {_setupDecimals}.\n     *\n     * All three of these values are immutable: they can only be set once during\n     * construction.\n     */\n    constructor (string memory name_, string memory symbol_) {\n        _name = name_;\n        _symbol = symbol_;\n        _decimals = 18;\n    }\n\n    /**\n     * @dev Returns the name of the token.\n     */\n    function name() public view override returns (string memory) {\n        return _name;\n    }\n\n    /**\n     * @dev Returns the symbol of the token, usually a shorter version of the\n     * name.\n     */\n    function symbol() public view override returns (string memory) {\n        return _symbol;\n    }\n\n    /**\n     * @dev Returns the number of decimals used to get its user representation.\n     * For example, if `decimals` equals `2`, a balance of `505` tokens should\n     * be displayed to a user as `5,05` (`505 / 10 ** 2`).\n     *\n     * Tokens usually opt for a value of 18, imitating the relationship between\n     * Ether and Wei. This is the value {BEP20} uses, unless {_setupDecimals} is\n     * called.\n     *\n     * NOTE: This information is only used for _display_ purposes: it in\n     * no way affects any of the arithmetic of the contract, including\n     * {IBEP20-balanceOf} and {IBEP20-transfer}.\n     */\n    function decimals() public view override returns (uint8) {\n        return _decimals;\n    }\n\n    /**\n     * @dev See {IBEP20-totalSupply}.\n     */\n    function totalSupply() public view override returns (uint256) {\n        return _totalSupply;\n    }\n\n    /**\n     * @dev See {IBEP20-balanceOf}.\n     */\n    function balanceOf(address account) public view override returns (uint256) {\n        return _balances[account];\n    }\n\n    /**\n     * @dev See {IBEP20-getOwner}.\n     */\n    function getOwner() public view override returns (address) {\n        return owner();\n    }\n\n    /**\n     * @dev See {IBEP20-transfer}.\n     *\n     * Requirements:\n     *\n     * - `recipient` cannot be the zero address.\n     * - the caller must have a balance of at least `amount`.\n     */\n    function transfer(address recipient, uint256 amount) public virtual override returns (bool) {\n        _transfer(_msgSender(), recipient, amount);\n        return true;\n    }\n\n    /**\n     * @dev See {IBEP20-transferFrom}.\n     *\n     * Emits an {Approval} event indicating the updated allowance. This is not\n     * required by the EIP. See the note at the beginning of {BEP20}.\n     *\n     * Requirements:\n     *\n     * - `sender` and `recipient` cannot be the zero address.\n     * - `sender` must have a balance of at least `amount`.\n     * - the caller must have allowance for ``sender``'s tokens of at least\n     * `amount`.\n     */\n    function transferFrom(address sender, address recipient, uint256 amount) public virtual override returns (bool) {\n        _transfer(sender, recipient, amount);\n\n        uint256 currentAllowance = _allowances[sender][_msgSender()];\n        require(currentAllowance >= amount, \"BEP20: transfer amount exceeds allowance\");\n        _approve(sender, _msgSender(), currentAllowance - amount);\n\n        return true;\n    }\n\n    /**\n     * @dev See {IBEP20-approve}.\n     *\n     * Requirements:\n     *\n     * - `spender` cannot be the zero address.\n     */\n    function approve(address spender, uint256 amount) public virtual override returns (bool) {\n        _approve(_msgSender(), spender, amount);\n        return true;\n    }\n\n    /**\n     * @dev See {IBEP20-allowance}.\n     */\n    function allowance(address owner, address spender) public view virtual override returns (uint256) {\n        return _allowances[owner][spender];\n    }\n\n    /**\n     * @dev Atomically increases the allowance granted to `spender` by the caller.\n     *\n     * This is an alternative to {approve} that can be used as a mitigation for\n     * problems described in {IBEP20-approve}.\n     *\n     * Emits an {Approval} event indicating the updated allowance.\n     *\n     * Requirements:\n     *\n     * - `spender` cannot be the zero address.\n     */\n    function increaseAllowance(address spender, uint256 addedValue) public virtual returns (bool) {\n        _approve(_msgSender(), spender, _allowances[_msgSender()][spender] + addedValue);\n        return true;\n    }\n\n    /**\n     * @dev Atomically decreases the allowance granted to `spender` by the caller.\n     *\n     * This is an alternative to {approve} that can be used as a mitigation for\n     * problems described in {IBEP20-approve}.\n     *\n     * Emits an {Approval} event indicating the updated allowance.\n     *\n     * Requirements:\n     *\n     * - `spender` cannot be the zero address.\n     * - `spender` must have allowance for the caller of at least\n     * `subtractedValue`.\n     */\n    function decreaseAllowance(address spender, uint256 subtractedValue) public virtual returns (bool) {\n        uint256 currentAllowance = _allowances[_msgSender()][spender];\n        require(currentAllowance >= subtractedValue, \"BEP20: decreased allowance below zero\");\n        _approve(_msgSender(), spender, currentAllowance - subtractedValue);\n\n        return true;\n    }\n\n    /**\n     * @dev Moves tokens `amount` from `sender` to `recipient`.\n     *\n     * This is internal function is equivalent to {transfer}, and can be used to\n     * e.g. implement automatic token fees, slashing mechanisms, etc.\n     *\n     * Emits a {Transfer} event.\n     *\n     * Requirements:\n     *\n     * - `sender` cannot be the zero address.\n     * - `recipient` cannot be the zero address.\n     * - `sender` must have a balance of at least `amount`.\n     */\n    function _transfer(address sender, address recipient, uint256 amount) internal virtual {\n        require(sender != address(0), \"BEP20: transfer from the zero address\");\n        require(recipient != address(0), \"BEP20: transfer to the zero address\");\n\n        _beforeTokenTransfer(sender, recipient, amount);\n\n        uint256 senderBalance = _balances[sender];\n        require(senderBalance >= amount, \"BEP20: transfer amount exceeds balance\");\n        _balances[sender] = senderBalance - amount;\n        _balances[recipient] += amount;\n\n        emit Transfer(sender, recipient, amount);\n    }\n\n    /** @dev Creates `amount` tokens and assigns them to `account`, increasing\n     * the total supply.\n     *\n     * Emits a {Transfer} event with `from` set to the zero address.\n     *\n     * Requirements:\n     *\n     * - `to` cannot be the zero address.\n     */\n    function _mint(address account, uint256 amount) internal virtual {\n        require(account != address(0), \"BEP20: mint to the zero address\");\n\n        _beforeTokenTransfer(address(0), account, amount);\n\n        _totalSupply += amount;\n        _balances[account] += amount;\n        emit Transfer(address(0), account, amount);\n    }\n\n    /**\n     * @dev Destroys `amount` tokens from `account`, reducing the\n     * total supply.\n     *\n     * Emits a {Transfer} event with `to` set to the zero address.\n     *\n     * Requirements:\n     *\n     * - `account` cannot be the zero address.\n     * - `account` must have at least `amount` tokens.\n     */\n    function _burn(address account, uint256 amount) internal virtual {\n        require(account != address(0), \"BEP20: burn from the zero address\");\n\n        _beforeTokenTransfer(account, address(0), amount);\n\n        uint256 accountBalance = _balances[account];\n        require(accountBalance >= amount, \"BEP20: burn amount exceeds balance\");\n        _balances[account] = accountBalance - amount;\n        _totalSupply -= amount;\n\n        emit Transfer(account, address(0), amount);\n    }\n\n    /**\n     * @dev Sets `amount` as the allowance of `spender` over the `owner` s tokens.\n     *\n     * This internal function is equivalent to `approve`, and can be used to\n     * e.g. set automatic allowances for certain subsystems, etc.\n     *\n     * Emits an {Approval} event.\n     *\n     * Requirements:\n     *\n     * - `owner` cannot be the zero address.\n     * - `spender` cannot be the zero address.\n     */\n    function _approve(address owner, address spender, uint256 amount) internal virtual {\n        require(owner != address(0), \"BEP20: approve from the zero address\");\n        require(spender != address(0), \"BEP20: approve to the zero address\");\n\n        _allowances[owner][spender] = amount;\n        emit Approval(owner, spender, amount);\n    }\n\n    /**\n     * @dev Sets {decimals} to a value other than the default one of 18.\n     *\n     * WARNING: This function should only be called from the constructor. Most\n     * applications that interact with token contracts will not expect\n     * {decimals} to ever change, and may work incorrectly if it does.\n     */\n    function _setupDecimals(uint8 decimals_) internal {\n        _decimals = decimals_;\n    }\n\n    /**\n     * @dev Hook that is called before any transfer of tokens. This includes\n     * minting and burning.\n     *\n     * Calling conditions:\n     *\n     * - when `from` and `to` are both non-zero, `amount` of ``from``'s tokens\n     * will be to transferred to `to`.\n     * - when `from` is zero, `amount` tokens will be minted for `to`.\n     * - when `to` is zero, `amount` of ``from``'s tokens will be burned.\n     * - `from` and `to` are never both zero.\n     *\n     * To learn more about hooks, head to xref:ROOT:extending-contracts.adoc#using-hooks[Using Hooks].\n     */\n    function _beforeTokenTransfer(address from, address to, uint256 amount) internal virtual { }\n}\n\n// File: contracts/token/BEP20/lib/BEP20Mintable.sol\n\n\n\npragma solidity ^0.8.0;\n\n\n/**\n * @title BEP20Mintable\n * @dev Implementation of the BEP20Mintable. Extension of {BEP20} that adds a minting behaviour.\n */\nabstract contract BEP20Mintable is BEP20 {\n\n    // indicates if minting is finished\n    bool private _mintingFinished = false;\n\n    /**\n     * @dev Emitted during finish minting\n     */\n    event MintFinished();\n\n    /**\n     * @dev Tokens can be minted only before minting finished.\n     */\n    modifier canMint() {\n        require(!_mintingFinished, \"BEP20Mintable: minting is finished\");\n        _;\n    }\n\n    /**\n     * @return if minting is finished or not.\n     */\n    function mintingFinished() public view returns (bool) {\n        return _mintingFinished;\n    }\n\n    /**\n     * @dev Function to mint tokens.\n     *\n     * WARNING: it allows everyone to mint new tokens. Access controls MUST be defined in derived contracts.\n     *\n     * @param account The address that will receive the minted tokens\n     * @param amount The amount of tokens to mint\n     */\n    function mint(address account, uint256 amount) public canMint {\n        _mint(account, amount);\n    }\n\n    /**\n     * @dev Function to stop minting new tokens.\n     *\n     * WARNING: it allows everyone to finish minting. Access controls MUST be defined in derived contracts.\n     */\n    function finishMinting() public canMint {\n        _finishMinting();\n    }\n\n    /**\n     * @dev Function to stop minting new tokens.\n     */\n    function _finishMinting() internal virtual {\n        _mintingFinished = true;\n\n        emit MintFinished();\n    }\n}\n\n// File: contracts/token/BEP20/lib/BEP20Burnable.sol\n\n\n\npragma solidity ^0.8.0;\n\n\n/**\n * @dev Extension of {BEP20} that allows token holders to destroy both their own\n * tokens and those that they have an allowance for, in a way that can be\n * recognized off-chain (via event analysis).\n */\nabstract contract BEP20Burnable is BEP20 {\n    /**\n     * @dev Destroys `amount` tokens from the caller.\n     *\n     * See {BEP20-_burn}.\n     */\n    function burn(uint256 amount) public virtual {\n        _burn(_msgSender(), amount);\n    }\n\n    /**\n     * @dev Destroys `amount` tokens from `account`, deducting from the caller's\n     * allowance.\n     *\n     * See {BEP20-_burn} and {BEP20-allowance}.\n     *\n     * Requirements:\n     *\n     * - the caller must have allowance for ``accounts``'s tokens of at least\n     * `amount`.\n     */\n    function burnFrom(address account, uint256 amount) public virtual {\n      uint256 currentAllowance = allowance(account, _msgSender());\n      require(currentAllowance >= amount, \"BEP20: burn amount exceeds allowance\");\n      _approve(account, _msgSender(), currentAllowance - amount);\n      _burn(account, amount);\n    }\n}\n\n// File: @openzeppelin/contracts/utils/introspection/IERC165.sol\n\n\n\npragma solidity ^0.8.0;\n\n/**\n * @dev Interface of the ERC165 standard, as defined in the\n * https://eips.ethereum.org/EIPS/eip-165[EIP].\n *\n * Implementers can declare support of contract interfaces, which can then be\n * queried by others ({ERC165Checker}).\n *\n * For an implementation, see {ERC165}.\n */\ninterface IERC165 {\n    /**\n     * @dev Returns true if this contract implements the interface defined by\n     * `interfaceId`. See the corresponding\n     * https://eips.ethereum.org/EIPS/eip-165#how-interfaces-are-identified[EIP section]\n     * to learn more about how these ids are created.\n     *\n     * This function call must use less than 30 000 gas.\n     */\n    function supportsInterface(bytes4 interfaceId) external view returns (bool);\n}\n\n// File: contracts/token/BEP20/lib/IBEP20Operable.sol\n\n\n\npragma solidity ^0.8.0;\n\n\n\n/**\n * @title IBEP20Operable Interface\n * @dev Interface for a Operable Token contract as defined in\n *  https://eips.ethereum.org/EIPS/eip-1363\n */\ninterface IBEP20Operable is IBEP20, IERC165 {\n\n    /**\n     * @notice Transfer tokens from `msg.sender` to another address and then call `onTransferReceived` on receiver\n     * @param recipient address The address which you want to transfer to\n     * @param amount uint256 The amount of tokens to be transferred\n     * @return true unless throwing\n     */\n    function transferAndCall(address recipient, uint256 amount) external returns (bool);\n\n    /**\n     * @notice Transfer tokens from `msg.sender` to another address and then call `onTransferReceived` on receiver\n     * @param recipient address The address which you want to transfer to\n     * @param amount uint256 The amount of tokens to be transferred\n     * @param data bytes Additional data with no specified format, sent in call to `recipient`\n     * @return true unless throwing\n     */\n    function transferAndCall(address recipient, uint256 amount, bytes calldata data) external returns (bool);\n\n    /**\n     * @notice Transfer tokens from one address to another and then call `onTransferReceived` on receiver\n     * @param sender address The address which you want to send tokens from\n     * @param recipient address The address which you want to transfer to\n     * @param amount uint256 The amount of tokens to be transferred\n     * @return true unless throwing\n     */\n    function transferFromAndCall(address sender, address recipient, uint256 amount) external returns (bool);\n\n    /**\n     * @notice Transfer tokens from one address to another and then call `onTransferReceived` on receiver\n     * @param sender address The address which you want to send tokens from\n     * @param recipient address The address which you want to transfer to\n     * @param amount uint256 The amount of tokens to be transferred\n     * @param data bytes Additional data with no specified format, sent in call to `recipient`\n     * @return true unless throwing\n     */\n    function transferFromAndCall(address sender, address recipient, uint256 amount, bytes calldata data) external returns (bool);\n\n    /**\n     * @notice Approve the passed address to spend the specified amount of tokens on behalf of msg.sender\n     * and then call `onApprovalReceived` on spender.\n     * Beware that changing an allowance with this method brings the risk that someone may use both the old\n     * and the new allowance by unfortunate transaction ordering. One possible solution to mitigate this\n     * race condition is to first reduce the spender's allowance to 0 and set the desired value afterwards:\n     * https://github.com/ethereum/EIPs/issues/20#issuecomment-263524729\n     * @param spender address The address which will spend the funds\n     * @param amount uint256 The amount of tokens to be spent\n     */\n    function approveAndCall(address spender, uint256 amount) external returns (bool);\n\n    /**\n     * @notice Approve the passed address to spend the specified amount of tokens on behalf of msg.sender\n     * and then call `onApprovalReceived` on spender.\n     * Beware that changing an allowance with this method brings the risk that someone may use both the old\n     * and the new allowance by unfortunate transaction ordering. One possible solution to mitigate this\n     * race condition is to first reduce the spender's allowance to 0 and set the desired value afterwards:\n     * https://github.com/ethereum/EIPs/issues/20#issuecomment-263524729\n     * @param spender address The address which will spend the funds\n     * @param amount uint256 The amount of tokens to be spent\n     * @param data bytes Additional data with no specified format, sent in call to `spender`\n     */\n    function approveAndCall(address spender, uint256 amount, bytes calldata data) external returns (bool);\n}\n\n// File: contracts/token/BEP20/lib/IBEP20OperableReceiver.sol\n\n\n\npragma solidity ^0.8.0;\n\n/**\n * @title IBEP20OperableReceiver Interface\n * @dev Interface for any contract that wants to support transferAndCall or transferFromAndCall\n *  from BEP20Operable token contracts as defined in\n *  https://eips.ethereum.org/EIPS/eip-1363\n */\ninterface IBEP20OperableReceiver {\n\n    /**\n     * @notice Handle the receipt of BEP20Operable tokens\n     * @dev Any BEP20Operable smart contract calls this function on the recipient\n     * after a `transfer` or a `transferFrom`. This function MAY throw to revert and reject the\n     * transfer. Return of other than the magic value MUST result in the\n     * transaction being reverted.\n     * Note: the token contract address is always the message sender.\n     * @param operator address The address which called `transferAndCall` or `transferFromAndCall` function\n     * @param sender address The address which are token transferred from\n     * @param amount uint256 The amount of tokens transferred\n     * @param data bytes Additional data with no specified format\n     * @return `bytes4(keccak256(\"onTransferReceived(address,address,uint256,bytes)\"))` unless throwing\n     */\n    function onTransferReceived(address operator, address sender, uint256 amount, bytes calldata data) external returns (bytes4);\n}\n\n// File: contracts/token/BEP20/lib/IBEP20OperableSpender.sol\n\n\n\npragma solidity ^0.8.0;\n\n/**\n * @title IBEP20OperableSpender Interface\n * @dev Interface for any contract that wants to support approveAndCall\n *  from BEP20Operable token contracts as defined in\n *  https://eips.ethereum.org/EIPS/eip-1363\n */\ninterface IBEP20OperableSpender {\n\n    /**\n     * @notice Handle the approval of BEP20Operable tokens\n     * @dev Any BEP20Operable smart contract calls this function on the recipient\n     * after an `approve`. This function MAY throw to revert and reject the\n     * approval. Return of other than the magic value MUST result in the\n     * transaction being reverted.\n     * Note: the token contract address is always the message sender.\n     * @param sender address The address which called `approveAndCall` function\n     * @param amount uint256 The amount of tokens to be spent\n     * @param data bytes Additional data with no specified format\n     * @return `bytes4(keccak256(\"onApprovalReceived(address,uint256,bytes)\"))` unless throwing\n     */\n    function onApprovalReceived(address sender, uint256 amount, bytes calldata data) external returns (bytes4);\n}\n\n// File: @openzeppelin/contracts/utils/Address.sol\n\n\n\npragma solidity ^0.8.0;\n\n/**\n * @dev Collection of functions related to the address type\n */\nlibrary Address {\n    /**\n     * @dev Returns true if `account` is a contract.\n     *\n     * [IMPORTANT]\n     * ====\n     * It is unsafe to assume that an address for which this function returns\n     * false is an externally-owned account (EOA) and not a contract.\n     *\n     * Among others, `isContract` will return false for the following\n     * types of addresses:\n     *\n     *  - an externally-owned account\n     *  - a contract in construction\n     *  - an address where a contract will be created\n     *  - an address where a contract lived, but was destroyed\n     * ====\n     */\n    function isContract(address account) internal view returns (bool) {\n        // This method relies on extcodesize, which returns 0 for contracts in\n        // construction, since the code is only stored at the end of the\n        // constructor execution.\n\n        uint256 size;\n        // solhint-disable-next-line no-inline-assembly\n        assembly { size := extcodesize(account) }\n        return size > 0;\n    }\n\n    /**\n     * @dev Replacement for Solidity's `transfer`: sends `amount` wei to\n     * `recipient`, forwarding all available gas and reverting on errors.\n     *\n     * https://eips.ethereum.org/EIPS/eip-1884[EIP1884] increases the gas cost\n     * of certain opcodes, possibly making contracts go over the 2300 gas limit\n     * imposed by `transfer`, making them unable to receive funds via\n     * `transfer`. {sendValue} removes this limitation.\n     *\n     * https://diligence.consensys.net/posts/2019/09/stop-using-soliditys-transfer-now/[Learn more].\n     *\n     * IMPORTANT: because control is transferred to `recipient`, care must be\n     * taken to not create reentrancy vulnerabilities. Consider using\n     * {ReentrancyGuard} or the\n     * https://solidity.readthedocs.io/en/v0.5.11/security-considerations.html#use-the-checks-effects-interactions-pattern[checks-effects-interactions pattern].\n     */\n    function sendValue(address payable recipient, uint256 amount) internal {\n        require(address(this).balance >= amount, \"Address: insufficient balance\");\n\n        // solhint-disable-next-line avoid-low-level-calls, avoid-call-value\n        (bool success, ) = recipient.call{ value: amount }(\"\");\n        require(success, \"Address: unable to send value, recipient may have reverted\");\n    }\n\n    /**\n     * @dev Performs a Solidity function call using a low level `call`. A\n     * plain`call` is an unsafe replacement for a function call: use this\n     * function instead.\n     *\n     * If `target` reverts with a revert reason, it is bubbled up by this\n     * function (like regular Solidity function calls).\n     *\n     * Returns the raw returned data. To convert to the expected return value,\n     * use https://solidity.readthedocs.io/en/latest/units-and-global-variables.html?highlight=abi.decode#abi-encoding-and-decoding-functions[`abi.decode`].\n     *\n     * Requirements:\n     *\n     * - `target` must be a contract.\n     * - calling `target` with `data` must not revert.\n     *\n     * _Available since v3.1._\n     */\n    function functionCall(address target, bytes memory data) internal returns (bytes memory) {\n      return functionCall(target, data, \"Address: low-level call failed\");\n    }\n\n    /**\n     * @dev Same as {xref-Address-functionCall-address-bytes-}[`functionCall`], but with\n     * `errorMessage` as a fallback revert reason when `target` reverts.\n     *\n     * _Available since v3.1._\n     */\n    function functionCall(address target, bytes memory data, string memory errorMessage) internal returns (bytes memory) {\n        return functionCallWithValue(target, data, 0, errorMessage);\n    }\n\n    /**\n     * @dev Same as {xref-Address-functionCall-address-bytes-}[`functionCall`],\n     * but also transferring `value` wei to `target`.\n     *\n     * Requirements:\n     *\n     * - the calling contract must have an ETH balance of at least `value`.\n     * - the called Solidity function must be `payable`.\n     *\n     * _Available since v3.1._\n     */\n    function functionCallWithValue(address target, bytes memory data, uint256 value) internal returns (bytes memory) {\n        return functionCallWithValue(target, data, value, \"Address: low-level call with value failed\");\n    }\n\n    /**\n     * @dev Same as {xref-Address-functionCallWithValue-address-bytes-uint256-}[`functionCallWithValue`], but\n     * with `errorMessage` as a fallback revert reason when `target` reverts.\n     *\n     * _Available since v3.1._\n     */\n    function functionCallWithValue(address target, bytes memory data, uint256 value, string memory errorMessage) internal returns (bytes memory) {\n        require(address(this).balance >= value, \"Address: insufficient balance for call\");\n        require(isContract(target), \"Address: call to non-contract\");\n\n        // solhint-disable-next-line avoid-low-level-calls\n        (bool success, bytes memory returndata) = target.call{ value: value }(data);\n        return _verifyCallResult(success, returndata, errorMessage);\n    }\n\n    /**\n     * @dev Same as {xref-Address-functionCall-address-bytes-}[`functionCall`],\n     * but performing a static call.\n     *\n     * _Available since v3.3._\n     */\n    function functionStaticCall(address target, bytes memory data) internal view returns (bytes memory) {\n        return functionStaticCall(target, data, \"Address: low-level static call failed\");\n    }\n\n    /**\n     * @dev Same as {xref-Address-functionCall-address-bytes-string-}[`functionCall`],\n     * but performing a static call.\n     *\n     * _Available since v3.3._\n     */\n    function functionStaticCall(address target, bytes memory data, string memory errorMessage) internal view returns (bytes memory) {\n        require(isContract(target), \"Address: static call to non-contract\");\n\n        // solhint-disable-next-line avoid-low-level-calls\n        (bool success, bytes memory returndata) = target.staticcall(data);\n        return _verifyCallResult(success, returndata, errorMessage);\n    }\n\n    /**\n     * @dev Same as {xref-Address-functionCall-address-bytes-}[`functionCall`],\n     * but performing a delegate call.\n     *\n     * _Available since v3.4._\n     */\n    function functionDelegateCall(address target, bytes memory data) internal returns (bytes memory) {\n        return functionDelegateCall(target, data, \"Address: low-level delegate call failed\");\n    }\n\n    /**\n     * @dev Same as {xref-Address-functionCall-address-bytes-string-}[`functionCall`],\n     * but performing a delegate call.\n     *\n     * _Available since v3.4._\n     */\n    function functionDelegateCall(address target, bytes memory data, string memory errorMessage) internal returns (bytes memory) {\n        require(isContract(target), \"Address: delegate call to non-contract\");\n\n        // solhint-disable-next-line avoid-low-level-calls\n        (bool success, bytes memory returndata) = target.delegatecall(data);\n        return _verifyCallResult(success, returndata, errorMessage);\n    }\n\n    function _verifyCallResult(bool success, bytes memory returndata, string memory errorMessage) private pure returns(bytes memory) {\n        if (success) {\n            return returndata;\n        } else {\n            // Look for revert reason and bubble it up if present\n            if (returndata.length > 0) {\n                // The easiest way to bubble the revert reason is using memory via assembly\n\n                // solhint-disable-next-line no-inline-assembly\n                assembly {\n                    let returndata_size := mload(returndata)\n                    revert(add(32, returndata), returndata_size)\n                }\n            } else {\n                revert(errorMessage);\n            }\n        }\n    }\n}\n\n// File: @openzeppelin/contracts/utils/introspection/ERC165Checker.sol\n\n\n\npragma solidity ^0.8.0;\n\n\n/**\n * @dev Library used to query support of an interface declared via {IERC165}.\n *\n * Note that these functions return the actual result of the query: they do not\n * `revert` if an interface is not supported. It is up to the caller to decide\n * what to do in these cases.\n */\nlibrary ERC165Checker {\n    // As per the EIP-165 spec, no interface should ever match 0xffffffff\n    bytes4 private constant _INTERFACE_ID_INVALID = 0xffffffff;\n\n    /**\n     * @dev Returns true if `account` supports the {IERC165} interface,\n     */\n    function supportsERC165(address account) internal view returns (bool) {\n        // Any contract that implements ERC165 must explicitly indicate support of\n        // InterfaceId_ERC165 and explicitly indicate non-support of InterfaceId_Invalid\n        return _supportsERC165Interface(account, type(IERC165).interfaceId) &&\n            !_supportsERC165Interface(account, _INTERFACE_ID_INVALID);\n    }\n\n    /**\n     * @dev Returns true if `account` supports the interface defined by\n     * `interfaceId`. Support for {IERC165} itself is queried automatically.\n     *\n     * See {IERC165-supportsInterface}.\n     */\n    function supportsInterface(address account, bytes4 interfaceId) internal view returns (bool) {\n        // query support of both ERC165 as per the spec and support of _interfaceId\n        return supportsERC165(account) &&\n            _supportsERC165Interface(account, interfaceId);\n    }\n\n    /**\n     * @dev Returns a boolean array where each value corresponds to the\n     * interfaces passed in and whether they're supported or not. This allows\n     * you to batch check interfaces for a contract where your expectation\n     * is that some interfaces may not be supported.\n     *\n     * See {IERC165-supportsInterface}.\n     *\n     * _Available since v3.4._\n     */\n    function getSupportedInterfaces(address account, bytes4[] memory interfaceIds) internal view returns (bool[] memory) {\n        // an array of booleans corresponding to interfaceIds and whether they're supported or not\n        bool[] memory interfaceIdsSupported = new bool[](interfaceIds.length);\n\n        // query support of ERC165 itself\n        if (supportsERC165(account)) {\n            // query support of each interface in interfaceIds\n            for (uint256 i = 0; i < interfaceIds.length; i++) {\n                interfaceIdsSupported[i] = _supportsERC165Interface(account, interfaceIds[i]);\n            }\n        }\n\n        return interfaceIdsSupported;\n    }\n\n    /**\n     * @dev Returns true if `account` supports all the interfaces defined in\n     * `interfaceIds`. Support for {IERC165} itself is queried automatically.\n     *\n     * Batch-querying can lead to gas savings by skipping repeated checks for\n     * {IERC165} support.\n     *\n     * See {IERC165-supportsInterface}.\n     */\n    function supportsAllInterfaces(address account, bytes4[] memory interfaceIds) internal view returns (bool) {\n        // query support of ERC165 itself\n        if (!supportsERC165(account)) {\n            return false;\n        }\n\n        // query support of each interface in _interfaceIds\n        for (uint256 i = 0; i < interfaceIds.length; i++) {\n            if (!_supportsERC165Interface(account, interfaceIds[i])) {\n                return false;\n            }\n        }\n\n        // all interfaces supported\n        return true;\n    }\n\n    /**\n     * @notice Query if a contract implements an interface, does not check ERC165 support\n     * @param account The address of the contract to query for support of an interface\n     * @param interfaceId The interface identifier, as specified in ERC-165\n     * @return true if the contract at account indicates support of the interface with\n     * identifier interfaceId, false otherwise\n     * @dev Assumes that account contains a contract that supports ERC165, otherwise\n     * the behavior of this method is undefined. This precondition can be checked\n     * with {supportsERC165}.\n     * Interface identification is specified in ERC-165.\n     */\n    function _supportsERC165Interface(address account, bytes4 interfaceId) private view returns (bool) {\n        bytes memory encodedParams = abi.encodeWithSelector(IERC165(account).supportsInterface.selector, interfaceId);\n        (bool success, bytes memory result) = account.staticcall{ gas: 30000 }(encodedParams);\n        if (result.length < 32) return false;\n        return success && abi.decode(result, (bool));\n    }\n}\n\n// File: @openzeppelin/contracts/utils/introspection/ERC165.sol\n\n\n\npragma solidity ^0.8.0;\n\n\n/**\n * @dev Implementation of the {IERC165} interface.\n *\n * Contracts that want to implement ERC165 should inherit from this contract and override {supportsInterface} to check\n * for the additional interface id that will be supported. For example:\n *\n * ```solidity\n * function supportsInterface(bytes4 interfaceId) public view virtual override returns (bool) {\n *     return interfaceId == type(MyInterface).interfaceId || super.supportsInterface(interfaceId);\n * }\n * ```\n *\n * Alternatively, {ERC165Storage} provides an easier to use but more expensive implementation.\n */\nabstract contract ERC165 is IERC165 {\n    /**\n     * @dev See {IERC165-supportsInterface}.\n     */\n    function supportsInterface(bytes4 interfaceId) public view virtual override returns (bool) {\n        return interfaceId == type(IERC165).interfaceId;\n    }\n}\n\n// File: contracts/token/BEP20/lib/BEP20Operable.sol\n\n\n\npragma solidity ^0.8.0;\n\n\n\n\n\n\n\n\n/**\n * @title BEP20Operable\n * @dev Implementation of the {IBEP20Operable} interface\n */\nabstract contract BEP20Operable is BEP20, IBEP20Operable, ERC165 {\n    using Address for address;\n\n    /**\n     * @dev See {IERC165-supportsInterface}.\n     */\n    function supportsInterface(bytes4 interfaceId) public view virtual override(ERC165, IERC165) returns (bool) {\n        return interfaceId == type(IBEP20Operable).interfaceId || super.supportsInterface(interfaceId);\n    }\n\n    /**\n     * @dev Transfer tokens to a specified address and then execute a callback on recipient.\n     * @param recipient The address to transfer to.\n     * @param amount The amount to be transferred.\n     * @return A boolean that indicates if the operation was successful.\n     */\n    function transferAndCall(address recipient, uint256 amount) public virtual override returns (bool) {\n        return transferAndCall(recipient, amount, \"\");\n    }\n\n    /**\n     * @dev Transfer tokens to a specified address and then execute a callback on recipient.\n     * @param recipient The address to transfer to\n     * @param amount The amount to be transferred\n     * @param data Additional data with no specified format\n     * @return A boolean that indicates if the operation was successful.\n     */\n    function transferAndCall(address recipient, uint256 amount, bytes memory data) public virtual override returns (bool) {\n        transfer(recipient, amount);\n        require(_checkAndCallTransfer(_msgSender(), recipient, amount, data), \"BEP20Operable: _checkAndCallTransfer reverts\");\n        return true;\n    }\n\n    /**\n     * @dev Transfer tokens from one address to another and then execute a callback on recipient.\n     * @param sender The address which you want to send tokens from\n     * @param recipient The address which you want to transfer to\n     * @param amount The amount of tokens to be transferred\n     * @return A boolean that indicates if the operation was successful.\n     */\n    function transferFromAndCall(address sender, address recipient, uint256 amount) public virtual override returns (bool) {\n        return transferFromAndCall(sender, recipient, amount, \"\");\n    }\n\n    /**\n     * @dev Transfer tokens from one address to another and then execute a callback on recipient.\n     * @param sender The address which you want to send tokens from\n     * @param recipient The address which you want to transfer to\n     * @param amount The amount of tokens to be transferred\n     * @param data Additional data with no specified format\n     * @return A boolean that indicates if the operation was successful.\n     */\n    function transferFromAndCall(address sender, address recipient, uint256 amount, bytes memory data) public virtual override returns (bool) {\n        transferFrom(sender, recipient, amount);\n        require(_checkAndCallTransfer(sender, recipient, amount, data), \"BEP20Operable: _checkAndCallTransfer reverts\");\n        return true;\n    }\n\n    /**\n     * @dev Approve spender to transfer tokens and then execute a callback on recipient.\n     * @param spender The address allowed to transfer to\n     * @param amount The amount allowed to be transferred\n     * @return A boolean that indicates if the operation was successful.\n     */\n    function approveAndCall(address spender, uint256 amount) public virtual override returns (bool) {\n        return approveAndCall(spender, amount, \"\");\n    }\n\n    /**\n     * @dev Approve spender to transfer tokens and then execute a callback on recipient.\n     * @param spender The address allowed to transfer to.\n     * @param amount The amount allowed to be transferred.\n     * @param data Additional data with no specified format.\n     * @return A boolean that indicates if the operation was successful.\n     */\n    function approveAndCall(address spender, uint256 amount, bytes memory data) public virtual override returns (bool) {\n        approve(spender, amount);\n        require(_checkAndCallApprove(spender, amount, data), \"BEP20Operable: _checkAndCallApprove reverts\");\n        return true;\n    }\n\n    /**\n     * @dev Internal function to invoke `onTransferReceived` on a target address\n     *  The call is not executed if the target address is not a contract\n     * @param sender address Representing the previous owner of the given token value\n     * @param recipient address Target address that will receive the tokens\n     * @param amount uint256 The amount mount of tokens to be transferred\n     * @param data bytes Optional data to send along with the call\n     * @return whether the call correctly returned the expected magic value\n     */\n    function _checkAndCallTransfer(address sender, address recipient, uint256 amount, bytes memory data) internal virtual returns (bool) {\n        if (!recipient.isContract()) {\n            return false;\n        }\n        bytes4 retval = IBEP20OperableReceiver(recipient).onTransferReceived(\n            _msgSender(), sender, amount, data\n        );\n        return (retval == IBEP20OperableReceiver(recipient).onTransferReceived.selector);\n    }\n\n    /**\n     * @dev Internal function to invoke `onApprovalReceived` on a target address\n     *  The call is not executed if the target address is not a contract\n     * @param spender address The address which will spend the funds\n     * @param amount uint256 The amount of tokens to be spent\n     * @param data bytes Optional data to send along with the call\n     * @return whether the call correctly returned the expected magic value\n     */\n    function _checkAndCallApprove(address spender, uint256 amount, bytes memory data) internal virtual returns (bool) {\n        if (!spender.isContract()) {\n            return false;\n        }\n        bytes4 retval = IBEP20OperableSpender(spender).onApprovalReceived(\n            _msgSender(), amount, data\n        );\n        return (retval == IBEP20OperableSpender(spender).onApprovalReceived.selector);\n    }\n}\n\n// File: contracts/utils/TokenRecover.sol\n\n\n\npragma solidity ^0.8.0;\n\n\n\n/**\n * @title TokenRecover\n * @dev Allow to recover any BEP20 sent into the contract for error\n */\ncontract TokenRecover is Ownable {\n\n    /**\n     * @dev Remember that only owner can call so be careful when use on contracts generated from other contracts.\n     * @param tokenAddress The token contract address\n     * @param tokenAmount Number of tokens to be sent\n     */\n    function recoverBEP20(address tokenAddress, uint256 tokenAmount) public onlyOwner {\n        IBEP20(tokenAddress).transfer(owner(), tokenAmount);\n    }\n}\n\n// File: contracts/service/ServicePayer.sol\n\n\n\npragma solidity ^0.8.0;\n\ninterface IPayable {\n    function pay(string memory serviceName) external payable;\n}\n\n/**\n * @title ServicePayer\n * @dev Implementation of the ServicePayer\n */\nabstract contract ServicePayer {\n\n    constructor (address payable receiver, string memory serviceName) payable {\n        IPayable(receiver).pay{value: msg.value}(serviceName);\n    }\n}\n\n// File: contracts/token/BEP20/Astronomer.sol\n\n\n\npragma solidity ^0.8.0;\n\n\n\n\n\n\n/**\n * @title Astronomer\n * @dev Implementation of the Astronomer\n */\ncontract Astronomer is BEP20Mintable, BEP20Burnable, BEP20Operable, TokenRecover, ServicePayer {\n\n    constructor (\n        string memory name,\n        string memory symbol,\n        uint8 decimals,\n        uint256 initialBalance,\n        address payable feeReceiver\n    )\n      BEP20(name, symbol)\n      ServicePayer(feeReceiver, \"Astronomer\")\n      payable\n    {\n        _setupDecimals(decimals);\n        _mint(_msgSender(), initialBalance);\n    }\n\n    /**\n     * @dev Function to mint tokens.\n     *\n     * NOTE: restricting access to owner only. See {BEP20Mintable-mint}.\n     *\n     * @param account The address that will receive the minted tokens\n     * @param amount The amount of tokens to mint\n     */\n    function _mint(address account, uint256 amount) internal override onlyOwner {\n        super._mint(account, amount);\n    }\n\n    /**\n     * @dev Function to stop minting new tokens.\n     *\n     * NOTE: restricting access to owner only. See {BEP20Mintable-finishMinting}.\n     */\n    function _finishMinting() internal override onlyOwner {\n        super._finishMinting();\n    }\n}\n",
  "sourcePath": "/home/boyd/bep20MASTER/bep20-generator/contracts/token/BEP20/Astronomer.sol",
  "compiler": {
    "name": "solc",
    "version": "0.8.3+commit.8d00100c.Emscripten.clang"
  },
  "schemaVersion": "3.4.1",
  "updatedAt": "2021-07-13T21:19:52.949Z",
  "devdoc": {
    "details": "Implementation of the Astronomer",
    "kind": "dev",
    "methods": {
      "allowance(address,address)": {
        "details": "See {IBEP20-allowance}."
      },
      "approve(address,uint256)": {
        "details": "See {IBEP20-approve}. Requirements: - `spender` cannot be the zero address."
      },
      "approveAndCall(address,uint256)": {
        "details": "Approve spender to transfer tokens and then execute a callback on recipient.",
        "params": {
          "amount": "The amount allowed to be transferred",
          "spender": "The address allowed to transfer to"
        },
        "returns": {
          "_0": "A boolean that indicates if the operation was successful."
        }
      },
      "approveAndCall(address,uint256,bytes)": {
        "details": "Approve spender to transfer tokens and then execute a callback on recipient.",
        "params": {
          "amount": "The amount allowed to be transferred.",
          "data": "Additional data with no specified format.",
          "spender": "The address allowed to transfer to."
        },
        "returns": {
          "_0": "A boolean that indicates if the operation was successful."
        }
      },
      "balanceOf(address)": {
        "details": "See {IBEP20-balanceOf}."
      },
      "burn(uint256)": {
        "details": "Destroys `amount` tokens from the caller. See {BEP20-_burn}."
      },
      "burnFrom(address,uint256)": {
        "details": "Destroys `amount` tokens from `account`, deducting from the caller's allowance. See {BEP20-_burn} and {BEP20-allowance}. Requirements: - the caller must have allowance for ``accounts``'s tokens of at least `amount`."
      },
      "decimals()": {
        "details": "Returns the number of decimals used to get its user representation. For example, if `decimals` equals `2`, a balance of `505` tokens should be displayed to a user as `5,05` (`505 / 10 ** 2`). Tokens usually opt for a value of 18, imitating the relationship between Ether and Wei. This is the value {BEP20} uses, unless {_setupDecimals} is called. NOTE: This information is only used for _display_ purposes: it in no way affects any of the arithmetic of the contract, including {IBEP20-balanceOf} and {IBEP20-transfer}."
      },
      "decreaseAllowance(address,uint256)": {
        "details": "Atomically decreases the allowance granted to `spender` by the caller. This is an alternative to {approve} that can be used as a mitigation for problems described in {IBEP20-approve}. Emits an {Approval} event indicating the updated allowance. Requirements: - `spender` cannot be the zero address. - `spender` must have allowance for the caller of at least `subtractedValue`."
      },
      "finishMinting()": {
        "details": "Function to stop minting new tokens. WARNING: it allows everyone to finish minting. Access controls MUST be defined in derived contracts."
      },
      "getOwner()": {
        "details": "See {IBEP20-getOwner}."
      },
      "increaseAllowance(address,uint256)": {
        "details": "Atomically increases the allowance granted to `spender` by the caller. This is an alternative to {approve} that can be used as a mitigation for problems described in {IBEP20-approve}. Emits an {Approval} event indicating the updated allowance. Requirements: - `spender` cannot be the zero address."
      },
      "mint(address,uint256)": {
        "details": "Function to mint tokens. WARNING: it allows everyone to mint new tokens. Access controls MUST be defined in derived contracts.",
        "params": {
          "account": "The address that will receive the minted tokens",
          "amount": "The amount of tokens to mint"
        }
      },
      "mintingFinished()": {
        "returns": {
          "_0": "if minting is finished or not."
        }
      },
      "name()": {
        "details": "Returns the name of the token."
      },
      "owner()": {
        "details": "Returns the address of the current owner."
      },
      "recoverBEP20(address,uint256)": {
        "details": "Remember that only owner can call so be careful when use on contracts generated from other contracts.",
        "params": {
          "tokenAddress": "The token contract address",
          "tokenAmount": "Number of tokens to be sent"
        }
      },
      "renounceOwnership()": {
        "details": "Leaves the contract without owner. It will not be possible to call `onlyOwner` functions anymore. Can only be called by the current owner. NOTE: Renouncing ownership will leave the contract without an owner, thereby removing any functionality that is only available to the owner."
      },
      "supportsInterface(bytes4)": {
        "details": "See {IERC165-supportsInterface}."
      },
      "symbol()": {
        "details": "Returns the symbol of the token, usually a shorter version of the name."
      },
      "totalSupply()": {
        "details": "See {IBEP20-totalSupply}."
      },
      "transfer(address,uint256)": {
        "details": "See {IBEP20-transfer}. Requirements: - `recipient` cannot be the zero address. - the caller must have a balance of at least `amount`."
      },
      "transferAndCall(address,uint256)": {
        "details": "Transfer tokens to a specified address and then execute a callback on recipient.",
        "params": {
          "amount": "The amount to be transferred.",
          "recipient": "The address to transfer to."
        },
        "returns": {
          "_0": "A boolean that indicates if the operation was successful."
        }
      },
      "transferAndCall(address,uint256,bytes)": {
        "details": "Transfer tokens to a specified address and then execute a callback on recipient.",
        "params": {
          "amount": "The amount to be transferred",
          "data": "Additional data with no specified format",
          "recipient": "The address to transfer to"
        },
        "returns": {
          "_0": "A boolean that indicates if the operation was successful."
        }
      },
      "transferFrom(address,address,uint256)": {
        "details": "See {IBEP20-transferFrom}. Emits an {Approval} event indicating the updated allowance. This is not required by the EIP. See the note at the beginning of {BEP20}. Requirements: - `sender` and `recipient` cannot be the zero address. - `sender` must have a balance of at least `amount`. - the caller must have allowance for ``sender``'s tokens of at least `amount`."
      },
      "transferFromAndCall(address,address,uint256)": {
        "details": "Transfer tokens from one address to another and then execute a callback on recipient.",
        "params": {
          "amount": "The amount of tokens to be transferred",
          "recipient": "The address which you want to transfer to",
          "sender": "The address which you want to send tokens from"
        },
        "returns": {
          "_0": "A boolean that indicates if the operation was successful."
        }
      },
      "transferFromAndCall(address,address,uint256,bytes)": {
        "details": "Transfer tokens from one address to another and then execute a callback on recipient.",
        "params": {
          "amount": "The amount of tokens to be transferred",
          "data": "Additional data with no specified format",
          "recipient": "The address which you want to transfer to",
          "sender": "The address which you want to send tokens from"
        },
        "returns": {
          "_0": "A boolean that indicates if the operation was successful."
        }
      },
      "transferOwnership(address)": {
        "details": "Transfers ownership of the contract to a new account (`newOwner`). Can only be called by the current owner."
      }
    },
    "title": "Astronomer",
    "version": 1
  },
  "userdoc": {
    "kind": "user",
    "methods": {},
    "version": 1
  }
}