{
  "contractName": "Mintable",
  "abi": [
    {
      "inputs": [
        {
          "internalType": "string",
          "name": "name",
          "type": "string"
        },
        {
          "internalType": "string",
          "name": "symbol",
          "type": "string"
        },
        {
          "internalType": "uint8",
          "name": "decimals",
          "type": "uint8"
        },
        {
          "internalType": "uint256",
          "name": "cap",
          "type": "uint256"
        },
        {
          "internalType": "uint256",
          "name": "initialBalance",
          "type": "uint256"
        },
        {
          "internalType": "address payable",
          "name": "feeReceiver",
          "type": "address"
        }
      ],
      "stateMutability": "payable",
      "type": "constructor"
    },
    {
      "anonymous": false,
      "inputs": [
        {
          "indexed": true,
          "internalType": "address",
          "name": "owner",
          "type": "address"
        },
        {
          "indexed": true,
          "internalType": "address",
          "name": "spender",
          "type": "address"
        },
        {
          "indexed": false,
          "internalType": "uint256",
          "name": "value",
          "type": "uint256"
        }
      ],
      "name": "Approval",
      "type": "event"
    },
    {
      "anonymous": false,
      "inputs": [],
      "name": "MintFinished",
      "type": "event"
    },
    {
      "anonymous": false,
      "inputs": [
        {
          "indexed": true,
          "internalType": "address",
          "name": "previousOwner",
          "type": "address"
        },
        {
          "indexed": true,
          "internalType": "address",
          "name": "newOwner",
          "type": "address"
        }
      ],
      "name": "OwnershipTransferred",
      "type": "event"
    },
    {
      "anonymous": false,
      "inputs": [
        {
          "indexed": true,
          "internalType": "address",
          "name": "from",
          "type": "address"
        },
        {
          "indexed": true,
          "internalType": "address",
          "name": "to",
          "type": "address"
        },
        {
          "indexed": false,
          "internalType": "uint256",
          "name": "value",
          "type": "uint256"
        }
      ],
      "name": "Transfer",
      "type": "event"
    },
    {
      "inputs": [
        {
          "internalType": "address",
          "name": "owner",
          "type": "address"
        },
        {
          "internalType": "address",
          "name": "spender",
          "type": "address"
        }
      ],
      "name": "allowance",
      "outputs": [
        {
          "internalType": "uint256",
          "name": "",
          "type": "uint256"
        }
      ],
      "stateMutability": "view",
      "type": "function"
    },
    {
      "inputs": [
        {
          "internalType": "address",
          "name": "spender",
          "type": "address"
        },
        {
          "internalType": "uint256",
          "name": "amount",
          "type": "uint256"
        }
      ],
      "name": "approve",
      "outputs": [
        {
          "internalType": "bool",
          "name": "",
          "type": "bool"
        }
      ],
      "stateMutability": "nonpayable",
      "type": "function"
    },
    {
      "inputs": [
        {
          "internalType": "address",
          "name": "account",
          "type": "address"
        }
      ],
      "name": "balanceOf",
      "outputs": [
        {
          "internalType": "uint256",
          "name": "",
          "type": "uint256"
        }
      ],
      "stateMutability": "view",
      "type": "function"
    },
    {
      "inputs": [],
      "name": "cap",
      "outputs": [
        {
          "internalType": "uint256",
          "name": "",
          "type": "uint256"
        }
      ],
      "stateMutability": "view",
      "type": "function"
    },
    {
      "inputs": [],
      "name": "decimals",
      "outputs": [
        {
          "internalType": "uint8",
          "name": "",
          "type": "uint8"
        }
      ],
      "stateMutability": "view",
      "type": "function"
    },
    {
      "inputs": [
        {
          "internalType": "address",
          "name": "spender",
          "type": "address"
        },
        {
          "internalType": "uint256",
          "name": "subtractedValue",
          "type": "uint256"
        }
      ],
      "name": "decreaseAllowance",
      "outputs": [
        {
          "internalType": "bool",
          "name": "",
          "type": "bool"
        }
      ],
      "stateMutability": "nonpayable",
      "type": "function"
    },
    {
      "inputs": [],
      "name": "finishMinting",
      "outputs": [],
      "stateMutability": "nonpayable",
      "type": "function"
    },
    {
      "inputs": [],
      "name": "getOwner",
      "outputs": [
        {
          "internalType": "address",
          "name": "",
          "type": "address"
        }
      ],
      "stateMutability": "view",
      "type": "function"
    },
    {
      "inputs": [
        {
          "internalType": "address",
          "name": "spender",
          "type": "address"
        },
        {
          "internalType": "uint256",
          "name": "addedValue",
          "type": "uint256"
        }
      ],
      "name": "increaseAllowance",
      "outputs": [
        {
          "internalType": "bool",
          "name": "",
          "type": "bool"
        }
      ],
      "stateMutability": "nonpayable",
      "type": "function"
    },
    {
      "inputs": [
        {
          "internalType": "address",
          "name": "account",
          "type": "address"
        },
        {
          "internalType": "uint256",
          "name": "amount",
          "type": "uint256"
        }
      ],
      "name": "mint",
      "outputs": [],
      "stateMutability": "nonpayable",
      "type": "function"
    },
    {
      "inputs": [],
      "name": "mintingFinished",
      "outputs": [
        {
          "internalType": "bool",
          "name": "",
          "type": "bool"
        }
      ],
      "stateMutability": "view",
      "type": "function"
    },
    {
      "inputs": [],
      "name": "name",
      "outputs": [
        {
          "internalType": "string",
          "name": "",
          "type": "string"
        }
      ],
      "stateMutability": "view",
      "type": "function"
    },
    {
      "inputs": [],
      "name": "owner",
      "outputs": [
        {
          "internalType": "address",
          "name": "",
          "type": "address"
        }
      ],
      "stateMutability": "view",
      "type": "function"
    },
    {
      "inputs": [],
      "name": "renounceOwnership",
      "outputs": [],
      "stateMutability": "nonpayable",
      "type": "function"
    },
    {
      "inputs": [],
      "name": "symbol",
      "outputs": [
        {
          "internalType": "string",
          "name": "",
          "type": "string"
        }
      ],
      "stateMutability": "view",
      "type": "function"
    },
    {
      "inputs": [],
      "name": "totalSupply",
      "outputs": [
        {
          "internalType": "uint256",
          "name": "",
          "type": "uint256"
        }
      ],
      "stateMutability": "view",
      "type": "function"
    },
    {
      "inputs": [
        {
          "internalType": "address",
          "name": "recipient",
          "type": "address"
        },
        {
          "internalType": "uint256",
          "name": "amount",
          "type": "uint256"
        }
      ],
      "name": "transfer",
      "outputs": [
        {
          "internalType": "bool",
          "name": "",
          "type": "bool"
        }
      ],
      "stateMutability": "nonpayable",
      "type": "function"
    },
    {
      "inputs": [
        {
          "internalType": "address",
          "name": "sender",
          "type": "address"
        },
        {
          "internalType": "address",
          "name": "recipient",
          "type": "address"
        },
        {
          "internalType": "uint256",
          "name": "amount",
          "type": "uint256"
        }
      ],
      "name": "transferFrom",
      "outputs": [
        {
          "internalType": "bool",
          "name": "",
          "type": "bool"
        }
      ],
      "stateMutability": "nonpayable",
      "type": "function"
    },
    {
      "inputs": [
        {
          "internalType": "address",
          "name": "newOwner",
          "type": "address"
        }
      ],
      "name": "transferOwnership",
      "outputs": [],
      "stateMutability": "nonpayable",
      "type": "function"
    }
  ],
  "bytecode": "0x608060408190526008805460ff191690556200147b388190039081908339810160408190526200002f91620004dc565b60408051808201825260088152674d696e7461626c6560c01b6020820152600080546001600160a01b0319163390811782559251849387928b928b929182917f8be0079c531659141344cd1fd0a4f28419497f9722a3daafe3b4186f6b6457e0908290a3508151620000a9906004906020850190620003a7565b508051620000bf906005906020840190620003a7565b50506006805460ff191660121790555080620001225760405162461bcd60e51b815260206004820152601560248201527f42455032304361707065643a206361702069732030000000000000000000000060448201526064015b60405180910390fd5b6007556040516315b36b9760e11b81526001600160a01b03831690632b66d72e9034906200015590859060040162000590565b6000604051808303818588803b1580156200016f57600080fd5b505af115801562000184573d6000803e3d6000fd5b505050505050506200019c84620001b460201b60201c565b620001a83383620001ca565b50505050505062000670565b6006805460ff191660ff92909216919091179055565b6000546001600160a01b03163314620002265760405162461bcd60e51b815260206004820181905260248201527f4f776e61626c653a2063616c6c6572206973206e6f7420746865206f776e6572604482015260640162000119565b6200023d82826200024160201b620006ce1760201c565b5050565b600754816200024f60035490565b6200025b9190620005c5565b1115620002ab5760405162461bcd60e51b815260206004820152601960248201527f42455032304361707065643a2063617020657863656564656400000000000000604482015260640162000119565b6200023d8282620002c260201b620007391760201c565b6001600160a01b0382166200031a5760405162461bcd60e51b815260206004820152601f60248201527f42455032303a206d696e7420746f20746865207a65726f206164647265737300604482015260640162000119565b80600360008282546200032e9190620005c5565b90915550506001600160a01b038216600090815260016020526040812080548392906200035d908490620005c5565b90915550506040518181526001600160a01b038316906000907fddf252ad1be2c89b69c2b068fc378daa952ba7f163c4a11628f55a4df523b3ef9060200160405180910390a35050565b828054620003b5906200061d565b90600052602060002090601f016020900481019282620003d9576000855562000424565b82601f10620003f457805160ff191683800117855562000424565b8280016001018555821562000424579182015b828111156200042457825182559160200191906001019062000407565b506200043292915062000436565b5090565b5b8082111562000432576000815560010162000437565b600082601f8301126200045e578081fd5b81516001600160401b03808211156200047b576200047b6200065a565b604051601f8301601f19908116603f01168101908282118183101715620004a657620004a66200065a565b81604052838152866020858801011115620004bf578485fd5b620004d2846020830160208901620005ea565b9695505050505050565b60008060008060008060c08789031215620004f5578182fd5b86516001600160401b03808211156200050c578384fd5b6200051a8a838b016200044d565b9750602089015191508082111562000530578384fd5b506200053f89828a016200044d565b955050604087015160ff8116811462000556578283fd5b6060880151608089015160a08a015192965090945092506001600160a01b038116811462000582578182fd5b809150509295509295509295565b6000602082528251806020840152620005b1816040850160208701620005ea565b601f01601f19169190910160400192915050565b60008219821115620005e557634e487b7160e01b81526011600452602481fd5b500190565b60005b8381101562000607578181015183820152602001620005ed565b8381111562000617576000848401525b50505050565b600181811c908216806200063257607f821691505b602082108114156200065457634e487b7160e01b600052602260045260246000fd5b50919050565b634e487b7160e01b600052604160045260246000fd5b610dfb80620006806000396000f3fe608060405234801561001057600080fd5b50600436106101215760003560e01c806370a08231116100ad57806395d89b411161007157806395d89b411461022d578063a457c2d714610235578063a9059cbb14610248578063dd62ed3e1461025b578063f2fde38b1461029457610121565b806370a08231146101d4578063715018a6146101e75780637d64bcb4146101ef578063893d20e8146101f75780638da5cb5b1461021c57610121565b806323b872dd116100f457806323b872dd1461017c578063313ce5671461018f578063355274ea146101a457806339509351146101ac57806340c10f19146101bf57610121565b806305d2035b1461012657806306fdde0314610142578063095ea7b31461015757806318160ddd1461016a575b600080fd5b60085460ff165b60405190151581526020015b60405180910390f35b61014a6102a7565b6040516101399190610c7b565b61012d610165366004610c52565b610339565b6003545b604051908152602001610139565b61012d61018a366004610c17565b61034f565b60065460405160ff9091168152602001610139565b60075461016e565b61012d6101ba366004610c52565b610405565b6101d26101cd366004610c52565b61043c565b005b61016e6101e2366004610bc4565b61046d565b6101d261048c565b6101d2610500565b6000546001600160a01b03165b6040516001600160a01b039091168152602001610139565b6000546001600160a01b0316610204565b61014a61052d565b61012d610243366004610c52565b61053c565b61012d610256366004610c52565b6105d7565b61016e610269366004610be5565b6001600160a01b03918216600090815260026020908152604080832093909416825291909152205490565b6101d26102a2366004610bc4565b6105e4565b6060600480546102b690610d74565b80601f01602080910402602001604051908101604052809291908181526020018280546102e290610d74565b801561032f5780601f106103045761010080835404028352916020019161032f565b820191906000526020600020905b81548152906001019060200180831161031257829003601f168201915b5050505050905090565b6000610346338484610818565b50600192915050565b600061035c84848461093c565b6001600160a01b0384166000908152600260209081526040808320338452909152902054828110156103e65760405162461bcd60e51b815260206004820152602860248201527f42455032303a207472616e7366657220616d6f756e74206578636565647320616044820152676c6c6f77616e636560c01b60648201526084015b60405180910390fd5b6103fa85336103f58685610d5d565b610818565b506001949350505050565b3360008181526002602090815260408083206001600160a01b038716845290915281205490916103469185906103f5908690610d45565b60085460ff161561045f5760405162461bcd60e51b81526004016103dd90610cce565b6104698282610b14565b5050565b6001600160a01b0381166000908152600160205260409020545b919050565b6000546001600160a01b031633146104b65760405162461bcd60e51b81526004016103dd90610d10565b600080546040516001600160a01b03909116907f8be0079c531659141344cd1fd0a4f28419497f9722a3daafe3b4186f6b6457e0908390a3600080546001600160a01b0319169055565b60085460ff16156105235760405162461bcd60e51b81526004016103dd90610cce565b61052b610b48565b565b6060600580546102b690610d74565b3360009081526002602090815260408083206001600160a01b0386168452909152812054828110156105be5760405162461bcd60e51b815260206004820152602560248201527f42455032303a2064656372656173656420616c6c6f77616e63652062656c6f77604482015264207a65726f60d81b60648201526084016103dd565b6105cd33856103f58685610d5d565b5060019392505050565b600061034633848461093c565b6000546001600160a01b0316331461060e5760405162461bcd60e51b81526004016103dd90610d10565b6001600160a01b0381166106735760405162461bcd60e51b815260206004820152602660248201527f4f776e61626c653a206e6577206f776e657220697320746865207a65726f206160448201526564647265737360d01b60648201526084016103dd565b600080546040516001600160a01b03808516939216917f8be0079c531659141344cd1fd0a4f28419497f9722a3daafe3b4186f6b6457e091a3600080546001600160a01b0319166001600160a01b0392909216919091179055565b600754816106db60035490565b6106e59190610d45565b11156107335760405162461bcd60e51b815260206004820152601960248201527f42455032304361707065643a206361702065786365656465640000000000000060448201526064016103dd565b61046982825b6001600160a01b03821661078f5760405162461bcd60e51b815260206004820152601f60248201527f42455032303a206d696e7420746f20746865207a65726f20616464726573730060448201526064016103dd565b80600360008282546107a19190610d45565b90915550506001600160a01b038216600090815260016020526040812080548392906107ce908490610d45565b90915550506040518181526001600160a01b038316906000907fddf252ad1be2c89b69c2b068fc378daa952ba7f163c4a11628f55a4df523b3ef9060200160405180910390a35050565b6001600160a01b03831661087a5760405162461bcd60e51b8152602060048201526024808201527f42455032303a20617070726f76652066726f6d20746865207a65726f206164646044820152637265737360e01b60648201526084016103dd565b6001600160a01b0382166108db5760405162461bcd60e51b815260206004820152602260248201527f42455032303a20617070726f766520746f20746865207a65726f206164647265604482015261737360f01b60648201526084016103dd565b6001600160a01b0383811660008181526002602090815260408083209487168084529482529182902085905590518481527f8c5be1e5ebec7d5bd14f71427d1e84f3dd0314c0f7b2291e5b200ac8c7c3b925910160405180910390a3505050565b6001600160a01b0383166109a05760405162461bcd60e51b815260206004820152602560248201527f42455032303a207472616e736665722066726f6d20746865207a65726f206164604482015264647265737360d81b60648201526084016103dd565b6001600160a01b038216610a025760405162461bcd60e51b815260206004820152602360248201527f42455032303a207472616e7366657220746f20746865207a65726f206164647260448201526265737360e81b60648201526084016103dd565b6001600160a01b03831660009081526001602052604090205481811015610a7a5760405162461bcd60e51b815260206004820152602660248201527f42455032303a207472616e7366657220616d6f756e7420657863656564732062604482015265616c616e636560d01b60648201526084016103dd565b610a848282610d5d565b6001600160a01b038086166000908152600160205260408082209390935590851681529081208054849290610aba908490610d45565b92505081905550826001600160a01b0316846001600160a01b03167fddf252ad1be2c89b69c2b068fc378daa952ba7f163c4a11628f55a4df523b3ef84604051610b0691815260200190565b60405180910390a350505050565b6000546001600160a01b03163314610b3e5760405162461bcd60e51b81526004016103dd90610d10565b61046982826106ce565b6000546001600160a01b03163314610b725760405162461bcd60e51b81526004016103dd90610d10565b61052b6008805460ff191660011790556040517fae5184fba832cb2b1f702aca6117b8d265eaf03ad33eb133f19dde0f5920fa0890600090a1565b80356001600160a01b038116811461048757600080fd5b600060208284031215610bd5578081fd5b610bde82610bad565b9392505050565b60008060408385031215610bf7578081fd5b610c0083610bad565b9150610c0e60208401610bad565b90509250929050565b600080600060608486031215610c2b578081fd5b610c3484610bad565b9250610c4260208501610bad565b9150604084013590509250925092565b60008060408385031215610c64578182fd5b610c6d83610bad565b946020939093013593505050565b6000602080835283518082850152825b81811015610ca757858101830151858201604001528201610c8b565b81811115610cb85783604083870101525b50601f01601f1916929092016040019392505050565b60208082526022908201527f42455032304d696e7461626c653a206d696e74696e672069732066696e697368604082015261195960f21b606082015260800190565b6020808252818101527f4f776e61626c653a2063616c6c6572206973206e6f7420746865206f776e6572604082015260600190565b60008219821115610d5857610d58610daf565b500190565b600082821015610d6f57610d6f610daf565b500390565b600181811c90821680610d8857607f821691505b60208210811415610da957634e487b7160e01b600052602260045260246000fd5b50919050565b634e487b7160e01b600052601160045260246000fdfea2646970667358221220fdbc8bbfbb7c345fef7c1f461b8f698f2799cef9b1c6ff7b127b22a4ef5fdb4864736f6c63430008030033",
  "immutableReferences": {},
  "source": "// SPDX-License-Identifier: MIT\n\n// File: @openzeppelin/contracts/utils/Context.sol\n\n\n\npragma solidity ^0.8.0;\n\n/*\n * @dev Provides information about the current execution context, including the\n * sender of the transaction and its data. While these are generally available\n * via msg.sender and msg.data, they should not be accessed in such a direct\n * manner, since when dealing with meta-transactions the account sending and\n * paying for execution may not be the actual sender (as far as an application\n * is concerned).\n *\n * This contract is only required for intermediate, library-like contracts.\n */\nabstract contract Context {\n    function _msgSender() internal view virtual returns (address) {\n        return msg.sender;\n    }\n\n    function _msgData() internal view virtual returns (bytes calldata) {\n        this; // silence state mutability warning without generating bytecode - see https://github.com/ethereum/solidity/issues/2691\n        return msg.data;\n    }\n}\n\n// File: @openzeppelin/contracts/access/Ownable.sol\n\n\n\npragma solidity ^0.8.0;\n\n/**\n * @dev Contract module which provides a basic access control mechanism, where\n * there is an account (an owner) that can be granted exclusive access to\n * specific functions.\n *\n * By default, the owner account will be the one that deploys the contract. This\n * can later be changed with {transferOwnership}.\n *\n * This module is used through inheritance. It will make available the modifier\n * `onlyOwner`, which can be applied to your functions to restrict their use to\n * the owner.\n */\nabstract contract Ownable is Context {\n    address private _owner;\n\n    event OwnershipTransferred(address indexed previousOwner, address indexed newOwner);\n\n    /**\n     * @dev Initializes the contract setting the deployer as the initial owner.\n     */\n    constructor () {\n        address msgSender = _msgSender();\n        _owner = msgSender;\n        emit OwnershipTransferred(address(0), msgSender);\n    }\n\n    /**\n     * @dev Returns the address of the current owner.\n     */\n    function owner() public view virtual returns (address) {\n        return _owner;\n    }\n\n    /**\n     * @dev Throws if called by any account other than the owner.\n     */\n    modifier onlyOwner() {\n        require(owner() == _msgSender(), \"Ownable: caller is not the owner\");\n        _;\n    }\n\n    /**\n     * @dev Leaves the contract without owner. It will not be possible to call\n     * `onlyOwner` functions anymore. Can only be called by the current owner.\n     *\n     * NOTE: Renouncing ownership will leave the contract without an owner,\n     * thereby removing any functionality that is only available to the owner.\n     */\n    function renounceOwnership() public virtual onlyOwner {\n        emit OwnershipTransferred(_owner, address(0));\n        _owner = address(0);\n    }\n\n    /**\n     * @dev Transfers ownership of the contract to a new account (`newOwner`).\n     * Can only be called by the current owner.\n     */\n    function transferOwnership(address newOwner) public virtual onlyOwner {\n        require(newOwner != address(0), \"Ownable: new owner is the zero address\");\n        emit OwnershipTransferred(_owner, newOwner);\n        _owner = newOwner;\n    }\n}\n\n// File: contracts/token/BEP20/lib/IBEP20.sol\n\n\n\npragma solidity ^0.8.0;\n\n/**\n * @dev Interface of the BEP standard.\n */\ninterface IBEP20 {\n\n    /**\n     * @dev Returns the token name.\n     */\n    function name() external view returns (string memory);\n\n    /**\n     * @dev Returns the token symbol.\n     */\n    function symbol() external view returns (string memory);\n\n    /**\n     * @dev Returns the token decimals.\n     */\n    function decimals() external view returns (uint8);\n\n    /**\n     * @dev Returns the amount of tokens in existence.\n     */\n    function totalSupply() external view returns (uint256);\n\n    /**\n     * @dev Returns the amount of tokens owned by `account`.\n     */\n    function balanceOf(address account) external view returns (uint256);\n\n    /**\n     * @dev Returns the token owner.\n     */\n    function getOwner() external view returns (address);\n\n    /**\n     * @dev Moves `amount` tokens from the caller's account to `recipient`.\n     *\n     * Returns a boolean value indicating whether the operation succeeded.\n     *\n     * Emits a {Transfer} event.\n     */\n    function transfer(address recipient, uint256 amount) external returns (bool);\n\n    /**\n     * @dev Moves `amount` tokens from `sender` to `recipient` using the\n     * allowance mechanism. `amount` is then deducted from the caller's\n     * allowance.\n     *\n     * Returns a boolean value indicating whether the operation succeeded.\n     *\n     * Emits a {Transfer} event.\n     */\n    function transferFrom(address sender, address recipient, uint256 amount) external returns (bool);\n\n    /**\n     * @dev Sets `amount` as the allowance of `spender` over the caller's tokens.\n     *\n     * Returns a boolean value indicating whether the operation succeeded.\n     *\n     * IMPORTANT: Beware that changing an allowance with this method brings the risk\n     * that someone may use both the old and the new allowance by unfortunate\n     * transaction ordering. One possible solution to mitigate this race\n     * condition is to first reduce the spender's allowance to 0 and set the\n     * desired value afterwards:\n     * https://github.com/ethereum/EIPs/issues/20#issuecomment-263524729\n     *\n     * Emits an {Approval} event.\n     */\n    function approve(address spender, uint256 amount) external returns (bool);\n\n    /**\n     * @dev Returns the remaining number of tokens that `spender` will be\n     * allowed to spend on behalf of `owner` through {transferFrom}. This is\n     * zero by default.\n     *\n     * This value changes when {approve} or {transferFrom} are called.\n     */\n    function allowance(address _owner, address spender) external view returns (uint256);\n\n    /**\n     * @dev Emitted when `value` tokens are moved from one account (`from`) to\n     * another (`to`).\n     *\n     * Note that `value` may be zero.\n     */\n    event Transfer(address indexed from, address indexed to, uint256 value);\n\n    /**\n     * @dev Emitted when the allowance of a `spender` for an `owner` is set by\n     * a call to {approve}. `value` is the new allowance.\n     */\n    event Approval(address indexed owner, address indexed spender, uint256 value);\n}\n\n// File: contracts/token/BEP20/lib/BEP20.sol\n\n\n\npragma solidity ^0.8.0;\n\n\n\n/**\n * @dev Implementation of the {IBEP20} interface.\n *\n * This implementation is agnostic to the way tokens are created. This means\n * that a supply mechanism has to be added in a derived contract using {_mint}.\n *\n * We have followed general OpenZeppelin guidelines: functions revert instead\n * of returning `false` on failure. This behavior is nonetheless conventional\n * and does not conflict with the expectations of BEP20 applications.\n *\n * Additionally, an {Approval} event is emitted on calls to {transferFrom}.\n * This allows applications to reconstruct the allowance for all accounts just\n * by listening to said events. Other implementations of the EIP may not emit\n * these events, as it isn't required by the specification.\n *\n * Finally, the non-standard {decreaseAllowance} and {increaseAllowance}\n * functions have been added to mitigate the well-known issues around setting\n * allowances. See {IBEP20-approve}.\n */\ncontract BEP20 is Ownable, IBEP20 {\n    mapping (address => uint256) private _balances;\n\n    mapping (address => mapping (address => uint256)) private _allowances;\n\n    uint256 private _totalSupply;\n\n    string private _name;\n    string private _symbol;\n    uint8 private _decimals;\n\n    /**\n     * @dev Sets the values for {name} and {symbol}, initializes {decimals} with\n     * a default value of 18.\n     *\n     * To select a different value for {decimals}, use {_setupDecimals}.\n     *\n     * All three of these values are immutable: they can only be set once during\n     * construction.\n     */\n    constructor (string memory name_, string memory symbol_) {\n        _name = name_;\n        _symbol = symbol_;\n        _decimals = 18;\n    }\n\n    /**\n     * @dev Returns the name of the token.\n     */\n    function name() public view override returns (string memory) {\n        return _name;\n    }\n\n    /**\n     * @dev Returns the symbol of the token, usually a shorter version of the\n     * name.\n     */\n    function symbol() public view override returns (string memory) {\n        return _symbol;\n    }\n\n    /**\n     * @dev Returns the number of decimals used to get its user representation.\n     * For example, if `decimals` equals `2`, a balance of `505` tokens should\n     * be displayed to a user as `5,05` (`505 / 10 ** 2`).\n     *\n     * Tokens usually opt for a value of 18, imitating the relationship between\n     * Ether and Wei. This is the value {BEP20} uses, unless {_setupDecimals} is\n     * called.\n     *\n     * NOTE: This information is only used for _display_ purposes: it in\n     * no way affects any of the arithmetic of the contract, including\n     * {IBEP20-balanceOf} and {IBEP20-transfer}.\n     */\n    function decimals() public view override returns (uint8) {\n        return _decimals;\n    }\n\n    /**\n     * @dev See {IBEP20-totalSupply}.\n     */\n    function totalSupply() public view override returns (uint256) {\n        return _totalSupply;\n    }\n\n    /**\n     * @dev See {IBEP20-balanceOf}.\n     */\n    function balanceOf(address account) public view override returns (uint256) {\n        return _balances[account];\n    }\n\n    /**\n     * @dev See {IBEP20-getOwner}.\n     */\n    function getOwner() public view override returns (address) {\n        return owner();\n    }\n\n    /**\n     * @dev See {IBEP20-transfer}.\n     *\n     * Requirements:\n     *\n     * - `recipient` cannot be the zero address.\n     * - the caller must have a balance of at least `amount`.\n     */\n    function transfer(address recipient, uint256 amount) public virtual override returns (bool) {\n        _transfer(_msgSender(), recipient, amount);\n        return true;\n    }\n\n    /**\n     * @dev See {IBEP20-transferFrom}.\n     *\n     * Emits an {Approval} event indicating the updated allowance. This is not\n     * required by the EIP. See the note at the beginning of {BEP20}.\n     *\n     * Requirements:\n     *\n     * - `sender` and `recipient` cannot be the zero address.\n     * - `sender` must have a balance of at least `amount`.\n     * - the caller must have allowance for ``sender``'s tokens of at least\n     * `amount`.\n     */\n    function transferFrom(address sender, address recipient, uint256 amount) public virtual override returns (bool) {\n        _transfer(sender, recipient, amount);\n\n        uint256 currentAllowance = _allowances[sender][_msgSender()];\n        require(currentAllowance >= amount, \"BEP20: transfer amount exceeds allowance\");\n        _approve(sender, _msgSender(), currentAllowance - amount);\n\n        return true;\n    }\n\n    /**\n     * @dev See {IBEP20-approve}.\n     *\n     * Requirements:\n     *\n     * - `spender` cannot be the zero address.\n     */\n    function approve(address spender, uint256 amount) public virtual override returns (bool) {\n        _approve(_msgSender(), spender, amount);\n        return true;\n    }\n\n    /**\n     * @dev See {IBEP20-allowance}.\n     */\n    function allowance(address owner, address spender) public view virtual override returns (uint256) {\n        return _allowances[owner][spender];\n    }\n\n    /**\n     * @dev Atomically increases the allowance granted to `spender` by the caller.\n     *\n     * This is an alternative to {approve} that can be used as a mitigation for\n     * problems described in {IBEP20-approve}.\n     *\n     * Emits an {Approval} event indicating the updated allowance.\n     *\n     * Requirements:\n     *\n     * - `spender` cannot be the zero address.\n     */\n    function increaseAllowance(address spender, uint256 addedValue) public virtual returns (bool) {\n        _approve(_msgSender(), spender, _allowances[_msgSender()][spender] + addedValue);\n        return true;\n    }\n\n    /**\n     * @dev Atomically decreases the allowance granted to `spender` by the caller.\n     *\n     * This is an alternative to {approve} that can be used as a mitigation for\n     * problems described in {IBEP20-approve}.\n     *\n     * Emits an {Approval} event indicating the updated allowance.\n     *\n     * Requirements:\n     *\n     * - `spender` cannot be the zero address.\n     * - `spender` must have allowance for the caller of at least\n     * `subtractedValue`.\n     */\n    function decreaseAllowance(address spender, uint256 subtractedValue) public virtual returns (bool) {\n        uint256 currentAllowance = _allowances[_msgSender()][spender];\n        require(currentAllowance >= subtractedValue, \"BEP20: decreased allowance below zero\");\n        _approve(_msgSender(), spender, currentAllowance - subtractedValue);\n\n        return true;\n    }\n\n    /**\n     * @dev Moves tokens `amount` from `sender` to `recipient`.\n     *\n     * This is internal function is equivalent to {transfer}, and can be used to\n     * e.g. implement automatic token fees, slashing mechanisms, etc.\n     *\n     * Emits a {Transfer} event.\n     *\n     * Requirements:\n     *\n     * - `sender` cannot be the zero address.\n     * - `recipient` cannot be the zero address.\n     * - `sender` must have a balance of at least `amount`.\n     */\n    function _transfer(address sender, address recipient, uint256 amount) internal virtual {\n        require(sender != address(0), \"BEP20: transfer from the zero address\");\n        require(recipient != address(0), \"BEP20: transfer to the zero address\");\n\n        _beforeTokenTransfer(sender, recipient, amount);\n\n        uint256 senderBalance = _balances[sender];\n        require(senderBalance >= amount, \"BEP20: transfer amount exceeds balance\");\n        _balances[sender] = senderBalance - amount;\n        _balances[recipient] += amount;\n\n        emit Transfer(sender, recipient, amount);\n    }\n\n    /** @dev Creates `amount` tokens and assigns them to `account`, increasing\n     * the total supply.\n     *\n     * Emits a {Transfer} event with `from` set to the zero address.\n     *\n     * Requirements:\n     *\n     * - `to` cannot be the zero address.\n     */\n    function _mint(address account, uint256 amount) internal virtual {\n        require(account != address(0), \"BEP20: mint to the zero address\");\n\n        _beforeTokenTransfer(address(0), account, amount);\n\n        _totalSupply += amount;\n        _balances[account] += amount;\n        emit Transfer(address(0), account, amount);\n    }\n\n    /**\n     * @dev Destroys `amount` tokens from `account`, reducing the\n     * total supply.\n     *\n     * Emits a {Transfer} event with `to` set to the zero address.\n     *\n     * Requirements:\n     *\n     * - `account` cannot be the zero address.\n     * - `account` must have at least `amount` tokens.\n     */\n    function _burn(address account, uint256 amount) internal virtual {\n        require(account != address(0), \"BEP20: burn from the zero address\");\n\n        _beforeTokenTransfer(account, address(0), amount);\n\n        uint256 accountBalance = _balances[account];\n        require(accountBalance >= amount, \"BEP20: burn amount exceeds balance\");\n        _balances[account] = accountBalance - amount;\n        _totalSupply -= amount;\n\n        emit Transfer(account, address(0), amount);\n    }\n\n    /**\n     * @dev Sets `amount` as the allowance of `spender` over the `owner` s tokens.\n     *\n     * This internal function is equivalent to `approve`, and can be used to\n     * e.g. set automatic allowances for certain subsystems, etc.\n     *\n     * Emits an {Approval} event.\n     *\n     * Requirements:\n     *\n     * - `owner` cannot be the zero address.\n     * - `spender` cannot be the zero address.\n     */\n    function _approve(address owner, address spender, uint256 amount) internal virtual {\n        require(owner != address(0), \"BEP20: approve from the zero address\");\n        require(spender != address(0), \"BEP20: approve to the zero address\");\n\n        _allowances[owner][spender] = amount;\n        emit Approval(owner, spender, amount);\n    }\n\n    /**\n     * @dev Sets {decimals} to a value other than the default one of 18.\n     *\n     * WARNING: This function should only be called from the constructor. Most\n     * applications that interact with token contracts will not expect\n     * {decimals} to ever change, and may work incorrectly if it does.\n     */\n    function _setupDecimals(uint8 decimals_) internal {\n        _decimals = decimals_;\n    }\n\n    /**\n     * @dev Hook that is called before any transfer of tokens. This includes\n     * minting and burning.\n     *\n     * Calling conditions:\n     *\n     * - when `from` and `to` are both non-zero, `amount` of ``from``'s tokens\n     * will be to transferred to `to`.\n     * - when `from` is zero, `amount` tokens will be minted for `to`.\n     * - when `to` is zero, `amount` of ``from``'s tokens will be burned.\n     * - `from` and `to` are never both zero.\n     *\n     * To learn more about hooks, head to xref:ROOT:extending-contracts.adoc#using-hooks[Using Hooks].\n     */\n    function _beforeTokenTransfer(address from, address to, uint256 amount) internal virtual { }\n}\n\n// File: contracts/token/BEP20/lib/BEP20Capped.sol\n\n\n\npragma solidity ^0.8.0;\n\n\n/**\n * @dev Extension of {BEP20} that adds a cap to the supply of tokens.\n */\nabstract contract BEP20Capped is BEP20 {\n    uint256 private _cap;\n\n    /**\n     * @dev Sets the value of the `cap`. This value is immutable, it can only be\n     * set once during construction.\n     */\n    constructor (uint256 cap_) {\n        require(cap_ > 0, \"BEP20Capped: cap is 0\");\n        _cap = cap_;\n    }\n\n    /**\n     * @dev Returns the cap on the token's total supply.\n     */\n    function cap() public view returns (uint256) {\n        return _cap;\n    }\n\n    /**\n     * @dev See {BEP20-_mint}.\n     */\n    function _mint(address account, uint256 amount) internal virtual override {\n        require(totalSupply() + amount <= cap(), \"BEP20Capped: cap exceeded\");\n        super._mint(account, amount);\n    }\n}\n\n// File: contracts/token/BEP20/lib/BEP20Mintable.sol\n\n\n\npragma solidity ^0.8.0;\n\n\n/**\n * @title BEP20Mintable\n * @dev Implementation of the BEP20Mintable. Extension of {BEP20} that adds a minting behaviour.\n */\nabstract contract BEP20Mintable is BEP20 {\n\n    // indicates if minting is finished\n    bool private _mintingFinished = false;\n\n    /**\n     * @dev Emitted during finish minting\n     */\n    event MintFinished();\n\n    /**\n     * @dev Tokens can be minted only before minting finished.\n     */\n    modifier canMint() {\n        require(!_mintingFinished, \"BEP20Mintable: minting is finished\");\n        _;\n    }\n\n    /**\n     * @return if minting is finished or not.\n     */\n    function mintingFinished() public view returns (bool) {\n        return _mintingFinished;\n    }\n\n    /**\n     * @dev Function to mint tokens.\n     *\n     * WARNING: it allows everyone to mint new tokens. Access controls MUST be defined in derived contracts.\n     *\n     * @param account The address that will receive the minted tokens\n     * @param amount The amount of tokens to mint\n     */\n    function mint(address account, uint256 amount) public canMint {\n        _mint(account, amount);\n    }\n\n    /**\n     * @dev Function to stop minting new tokens.\n     *\n     * WARNING: it allows everyone to finish minting. Access controls MUST be defined in derived contracts.\n     */\n    function finishMinting() public canMint {\n        _finishMinting();\n    }\n\n    /**\n     * @dev Function to stop minting new tokens.\n     */\n    function _finishMinting() internal virtual {\n        _mintingFinished = true;\n\n        emit MintFinished();\n    }\n}\n\n// File: contracts/service/ServicePayer.sol\n\n\n\npragma solidity ^0.8.0;\n\ninterface IPayable {\n    function pay(string memory serviceName) external payable;\n}\n\n/**\n * @title ServicePayer\n * @dev Implementation of the ServicePayer\n */\nabstract contract ServicePayer {\n\n    constructor (address payable receiver, string memory serviceName) payable {\n        IPayable(receiver).pay{value: msg.value}(serviceName);\n    }\n}\n\n// File: contracts/token/BEP20/Mintable.sol\n\n\n\npragma solidity ^0.8.0;\n\n\n\n\n/**\n * @title Mintable\n * @dev Implementation of the Mintable\n */\ncontract Mintable is BEP20Capped, BEP20Mintable, ServicePayer {\n\n    constructor (\n        string memory name,\n        string memory symbol,\n        uint8 decimals,\n        uint256 cap,\n        uint256 initialBalance,\n        address payable feeReceiver\n    )\n        BEP20(name, symbol)\n        BEP20Capped(cap)\n        ServicePayer(feeReceiver, \"Mintable\")\n        payable\n    {\n        _setupDecimals(decimals);\n        _mint(_msgSender(), initialBalance);\n    }\n\n    /**\n     * @dev Function to mint tokens.\n     *\n     * NOTE: restricting access to owner only. See {BEP20Mintable-mint}.\n     *\n     * @param account The address that will receive the minted tokens\n     * @param amount The amount of tokens to mint\n     */\n    function _mint(address account, uint256 amount) internal override(BEP20, BEP20Capped) onlyOwner {\n        super._mint(account, amount);\n    }\n\n    /**\n     * @dev Function to stop minting new tokens.\n     *\n     * NOTE: restricting access to owner only. See {BEP20Mintable-finishMinting}.\n     */\n    function _finishMinting() internal override onlyOwner {\n        super._finishMinting();\n    }\n}\n",
  "sourcePath": "/home/boyd/bep20MASTER/bep20-generator/contracts/token/BEP20/Mintable.sol",
  "compiler": {
    "name": "solc",
    "version": "0.8.3+commit.8d00100c.Emscripten.clang"
  },
  "schemaVersion": "3.4.1",
  "updatedAt": "2021-07-13T21:19:53.058Z",
  "devdoc": {
    "details": "Implementation of the Mintable",
    "kind": "dev",
    "methods": {
      "allowance(address,address)": {
        "details": "See {IBEP20-allowance}."
      },
      "approve(address,uint256)": {
        "details": "See {IBEP20-approve}. Requirements: - `spender` cannot be the zero address."
      },
      "balanceOf(address)": {
        "details": "See {IBEP20-balanceOf}."
      },
      "cap()": {
        "details": "Returns the cap on the token's total supply."
      },
      "decimals()": {
        "details": "Returns the number of decimals used to get its user representation. For example, if `decimals` equals `2`, a balance of `505` tokens should be displayed to a user as `5,05` (`505 / 10 ** 2`). Tokens usually opt for a value of 18, imitating the relationship between Ether and Wei. This is the value {BEP20} uses, unless {_setupDecimals} is called. NOTE: This information is only used for _display_ purposes: it in no way affects any of the arithmetic of the contract, including {IBEP20-balanceOf} and {IBEP20-transfer}."
      },
      "decreaseAllowance(address,uint256)": {
        "details": "Atomically decreases the allowance granted to `spender` by the caller. This is an alternative to {approve} that can be used as a mitigation for problems described in {IBEP20-approve}. Emits an {Approval} event indicating the updated allowance. Requirements: - `spender` cannot be the zero address. - `spender` must have allowance for the caller of at least `subtractedValue`."
      },
      "finishMinting()": {
        "details": "Function to stop minting new tokens. WARNING: it allows everyone to finish minting. Access controls MUST be defined in derived contracts."
      },
      "getOwner()": {
        "details": "See {IBEP20-getOwner}."
      },
      "increaseAllowance(address,uint256)": {
        "details": "Atomically increases the allowance granted to `spender` by the caller. This is an alternative to {approve} that can be used as a mitigation for problems described in {IBEP20-approve}. Emits an {Approval} event indicating the updated allowance. Requirements: - `spender` cannot be the zero address."
      },
      "mint(address,uint256)": {
        "details": "Function to mint tokens. WARNING: it allows everyone to mint new tokens. Access controls MUST be defined in derived contracts.",
        "params": {
          "account": "The address that will receive the minted tokens",
          "amount": "The amount of tokens to mint"
        }
      },
      "mintingFinished()": {
        "returns": {
          "_0": "if minting is finished or not."
        }
      },
      "name()": {
        "details": "Returns the name of the token."
      },
      "owner()": {
        "details": "Returns the address of the current owner."
      },
      "renounceOwnership()": {
        "details": "Leaves the contract without owner. It will not be possible to call `onlyOwner` functions anymore. Can only be called by the current owner. NOTE: Renouncing ownership will leave the contract without an owner, thereby removing any functionality that is only available to the owner."
      },
      "symbol()": {
        "details": "Returns the symbol of the token, usually a shorter version of the name."
      },
      "totalSupply()": {
        "details": "See {IBEP20-totalSupply}."
      },
      "transfer(address,uint256)": {
        "details": "See {IBEP20-transfer}. Requirements: - `recipient` cannot be the zero address. - the caller must have a balance of at least `amount`."
      },
      "transferFrom(address,address,uint256)": {
        "details": "See {IBEP20-transferFrom}. Emits an {Approval} event indicating the updated allowance. This is not required by the EIP. See the note at the beginning of {BEP20}. Requirements: - `sender` and `recipient` cannot be the zero address. - `sender` must have a balance of at least `amount`. - the caller must have allowance for ``sender``'s tokens of at least `amount`."
      },
      "transferOwnership(address)": {
        "details": "Transfers ownership of the contract to a new account (`newOwner`). Can only be called by the current owner."
      }
    },
    "title": "Mintable",
    "version": 1
  },
  "userdoc": {
    "kind": "user",
    "methods": {},
    "version": 1
  }
}