{
  "contractName": "Ultimate",
  "abi": [
    {
      "inputs": [
        {
          "internalType": "string",
          "name": "name",
          "type": "string"
        },
        {
          "internalType": "string",
          "name": "symbol",
          "type": "string"
        },
        {
          "internalType": "uint8",
          "name": "decimals",
          "type": "uint8"
        },
        {
          "internalType": "uint256",
          "name": "cap",
          "type": "uint256"
        },
        {
          "internalType": "uint256",
          "name": "initialBalance",
          "type": "uint256"
        },
        {
          "internalType": "address payable",
          "name": "feeReceiver",
          "type": "address"
        }
      ],
      "stateMutability": "payable",
      "type": "constructor"
    },
    {
      "anonymous": false,
      "inputs": [
        {
          "indexed": true,
          "internalType": "address",
          "name": "owner",
          "type": "address"
        },
        {
          "indexed": true,
          "internalType": "address",
          "name": "spender",
          "type": "address"
        },
        {
          "indexed": false,
          "internalType": "uint256",
          "name": "value",
          "type": "uint256"
        }
      ],
      "name": "Approval",
      "type": "event"
    },
    {
      "anonymous": false,
      "inputs": [],
      "name": "MintFinished",
      "type": "event"
    },
    {
      "anonymous": false,
      "inputs": [
        {
          "indexed": true,
          "internalType": "address",
          "name": "previousOwner",
          "type": "address"
        },
        {
          "indexed": true,
          "internalType": "address",
          "name": "newOwner",
          "type": "address"
        }
      ],
      "name": "OwnershipTransferred",
      "type": "event"
    },
    {
      "anonymous": false,
      "inputs": [
        {
          "indexed": true,
          "internalType": "bytes32",
          "name": "role",
          "type": "bytes32"
        },
        {
          "indexed": true,
          "internalType": "bytes32",
          "name": "previousAdminRole",
          "type": "bytes32"
        },
        {
          "indexed": true,
          "internalType": "bytes32",
          "name": "newAdminRole",
          "type": "bytes32"
        }
      ],
      "name": "RoleAdminChanged",
      "type": "event"
    },
    {
      "anonymous": false,
      "inputs": [
        {
          "indexed": true,
          "internalType": "bytes32",
          "name": "role",
          "type": "bytes32"
        },
        {
          "indexed": true,
          "internalType": "address",
          "name": "account",
          "type": "address"
        },
        {
          "indexed": true,
          "internalType": "address",
          "name": "sender",
          "type": "address"
        }
      ],
      "name": "RoleGranted",
      "type": "event"
    },
    {
      "anonymous": false,
      "inputs": [
        {
          "indexed": true,
          "internalType": "bytes32",
          "name": "role",
          "type": "bytes32"
        },
        {
          "indexed": true,
          "internalType": "address",
          "name": "account",
          "type": "address"
        },
        {
          "indexed": true,
          "internalType": "address",
          "name": "sender",
          "type": "address"
        }
      ],
      "name": "RoleRevoked",
      "type": "event"
    },
    {
      "anonymous": false,
      "inputs": [
        {
          "indexed": true,
          "internalType": "address",
          "name": "from",
          "type": "address"
        },
        {
          "indexed": true,
          "internalType": "address",
          "name": "to",
          "type": "address"
        },
        {
          "indexed": false,
          "internalType": "uint256",
          "name": "value",
          "type": "uint256"
        }
      ],
      "name": "Transfer",
      "type": "event"
    },
    {
      "inputs": [],
      "name": "DEFAULT_ADMIN_ROLE",
      "outputs": [
        {
          "internalType": "bytes32",
          "name": "",
          "type": "bytes32"
        }
      ],
      "stateMutability": "view",
      "type": "function"
    },
    {
      "inputs": [],
      "name": "MINTER_ROLE",
      "outputs": [
        {
          "internalType": "bytes32",
          "name": "",
          "type": "bytes32"
        }
      ],
      "stateMutability": "view",
      "type": "function"
    },
    {
      "inputs": [
        {
          "internalType": "address",
          "name": "owner",
          "type": "address"
        },
        {
          "internalType": "address",
          "name": "spender",
          "type": "address"
        }
      ],
      "name": "allowance",
      "outputs": [
        {
          "internalType": "uint256",
          "name": "",
          "type": "uint256"
        }
      ],
      "stateMutability": "view",
      "type": "function"
    },
    {
      "inputs": [
        {
          "internalType": "address",
          "name": "spender",
          "type": "address"
        },
        {
          "internalType": "uint256",
          "name": "amount",
          "type": "uint256"
        }
      ],
      "name": "approve",
      "outputs": [
        {
          "internalType": "bool",
          "name": "",
          "type": "bool"
        }
      ],
      "stateMutability": "nonpayable",
      "type": "function"
    },
    {
      "inputs": [
        {
          "internalType": "address",
          "name": "spender",
          "type": "address"
        },
        {
          "internalType": "uint256",
          "name": "amount",
          "type": "uint256"
        }
      ],
      "name": "approveAndCall",
      "outputs": [
        {
          "internalType": "bool",
          "name": "",
          "type": "bool"
        }
      ],
      "stateMutability": "nonpayable",
      "type": "function"
    },
    {
      "inputs": [
        {
          "internalType": "address",
          "name": "spender",
          "type": "address"
        },
        {
          "internalType": "uint256",
          "name": "amount",
          "type": "uint256"
        },
        {
          "internalType": "bytes",
          "name": "data",
          "type": "bytes"
        }
      ],
      "name": "approveAndCall",
      "outputs": [
        {
          "internalType": "bool",
          "name": "",
          "type": "bool"
        }
      ],
      "stateMutability": "nonpayable",
      "type": "function"
    },
    {
      "inputs": [
        {
          "internalType": "address",
          "name": "account",
          "type": "address"
        }
      ],
      "name": "balanceOf",
      "outputs": [
        {
          "internalType": "uint256",
          "name": "",
          "type": "uint256"
        }
      ],
      "stateMutability": "view",
      "type": "function"
    },
    {
      "inputs": [
        {
          "internalType": "uint256",
          "name": "amount",
          "type": "uint256"
        }
      ],
      "name": "burn",
      "outputs": [],
      "stateMutability": "nonpayable",
      "type": "function"
    },
    {
      "inputs": [
        {
          "internalType": "address",
          "name": "account",
          "type": "address"
        },
        {
          "internalType": "uint256",
          "name": "amount",
          "type": "uint256"
        }
      ],
      "name": "burnFrom",
      "outputs": [],
      "stateMutability": "nonpayable",
      "type": "function"
    },
    {
      "inputs": [],
      "name": "cap",
      "outputs": [
        {
          "internalType": "uint256",
          "name": "",
          "type": "uint256"
        }
      ],
      "stateMutability": "view",
      "type": "function"
    },
    {
      "inputs": [],
      "name": "decimals",
      "outputs": [
        {
          "internalType": "uint8",
          "name": "",
          "type": "uint8"
        }
      ],
      "stateMutability": "view",
      "type": "function"
    },
    {
      "inputs": [
        {
          "internalType": "address",
          "name": "spender",
          "type": "address"
        },
        {
          "internalType": "uint256",
          "name": "subtractedValue",
          "type": "uint256"
        }
      ],
      "name": "decreaseAllowance",
      "outputs": [
        {
          "internalType": "bool",
          "name": "",
          "type": "bool"
        }
      ],
      "stateMutability": "nonpayable",
      "type": "function"
    },
    {
      "inputs": [],
      "name": "finishMinting",
      "outputs": [],
      "stateMutability": "nonpayable",
      "type": "function"
    },
    {
      "inputs": [
        {
          "internalType": "bytes32",
          "name": "role",
          "type": "bytes32"
        }
      ],
      "name": "getRoleAdmin",
      "outputs": [
        {
          "internalType": "bytes32",
          "name": "",
          "type": "bytes32"
        }
      ],
      "stateMutability": "view",
      "type": "function"
    },
    {
      "inputs": [
        {
          "internalType": "bytes32",
          "name": "role",
          "type": "bytes32"
        },
        {
          "internalType": "uint256",
          "name": "index",
          "type": "uint256"
        }
      ],
      "name": "getRoleMember",
      "outputs": [
        {
          "internalType": "address",
          "name": "",
          "type": "address"
        }
      ],
      "stateMutability": "view",
      "type": "function"
    },
    {
      "inputs": [
        {
          "internalType": "bytes32",
          "name": "role",
          "type": "bytes32"
        }
      ],
      "name": "getRoleMemberCount",
      "outputs": [
        {
          "internalType": "uint256",
          "name": "",
          "type": "uint256"
        }
      ],
      "stateMutability": "view",
      "type": "function"
    },
    {
      "inputs": [
        {
          "internalType": "bytes32",
          "name": "role",
          "type": "bytes32"
        },
        {
          "internalType": "address",
          "name": "account",
          "type": "address"
        }
      ],
      "name": "grantRole",
      "outputs": [],
      "stateMutability": "nonpayable",
      "type": "function"
    },
    {
      "inputs": [
        {
          "internalType": "bytes32",
          "name": "role",
          "type": "bytes32"
        },
        {
          "internalType": "address",
          "name": "account",
          "type": "address"
        }
      ],
      "name": "hasRole",
      "outputs": [
        {
          "internalType": "bool",
          "name": "",
          "type": "bool"
        }
      ],
      "stateMutability": "view",
      "type": "function"
    },
    {
      "inputs": [
        {
          "internalType": "address",
          "name": "spender",
          "type": "address"
        },
        {
          "internalType": "uint256",
          "name": "addedValue",
          "type": "uint256"
        }
      ],
      "name": "increaseAllowance",
      "outputs": [
        {
          "internalType": "bool",
          "name": "",
          "type": "bool"
        }
      ],
      "stateMutability": "nonpayable",
      "type": "function"
    },
    {
      "inputs": [
        {
          "internalType": "address",
          "name": "account",
          "type": "address"
        },
        {
          "internalType": "uint256",
          "name": "amount",
          "type": "uint256"
        }
      ],
      "name": "mint",
      "outputs": [],
      "stateMutability": "nonpayable",
      "type": "function"
    },
    {
      "inputs": [],
      "name": "mintingFinished",
      "outputs": [
        {
          "internalType": "bool",
          "name": "",
          "type": "bool"
        }
      ],
      "stateMutability": "view",
      "type": "function"
    },
    {
      "inputs": [],
      "name": "name",
      "outputs": [
        {
          "internalType": "string",
          "name": "",
          "type": "string"
        }
      ],
      "stateMutability": "view",
      "type": "function"
    },
    {
      "inputs": [],
      "name": "owner",
      "outputs": [
        {
          "internalType": "address",
          "name": "",
          "type": "address"
        }
      ],
      "stateMutability": "view",
      "type": "function"
    },
    {
      "inputs": [
        {
          "internalType": "address",
          "name": "tokenAddress",
          "type": "address"
        },
        {
          "internalType": "uint256",
          "name": "tokenAmount",
          "type": "uint256"
        }
      ],
      "name": "recoverERC20",
      "outputs": [],
      "stateMutability": "nonpayable",
      "type": "function"
    },
    {
      "inputs": [],
      "name": "renounceOwnership",
      "outputs": [],
      "stateMutability": "nonpayable",
      "type": "function"
    },
    {
      "inputs": [
        {
          "internalType": "bytes32",
          "name": "role",
          "type": "bytes32"
        },
        {
          "internalType": "address",
          "name": "account",
          "type": "address"
        }
      ],
      "name": "renounceRole",
      "outputs": [],
      "stateMutability": "nonpayable",
      "type": "function"
    },
    {
      "inputs": [
        {
          "internalType": "bytes32",
          "name": "role",
          "type": "bytes32"
        },
        {
          "internalType": "address",
          "name": "account",
          "type": "address"
        }
      ],
      "name": "revokeRole",
      "outputs": [],
      "stateMutability": "nonpayable",
      "type": "function"
    },
    {
      "inputs": [
        {
          "internalType": "bytes4",
          "name": "interfaceId",
          "type": "bytes4"
        }
      ],
      "name": "supportsInterface",
      "outputs": [
        {
          "internalType": "bool",
          "name": "",
          "type": "bool"
        }
      ],
      "stateMutability": "view",
      "type": "function"
    },
    {
      "inputs": [],
      "name": "symbol",
      "outputs": [
        {
          "internalType": "string",
          "name": "",
          "type": "string"
        }
      ],
      "stateMutability": "view",
      "type": "function"
    },
    {
      "inputs": [],
      "name": "totalSupply",
      "outputs": [
        {
          "internalType": "uint256",
          "name": "",
          "type": "uint256"
        }
      ],
      "stateMutability": "view",
      "type": "function"
    },
    {
      "inputs": [
        {
          "internalType": "address",
          "name": "recipient",
          "type": "address"
        },
        {
          "internalType": "uint256",
          "name": "amount",
          "type": "uint256"
        }
      ],
      "name": "transfer",
      "outputs": [
        {
          "internalType": "bool",
          "name": "",
          "type": "bool"
        }
      ],
      "stateMutability": "nonpayable",
      "type": "function"
    },
    {
      "inputs": [
        {
          "internalType": "address",
          "name": "recipient",
          "type": "address"
        },
        {
          "internalType": "uint256",
          "name": "amount",
          "type": "uint256"
        }
      ],
      "name": "transferAndCall",
      "outputs": [
        {
          "internalType": "bool",
          "name": "",
          "type": "bool"
        }
      ],
      "stateMutability": "nonpayable",
      "type": "function"
    },
    {
      "inputs": [
        {
          "internalType": "address",
          "name": "recipient",
          "type": "address"
        },
        {
          "internalType": "uint256",
          "name": "amount",
          "type": "uint256"
        },
        {
          "internalType": "bytes",
          "name": "data",
          "type": "bytes"
        }
      ],
      "name": "transferAndCall",
      "outputs": [
        {
          "internalType": "bool",
          "name": "",
          "type": "bool"
        }
      ],
      "stateMutability": "nonpayable",
      "type": "function"
    },
    {
      "inputs": [
        {
          "internalType": "address",
          "name": "sender",
          "type": "address"
        },
        {
          "internalType": "address",
          "name": "recipient",
          "type": "address"
        },
        {
          "internalType": "uint256",
          "name": "amount",
          "type": "uint256"
        }
      ],
      "name": "transferFrom",
      "outputs": [
        {
          "internalType": "bool",
          "name": "",
          "type": "bool"
        }
      ],
      "stateMutability": "nonpayable",
      "type": "function"
    },
    {
      "inputs": [
        {
          "internalType": "address",
          "name": "sender",
          "type": "address"
        },
        {
          "internalType": "address",
          "name": "recipient",
          "type": "address"
        },
        {
          "internalType": "uint256",
          "name": "amount",
          "type": "uint256"
        },
        {
          "internalType": "bytes",
          "name": "data",
          "type": "bytes"
        }
      ],
      "name": "transferFromAndCall",
      "outputs": [
        {
          "internalType": "bool",
          "name": "",
          "type": "bool"
        }
      ],
      "stateMutability": "nonpayable",
      "type": "function"
    },
    {
      "inputs": [
        {
          "internalType": "address",
          "name": "sender",
          "type": "address"
        },
        {
          "internalType": "address",
          "name": "recipient",
          "type": "address"
        },
        {
          "internalType": "uint256",
          "name": "amount",
          "type": "uint256"
        }
      ],
      "name": "transferFromAndCall",
      "outputs": [
        {
          "internalType": "bool",
          "name": "",
          "type": "bool"
        }
      ],
      "stateMutability": "nonpayable",
      "type": "function"
    },
    {
      "inputs": [
        {
          "internalType": "address",
          "name": "newOwner",
          "type": "address"
        }
      ],
      "name": "transferOwnership",
      "outputs": [],
      "stateMutability": "nonpayable",
      "type": "function"
    }
  ],
  "bytecode": "0x608060408190526007805460ff1916905562002c6638819003908190833981810160405260c08110156200003257600080fd5b81019080805160405193929190846401000000008211156200005357600080fd5b9083019060208201858111156200006957600080fd5b82516401000000008111828201881017156200008457600080fd5b82525081516020918201929091019080838360005b83811015620000b357818101518382015260200162000099565b50505050905090810190601f168015620000e15780820380516001836020036101000a031916815260200191505b50604052602001805160405193929190846401000000008211156200010557600080fd5b9083019060208201858111156200011b57600080fd5b82516401000000008111828201881017156200013657600080fd5b82525081516020918201929091019080838360005b83811015620001655781810151838201526020016200014b565b50505050905090810190601f168015620001935780820380516001836020036101000a031916815260200191505b5060408181526020838101518483015160608601516080909601518585019094526008855267556c74696d61746560c01b838601528951919750955091928392909189918991889184918491620001f19160039190850190620008cf565b50805162000207906004906020840190620008cf565b50506005805460ff1916601217905550806200026a576040805162461bcd60e51b815260206004820152601560248201527f45524332304361707065643a2063617020697320300000000000000000000000604482015290519081900360640190fd5b6006556200027f6301ffc9a760e01b6200042e565b62000291634bbee2df60e01b6200042e565b620002a3637dcf646760e11b6200042e565b5060009050620002b2620004b3565b600980546001600160a01b0319166001600160a01b038316908117909155604051919250906000907f8be0079c531659141344cd1fd0a4f28419497f9722a3daafe3b4186f6b6457e0908290a35062000316600062000310620004b3565b620004b7565b6200033460008051602062002c1b83398151915262000310620004b3565b816001600160a01b0316632b66d72e34836040518363ffffffff1660e01b81526004018080602001828103825283818151815260200191508051906020019080838360005b838110156200039357818101518382015260200162000379565b50505050905090810190601f168015620003c15780820380516001836020036101000a031916815260200191505b50925050506000604051808303818588803b158015620003e057600080fd5b505af1158015620003f5573d6000803e3d6000fd5b505050505050506200040d84620004c760201b60201c565b620004226200041b620004b3565b83620004dd565b5050505050506200097b565b6001600160e01b031980821614156200048e576040805162461bcd60e51b815260206004820152601c60248201527f4552433136353a20696e76616c696420696e7465726661636520696400000000604482015290519081900360640190fd5b6001600160e01b0319166000908152600860205260409020805460ff19166001179055565b3390565b620004c3828262000555565b5050565b6005805460ff191660ff92909216919091179055565b6200050160008051602062002c1b833981519152620004fb620004b3565b620005d0565b6200053e5760405162461bcd60e51b815260040180806020018281038252602b81526020018062002c3b602b913960400191505060405180910390fd5b620004c38282620005ff60201b620013051760201c565b6000828152600a602090815260409091206200057c918390620013f56200070e821b17901c565b15620004c3576200058c620004b3565b6001600160a01b0316816001600160a01b0316837f2f8788117e7eff1d82e926ec794901d17c78024a50270940304540a733656f0d60405160405180910390a45050565b6000828152600a602090815260408220620005f69184906200140a62000725821b17901c565b90505b92915050565b6001600160a01b0382166200065b576040805162461bcd60e51b815260206004820152601f60248201527f45524332303a206d696e7420746f20746865207a65726f206164647265737300604482015290519081900360640190fd5b62000669600083836200073c565b62000685816002546200075960201b6200141f1790919060201c565b6002556001600160a01b03821660009081526020818152604090912054620006b89183906200141f62000759821b17901c565b6001600160a01b0383166000818152602081815260408083209490945583518581529351929391927fddf252ad1be2c89b69c2b068fc378daa952ba7f163c4a11628f55a4df523b3ef9281900390910190a35050565b6000620005f6836001600160a01b038416620007b4565b6000620005f6836001600160a01b03841662000803565b620007548383836200081b60201b620014791760201c565b505050565b600082820183811015620005f6576040805162461bcd60e51b815260206004820152601b60248201527f536166654d6174683a206164646974696f6e206f766572666c6f770000000000604482015290519081900360640190fd5b6000620007c2838362000803565b620007fa57508154600181810184556000848152602080822090930184905584548482528286019093526040902091909155620005f9565b506000620005f9565b60009081526001919091016020526040902054151590565b620008338383836200075460201b62000e101760201c565b6001600160a01b03831662000754576200084c620008c3565b6200086f826200085b620008c9565b6200075960201b6200141f1790919060201c565b111562000754576040805162461bcd60e51b815260206004820152601960248201527f45524332304361707065643a2063617020657863656564656400000000000000604482015290519081900360640190fd5b60065490565b60025490565b828054600181600116156101000203166002900490600052602060002090601f01602090048101928262000907576000855562000952565b82601f106200092257805160ff191683800117855562000952565b8280016001018555821562000952579182015b828111156200095257825182559160200191906001019062000935565b506200096092915062000964565b5090565b5b8082111562000960576000815560010162000965565b612290806200098b6000396000f3fe608060405234801561001057600080fd5b50600436106102275760003560e01c8063715018a611610130578063a457c2d7116100b8578063d53913931161007c578063d539139314610894578063d547741f1461089c578063d8fbe994146108c8578063dd62ed3e146108fe578063f2fde38b1461092c57610227565b8063a457c2d71461069e578063a9059cbb146106ca578063c1d34b89146106f6578063ca15c873146107bc578063cae9ca51146107d957610227565b80638da5cb5b116100ff5780638da5cb5b1461061b5780639010d07c1461063f57806391d148541461066257806395d89b411461068e578063a217fddf1461069657610227565b8063715018a6146105b357806379cc6790146105bb5780637d64bcb4146105e75780638980f11f146105ef57610227565b8063313ce567116101b35780633950935111610182578063395093511461045d5780634000aea01461048957806340c10f191461054457806342966c681461057057806370a082311461058d57610227565b8063313ce567146103df5780633177029f146103fd578063355274ea1461042957806336568abe1461043157610227565b80631296ee62116101fa5780631296ee621461031857806318160ddd1461034457806323b872dd1461035e578063248a9ca3146103945780632f2ff15d146103b157610227565b806301ffc9a71461022c57806305d2035b1461026757806306fdde031461026f578063095ea7b3146102ec575b600080fd5b6102536004803603602081101561024257600080fd5b50356001600160e01b031916610952565b604080519115158252519081900360200190f35b610253610971565b61027761097a565b6040805160208082528351818301528351919283929083019185019080838360005b838110156102b1578181015183820152602001610299565b50505050905090810190601f1680156102de5780820380516001836020036101000a031916815260200191505b509250505060405180910390f35b6102536004803603604081101561030257600080fd5b506001600160a01b038135169060200135610a10565b6102536004803603604081101561032e57600080fd5b506001600160a01b038135169060200135610a2e565b61034c610a51565b60408051918252519081900360200190f35b6102536004803603606081101561037457600080fd5b506001600160a01b03813581169160208101359091169060400135610a57565b61034c600480360360208110156103aa57600080fd5b5035610ade565b6103dd600480360360408110156103c757600080fd5b50803590602001356001600160a01b0316610af3565b005b6103e7610b5f565b6040805160ff9092168252519081900360200190f35b6102536004803603604081101561041357600080fd5b506001600160a01b038135169060200135610b68565b61034c610b84565b6103dd6004803603604081101561044757600080fd5b50803590602001356001600160a01b0316610b8a565b6102536004803603604081101561047357600080fd5b506001600160a01b038135169060200135610beb565b6102536004803603606081101561049f57600080fd5b6001600160a01b03823516916020810135918101906060810160408201356401000000008111156104cf57600080fd5b8201836020820111156104e157600080fd5b8035906020019184600183028401116401000000008311171561050357600080fd5b91908080601f016020809104026020016040519081016040528093929190818152602001838380828437600092019190915250929550610c39945050505050565b6103dd6004803603604081101561055a57600080fd5b506001600160a01b038135169060200135610c94565b6103dd6004803603602081101561058657600080fd5b5035610ce0565b61034c600480360360208110156105a357600080fd5b50356001600160a01b0316610cf4565b6103dd610d0f565b6103dd600480360360408110156105d157600080fd5b506001600160a01b038135169060200135610dbb565b6103dd610e15565b6103dd6004803603604081101561060557600080fd5b506001600160a01b038135169060200135610e61565b610623610f51565b604080516001600160a01b039092168252519081900360200190f35b6106236004803603604081101561065557600080fd5b5080359060200135610f60565b6102536004803603604081101561067857600080fd5b50803590602001356001600160a01b0316610f78565b610277610f90565b61034c610ff1565b610253600480360360408110156106b457600080fd5b506001600160a01b038135169060200135610ff6565b610253600480360360408110156106e057600080fd5b506001600160a01b03813516906020013561105e565b6102536004803603608081101561070c57600080fd5b6001600160a01b0382358116926020810135909116916040820135919081019060808101606082013564010000000081111561074757600080fd5b82018360208201111561075957600080fd5b8035906020019184600183028401116401000000008311171561077b57600080fd5b91908080601f016020809104026020016040519081016040528093929190818152602001838380828437600092019190915250929550611072945050505050565b61034c600480360360208110156107d257600080fd5b50356110d3565b610253600480360360608110156107ef57600080fd5b6001600160a01b038235169160208101359181019060608101604082013564010000000081111561081f57600080fd5b82018360208201111561083157600080fd5b8035906020019184600183028401116401000000008311171561085357600080fd5b91908080601f0160208091040260200160405190810160405280939291908181526020018383808284376000920191909152509295506110ea945050505050565b61034c61113d565b6103dd600480360360408110156108b257600080fd5b50803590602001356001600160a01b0316611161565b610253600480360360608110156108de57600080fd5b506001600160a01b038135811691602081013590911690604001356111ba565b61034c6004803603604081101561091457600080fd5b506001600160a01b03813581169160200135166111d7565b6103dd6004803603602081101561094257600080fd5b50356001600160a01b0316611202565b6001600160e01b03191660009081526008602052604090205460ff1690565b60075460ff1690565b60038054604080516020601f6002600019610100600188161502019095169490940493840181900481028201810190925282815260609390929091830182828015610a065780601f106109db57610100808354040283529160200191610a06565b820191906000526020600020905b8154815290600101906020018083116109e957829003601f168201915b5050505050905090565b6000610a24610a1d6114ff565b8484611503565b5060015b92915050565b6000610a4a838360405180602001604052806000815250610c39565b9392505050565b60025490565b6000610a648484846115ef565b610ad484610a706114ff565b610acf8560405180606001604052806028815260200161210f602891396001600160a01b038a16600090815260016020526040812090610aae6114ff565b6001600160a01b03168152602081019190915260400160002054919061174a565b611503565b5060019392505050565b6000908152600a602052604090206002015490565b6000828152600a6020526040902060020154610b1690610b116114ff565b610f78565b610b515760405162461bcd60e51b815260040180806020018281038252602f815260200180611faa602f913960400191505060405180910390fd5b610b5b82826117e1565b5050565b60055460ff1690565b6000610a4a8383604051806020016040528060008152506110ea565b60065490565b610b926114ff565b6001600160a01b0316816001600160a01b031614610be15760405162461bcd60e51b815260040180806020018281038252602f81526020018061222c602f913960400191505060405180910390fd5b610b5b828261184a565b6000610a24610bf86114ff565b84610acf8560016000610c096114ff565b6001600160a01b03908116825260208083019390935260409182016000908120918c16815292529020549061141f565b6000610c45848461105e565b50610c59610c516114ff565b8585856118b3565b610ad45760405162461bcd60e51b81526004018080602001828103825260268152602001806120e96026913960400191505060405180910390fd5b60075460ff1615610cd65760405162461bcd60e51b81526004018080602001828103825260228152602001806121e56022913960400191505060405180910390fd5b610b5b82826119f8565b610cf1610ceb6114ff565b82611a69565b50565b6001600160a01b031660009081526020819052604090205490565b610d176114ff565b6001600160a01b0316610d28610f51565b6001600160a01b031614610d71576040805162461bcd60e51b81526020600482018190526024820152600080516020612137833981519152604482015290519081900360640190fd5b6009546040516000916001600160a01b0316907f8be0079c531659141344cd1fd0a4f28419497f9722a3daafe3b4186f6b6457e0908390a3600980546001600160a01b0319169055565b6000610df28260405180606001604052806024815260200161215760249139610deb86610de66114ff565b6111d7565b919061174a565b9050610e0683610e006114ff565b83611503565b610e108383611a69565b505050565b60075460ff1615610e575760405162461bcd60e51b81526004018080602001828103825260228152602001806121e56022913960400191505060405180910390fd5b610e5f611b65565b565b610e696114ff565b6001600160a01b0316610e7a610f51565b6001600160a01b031614610ec3576040805162461bcd60e51b81526020600482018190526024820152600080516020612137833981519152604482015290519081900360640190fd5b816001600160a01b031663a9059cbb610eda610f51565b836040518363ffffffff1660e01b815260040180836001600160a01b0316815260200182815260200192505050602060405180830381600087803b158015610f2157600080fd5b505af1158015610f35573d6000803e3d6000fd5b505050506040513d6020811015610f4b57600080fd5b50505050565b6009546001600160a01b031690565b6000828152600a60205260408120610a4a9083611bcf565b6000828152600a60205260408120610a4a908361140a565b60048054604080516020601f6002600019610100600188161502019095169490940493840181900481028201810190925282815260609390929091830182828015610a065780601f106109db57610100808354040283529160200191610a06565b600081565b6000610a246110036114ff565b84610acf85604051806060016040528060258152602001612207602591396001600061102d6114ff565b6001600160a01b03908116825260208083019390935260409182016000908120918d1681529252902054919061174a565b6000610a2461106b6114ff565b84846115ef565b600061107f858585610a57565b5061108c858585856118b3565b6110c75760405162461bcd60e51b81526004018080602001828103825260268152602001806120e96026913960400191505060405180910390fd5b5060015b949350505050565b6000818152600a60205260408120610a2890611bdb565b60006110f68484610a10565b50611102848484611be6565b610ad45760405162461bcd60e51b81526004018080602001828103825260258152602001806120436025913960400191505060405180910390fd5b7ff0887ba65ee2024ea881d91b74c2450ef19e1557f03bed3ea9f16b037cbe2dc981565b6000828152600a602052604090206002015461117f90610b116114ff565b610be15760405162461bcd60e51b815260040180806020018281038252603081526020018061208e6030913960400191505060405180910390fd5b60006110cb84848460405180602001604052806000815250611072565b6001600160a01b03918216600090815260016020908152604080832093909416825291909152205490565b61120a6114ff565b6001600160a01b031661121b610f51565b6001600160a01b031614611264576040805162461bcd60e51b81526020600482018190526024820152600080516020612137833981519152604482015290519081900360640190fd5b6001600160a01b0381166112a95760405162461bcd60e51b8152600401808060200182810382526026815260200180611ffb6026913960400191505060405180910390fd5b6009546040516001600160a01b038084169216907f8be0079c531659141344cd1fd0a4f28419497f9722a3daafe3b4186f6b6457e090600090a3600980546001600160a01b0319166001600160a01b0392909216919091179055565b6001600160a01b038216611360576040805162461bcd60e51b815260206004820152601f60248201527f45524332303a206d696e7420746f20746865207a65726f206164647265737300604482015290519081900360640190fd5b61136c60008383611d19565b600254611379908261141f565b6002556001600160a01b03821660009081526020819052604090205461139f908261141f565b6001600160a01b0383166000818152602081815260408083209490945583518581529351929391927fddf252ad1be2c89b69c2b068fc378daa952ba7f163c4a11628f55a4df523b3ef9281900390910190a35050565b6000610a4a836001600160a01b038416611d24565b6000610a4a836001600160a01b038416611d6e565b600082820183811015610a4a576040805162461bcd60e51b815260206004820152601b60248201527f536166654d6174683a206164646974696f6e206f766572666c6f770000000000604482015290519081900360640190fd5b611484838383610e10565b6001600160a01b038316610e105761149a610b84565b6114ac826114a6610a51565b9061141f565b1115610e10576040805162461bcd60e51b815260206004820152601960248201527f45524332304361707065643a2063617020657863656564656400000000000000604482015290519081900360640190fd5b3390565b6001600160a01b0383166115485760405162461bcd60e51b81526004018080602001828103825260248152602001806121c16024913960400191505060405180910390fd5b6001600160a01b03821661158d5760405162461bcd60e51b81526004018080602001828103825260228152602001806120216022913960400191505060405180910390fd5b6001600160a01b03808416600081815260016020908152604080832094871680845294825291829020859055815185815291517f8c5be1e5ebec7d5bd14f71427d1e84f3dd0314c0f7b2291e5b200ac8c7c3b9259281900390910190a3505050565b6001600160a01b0383166116345760405162461bcd60e51b815260040180806020018281038252602581526020018061219c6025913960400191505060405180910390fd5b6001600160a01b0382166116795760405162461bcd60e51b8152600401808060200182810382526023815260200180611f876023913960400191505060405180910390fd5b611684838383611d19565b6116c181604051806060016040528060268152602001612068602691396001600160a01b038616600090815260208190526040902054919061174a565b6001600160a01b0380851660009081526020819052604080822093909355908416815220546116f0908261141f565b6001600160a01b038084166000818152602081815260409182902094909455805185815290519193928716927fddf252ad1be2c89b69c2b068fc378daa952ba7f163c4a11628f55a4df523b3ef92918290030190a3505050565b600081848411156117d95760405162461bcd60e51b81526004018080602001828103825283818151815260200191508051906020019080838360005b8381101561179e578181015183820152602001611786565b50505050905090810190601f1680156117cb5780820380516001836020036101000a031916815260200191505b509250505060405180910390fd5b505050900390565b6000828152600a602052604090206117f990826113f5565b15610b5b576118066114ff565b6001600160a01b0316816001600160a01b0316837f2f8788117e7eff1d82e926ec794901d17c78024a50270940304540a733656f0d60405160405180910390a45050565b6000828152600a602052604090206118629082611d86565b15610b5b5761186f6114ff565b6001600160a01b0316816001600160a01b0316837ff6391f5c32d9c69d2a47ea670b442974b53935d1edc7fd64eb21e047a839171b60405160405180910390a45050565b60006118c7846001600160a01b0316611d9b565b6118d3575060006110cb565b6000846001600160a01b03166388a7ca5c6118ec6114ff565b8887876040518563ffffffff1660e01b815260040180856001600160a01b03168152602001846001600160a01b0316815260200183815260200180602001828103825283818151815260200191508051906020019080838360005b8381101561195f578181015183820152602001611947565b50505050905090810190601f16801561198c5780820380516001836020036101000a031916815260200191505b5095505050505050602060405180830381600087803b1580156119ae57600080fd5b505af11580156119c2573d6000803e3d6000fd5b505050506040513d60208110156119d857600080fd5b50516001600160e01b031916632229f29760e21b14915050949350505050565b611a247ff0887ba65ee2024ea881d91b74c2450ef19e1557f03bed3ea9f16b037cbe2dc9610b116114ff565b611a5f5760405162461bcd60e51b815260040180806020018281038252602b8152602001806120be602b913960400191505060405180910390fd5b610b5b8282611305565b6001600160a01b038216611aae5760405162461bcd60e51b815260040180806020018281038252602181526020018061217b6021913960400191505060405180910390fd5b611aba82600083611d19565b611af781604051806060016040528060228152602001611fd9602291396001600160a01b038516600090815260208190526040902054919061174a565b6001600160a01b038316600090815260208190526040902055600254611b1d9082611da1565b6002556040805182815290516000916001600160a01b038516917fddf252ad1be2c89b69c2b068fc378daa952ba7f163c4a11628f55a4df523b3ef9181900360200190a35050565b611b6d6114ff565b6001600160a01b0316611b7e610f51565b6001600160a01b031614611bc7576040805162461bcd60e51b81526020600482018190526024820152600080516020612137833981519152604482015290519081900360640190fd5b610e5f611dfe565b6000610a4a8383611e36565b6000610a2882611e9a565b6000611bfa846001600160a01b0316611d9b565b611c0657506000610a4a565b6000846001600160a01b0316637b04a2d0611c1f6114ff565b86866040518463ffffffff1660e01b815260040180846001600160a01b0316815260200183815260200180602001828103825283818151815260200191508051906020019080838360005b83811015611c82578181015183820152602001611c6a565b50505050905090810190601f168015611caf5780820380516001836020036101000a031916815260200191505b50945050505050602060405180830381600087803b158015611cd057600080fd5b505af1158015611ce4573d6000803e3d6000fd5b505050506040513d6020811015611cfa57600080fd5b50516001600160e01b0319166307b04a2d60e41b149150509392505050565b610e10838383611479565b6000611d308383611d6e565b611d6657508154600181810184556000848152602080822090930184905584548482528286019093526040902091909155610a28565b506000610a28565b60009081526001919091016020526040902054151590565b6000610a4a836001600160a01b038416611e9e565b3b151590565b600082821115611df8576040805162461bcd60e51b815260206004820152601e60248201527f536166654d6174683a207375627472616374696f6e206f766572666c6f770000604482015290519081900360640190fd5b50900390565b6007805460ff191660011790556040517fae5184fba832cb2b1f702aca6117b8d265eaf03ad33eb133f19dde0f5920fa0890600090a1565b81546000908210611e785760405162461bcd60e51b8152600401808060200182810382526022815260200180611f656022913960400191505060405180910390fd5b826000018281548110611e8757fe5b9060005260206000200154905092915050565b5490565b60008181526001830160205260408120548015611f5a5783546000198083019190810190600090879083908110611ed157fe5b9060005260206000200154905080876000018481548110611eee57fe5b600091825260208083209091019290925582815260018981019092526040902090840190558654879080611f1e57fe5b60019003818190600052602060002001600090559055866001016000878152602001908152602001600020600090556001945050505050610a28565b6000915050610a2856fe456e756d657261626c655365743a20696e646578206f7574206f6620626f756e647345524332303a207472616e7366657220746f20746865207a65726f2061646472657373416363657373436f6e74726f6c3a2073656e646572206d75737420626520616e2061646d696e20746f206772616e7445524332303a206275726e20616d6f756e7420657863656564732062616c616e63654f776e61626c653a206e6577206f776e657220697320746865207a65726f206164647265737345524332303a20617070726f766520746f20746865207a65726f2061646472657373455243313336333a205f636865636b416e6443616c6c417070726f7665207265766572747345524332303a207472616e7366657220616d6f756e7420657863656564732062616c616e6365416363657373436f6e74726f6c3a2073656e646572206d75737420626520616e2061646d696e20746f207265766f6b65526f6c65733a2063616c6c657220646f6573206e6f74206861766520746865204d494e54455220726f6c65455243313336333a205f636865636b416e6443616c6c5472616e73666572207265766572747345524332303a207472616e7366657220616d6f756e74206578636565647320616c6c6f77616e63654f776e61626c653a2063616c6c6572206973206e6f7420746865206f776e657245524332303a206275726e20616d6f756e74206578636565647320616c6c6f77616e636545524332303a206275726e2066726f6d20746865207a65726f206164647265737345524332303a207472616e736665722066726f6d20746865207a65726f206164647265737345524332303a20617070726f76652066726f6d20746865207a65726f206164647265737345524332304d696e7461626c653a206d696e74696e672069732066696e697368656445524332303a2064656372656173656420616c6c6f77616e63652062656c6f77207a65726f416363657373436f6e74726f6c3a2063616e206f6e6c792072656e6f756e636520726f6c657320666f722073656c66a26469706673582212203c9d62b4063a0c8fab629cd985d3fe172cca088ec37ca307992a4aa1b609366364736f6c63430007060033f0887ba65ee2024ea881d91b74c2450ef19e1557f03bed3ea9f16b037cbe2dc9526f6c65733a2063616c6c657220646f6573206e6f74206861766520746865204d494e54455220726f6c65",
  "immutableReferences": {},
  "source": "// SPDX-License-Identifier: MIT\n\n// File: @openzeppelin/contracts/utils/Context.sol\n\n\n\npragma solidity >=0.6.0 <0.8.0;\n\n/*\n * @dev Provides information about the current execution context, including the\n * sender of the transaction and its data. While these are generally available\n * via msg.sender and msg.data, they should not be accessed in such a direct\n * manner, since when dealing with GSN meta-transactions the account sending and\n * paying for execution may not be the actual sender (as far as an application\n * is concerned).\n *\n * This contract is only required for intermediate, library-like contracts.\n */\nabstract contract Context {\n    function _msgSender() internal view virtual returns (address payable) {\n        return msg.sender;\n    }\n\n    function _msgData() internal view virtual returns (bytes memory) {\n        this; // silence state mutability warning without generating bytecode - see https://github.com/ethereum/solidity/issues/2691\n        return msg.data;\n    }\n}\n\n// File: @openzeppelin/contracts/token/ERC20/IERC20.sol\n\n\n\npragma solidity ^0.7.0;\n\n/**\n * @dev Interface of the ERC20 standard as defined in the EIP.\n */\ninterface IERC20 {\n    /**\n     * @dev Returns the amount of tokens in existence.\n     */\n    function totalSupply() external view returns (uint256);\n\n    /**\n     * @dev Returns the amount of tokens owned by `account`.\n     */\n    function balanceOf(address account) external view returns (uint256);\n\n    /**\n     * @dev Moves `amount` tokens from the caller's account to `recipient`.\n     *\n     * Returns a boolean value indicating whether the operation succeeded.\n     *\n     * Emits a {Transfer} event.\n     */\n    function transfer(address recipient, uint256 amount) external returns (bool);\n\n    /**\n     * @dev Returns the remaining number of tokens that `spender` will be\n     * allowed to spend on behalf of `owner` through {transferFrom}. This is\n     * zero by default.\n     *\n     * This value changes when {approve} or {transferFrom} are called.\n     */\n    function allowance(address owner, address spender) external view returns (uint256);\n\n    /**\n     * @dev Sets `amount` as the allowance of `spender` over the caller's tokens.\n     *\n     * Returns a boolean value indicating whether the operation succeeded.\n     *\n     * IMPORTANT: Beware that changing an allowance with this method brings the risk\n     * that someone may use both the old and the new allowance by unfortunate\n     * transaction ordering. One possible solution to mitigate this race\n     * condition is to first reduce the spender's allowance to 0 and set the\n     * desired value afterwards:\n     * https://github.com/ethereum/EIPs/issues/20#issuecomment-263524729\n     *\n     * Emits an {Approval} event.\n     */\n    function approve(address spender, uint256 amount) external returns (bool);\n\n    /**\n     * @dev Moves `amount` tokens from `sender` to `recipient` using the\n     * allowance mechanism. `amount` is then deducted from the caller's\n     * allowance.\n     *\n     * Returns a boolean value indicating whether the operation succeeded.\n     *\n     * Emits a {Transfer} event.\n     */\n    function transferFrom(address sender, address recipient, uint256 amount) external returns (bool);\n\n    /**\n     * @dev Emitted when `value` tokens are moved from one account (`from`) to\n     * another (`to`).\n     *\n     * Note that `value` may be zero.\n     */\n    event Transfer(address indexed from, address indexed to, uint256 value);\n\n    /**\n     * @dev Emitted when the allowance of a `spender` for an `owner` is set by\n     * a call to {approve}. `value` is the new allowance.\n     */\n    event Approval(address indexed owner, address indexed spender, uint256 value);\n}\n\n// File: @openzeppelin/contracts/math/SafeMath.sol\n\n\n\npragma solidity ^0.7.0;\n\n/**\n * @dev Wrappers over Solidity's arithmetic operations with added overflow\n * checks.\n *\n * Arithmetic operations in Solidity wrap on overflow. This can easily result\n * in bugs, because programmers usually assume that an overflow raises an\n * error, which is the standard behavior in high level programming languages.\n * `SafeMath` restores this intuition by reverting the transaction when an\n * operation overflows.\n *\n * Using this library instead of the unchecked operations eliminates an entire\n * class of bugs, so it's recommended to use it always.\n */\nlibrary SafeMath {\n    /**\n     * @dev Returns the addition of two unsigned integers, with an overflow flag.\n     *\n     * _Available since v3.4._\n     */\n    function tryAdd(uint256 a, uint256 b) internal pure returns (bool, uint256) {\n        uint256 c = a + b;\n        if (c < a) return (false, 0);\n        return (true, c);\n    }\n\n    /**\n     * @dev Returns the substraction of two unsigned integers, with an overflow flag.\n     *\n     * _Available since v3.4._\n     */\n    function trySub(uint256 a, uint256 b) internal pure returns (bool, uint256) {\n        if (b > a) return (false, 0);\n        return (true, a - b);\n    }\n\n    /**\n     * @dev Returns the multiplication of two unsigned integers, with an overflow flag.\n     *\n     * _Available since v3.4._\n     */\n    function tryMul(uint256 a, uint256 b) internal pure returns (bool, uint256) {\n        // Gas optimization: this is cheaper than requiring 'a' not being zero, but the\n        // benefit is lost if 'b' is also tested.\n        // See: https://github.com/OpenZeppelin/openzeppelin-contracts/pull/522\n        if (a == 0) return (true, 0);\n        uint256 c = a * b;\n        if (c / a != b) return (false, 0);\n        return (true, c);\n    }\n\n    /**\n     * @dev Returns the division of two unsigned integers, with a division by zero flag.\n     *\n     * _Available since v3.4._\n     */\n    function tryDiv(uint256 a, uint256 b) internal pure returns (bool, uint256) {\n        if (b == 0) return (false, 0);\n        return (true, a / b);\n    }\n\n    /**\n     * @dev Returns the remainder of dividing two unsigned integers, with a division by zero flag.\n     *\n     * _Available since v3.4._\n     */\n    function tryMod(uint256 a, uint256 b) internal pure returns (bool, uint256) {\n        if (b == 0) return (false, 0);\n        return (true, a % b);\n    }\n\n    /**\n     * @dev Returns the addition of two unsigned integers, reverting on\n     * overflow.\n     *\n     * Counterpart to Solidity's `+` operator.\n     *\n     * Requirements:\n     *\n     * - Addition cannot overflow.\n     */\n    function add(uint256 a, uint256 b) internal pure returns (uint256) {\n        uint256 c = a + b;\n        require(c >= a, \"SafeMath: addition overflow\");\n        return c;\n    }\n\n    /**\n     * @dev Returns the subtraction of two unsigned integers, reverting on\n     * overflow (when the result is negative).\n     *\n     * Counterpart to Solidity's `-` operator.\n     *\n     * Requirements:\n     *\n     * - Subtraction cannot overflow.\n     */\n    function sub(uint256 a, uint256 b) internal pure returns (uint256) {\n        require(b <= a, \"SafeMath: subtraction overflow\");\n        return a - b;\n    }\n\n    /**\n     * @dev Returns the multiplication of two unsigned integers, reverting on\n     * overflow.\n     *\n     * Counterpart to Solidity's `*` operator.\n     *\n     * Requirements:\n     *\n     * - Multiplication cannot overflow.\n     */\n    function mul(uint256 a, uint256 b) internal pure returns (uint256) {\n        if (a == 0) return 0;\n        uint256 c = a * b;\n        require(c / a == b, \"SafeMath: multiplication overflow\");\n        return c;\n    }\n\n    /**\n     * @dev Returns the integer division of two unsigned integers, reverting on\n     * division by zero. The result is rounded towards zero.\n     *\n     * Counterpart to Solidity's `/` operator. Note: this function uses a\n     * `revert` opcode (which leaves remaining gas untouched) while Solidity\n     * uses an invalid opcode to revert (consuming all remaining gas).\n     *\n     * Requirements:\n     *\n     * - The divisor cannot be zero.\n     */\n    function div(uint256 a, uint256 b) internal pure returns (uint256) {\n        require(b > 0, \"SafeMath: division by zero\");\n        return a / b;\n    }\n\n    /**\n     * @dev Returns the remainder of dividing two unsigned integers. (unsigned integer modulo),\n     * reverting when dividing by zero.\n     *\n     * Counterpart to Solidity's `%` operator. This function uses a `revert`\n     * opcode (which leaves remaining gas untouched) while Solidity uses an\n     * invalid opcode to revert (consuming all remaining gas).\n     *\n     * Requirements:\n     *\n     * - The divisor cannot be zero.\n     */\n    function mod(uint256 a, uint256 b) internal pure returns (uint256) {\n        require(b > 0, \"SafeMath: modulo by zero\");\n        return a % b;\n    }\n\n    /**\n     * @dev Returns the subtraction of two unsigned integers, reverting with custom message on\n     * overflow (when the result is negative).\n     *\n     * CAUTION: This function is deprecated because it requires allocating memory for the error\n     * message unnecessarily. For custom revert reasons use {trySub}.\n     *\n     * Counterpart to Solidity's `-` operator.\n     *\n     * Requirements:\n     *\n     * - Subtraction cannot overflow.\n     */\n    function sub(uint256 a, uint256 b, string memory errorMessage) internal pure returns (uint256) {\n        require(b <= a, errorMessage);\n        return a - b;\n    }\n\n    /**\n     * @dev Returns the integer division of two unsigned integers, reverting with custom message on\n     * division by zero. The result is rounded towards zero.\n     *\n     * CAUTION: This function is deprecated because it requires allocating memory for the error\n     * message unnecessarily. For custom revert reasons use {tryDiv}.\n     *\n     * Counterpart to Solidity's `/` operator. Note: this function uses a\n     * `revert` opcode (which leaves remaining gas untouched) while Solidity\n     * uses an invalid opcode to revert (consuming all remaining gas).\n     *\n     * Requirements:\n     *\n     * - The divisor cannot be zero.\n     */\n    function div(uint256 a, uint256 b, string memory errorMessage) internal pure returns (uint256) {\n        require(b > 0, errorMessage);\n        return a / b;\n    }\n\n    /**\n     * @dev Returns the remainder of dividing two unsigned integers. (unsigned integer modulo),\n     * reverting with custom message when dividing by zero.\n     *\n     * CAUTION: This function is deprecated because it requires allocating memory for the error\n     * message unnecessarily. For custom revert reasons use {tryMod}.\n     *\n     * Counterpart to Solidity's `%` operator. This function uses a `revert`\n     * opcode (which leaves remaining gas untouched) while Solidity uses an\n     * invalid opcode to revert (consuming all remaining gas).\n     *\n     * Requirements:\n     *\n     * - The divisor cannot be zero.\n     */\n    function mod(uint256 a, uint256 b, string memory errorMessage) internal pure returns (uint256) {\n        require(b > 0, errorMessage);\n        return a % b;\n    }\n}\n\n// File: @openzeppelin/contracts/token/ERC20/ERC20.sol\n\n\n\npragma solidity ^0.7.0;\n\n\n\n\n/**\n * @dev Implementation of the {IERC20} interface.\n *\n * This implementation is agnostic to the way tokens are created. This means\n * that a supply mechanism has to be added in a derived contract using {_mint}.\n * For a generic mechanism see {ERC20PresetMinterPauser}.\n *\n * TIP: For a detailed writeup see our guide\n * https://forum.zeppelin.solutions/t/how-to-implement-erc20-supply-mechanisms/226[How\n * to implement supply mechanisms].\n *\n * We have followed general OpenZeppelin guidelines: functions revert instead\n * of returning `false` on failure. This behavior is nonetheless conventional\n * and does not conflict with the expectations of ERC20 applications.\n *\n * Additionally, an {Approval} event is emitted on calls to {transferFrom}.\n * This allows applications to reconstruct the allowance for all accounts just\n * by listening to said events. Other implementations of the EIP may not emit\n * these events, as it isn't required by the specification.\n *\n * Finally, the non-standard {decreaseAllowance} and {increaseAllowance}\n * functions have been added to mitigate the well-known issues around setting\n * allowances. See {IERC20-approve}.\n */\ncontract ERC20 is Context, IERC20 {\n    using SafeMath for uint256;\n\n    mapping (address => uint256) private _balances;\n\n    mapping (address => mapping (address => uint256)) private _allowances;\n\n    uint256 private _totalSupply;\n\n    string private _name;\n    string private _symbol;\n    uint8 private _decimals;\n\n    /**\n     * @dev Sets the values for {name} and {symbol}, initializes {decimals} with\n     * a default value of 18.\n     *\n     * To select a different value for {decimals}, use {_setupDecimals}.\n     *\n     * All three of these values are immutable: they can only be set once during\n     * construction.\n     */\n    constructor (string memory name_, string memory symbol_) {\n        _name = name_;\n        _symbol = symbol_;\n        _decimals = 18;\n    }\n\n    /**\n     * @dev Returns the name of the token.\n     */\n    function name() public view virtual returns (string memory) {\n        return _name;\n    }\n\n    /**\n     * @dev Returns the symbol of the token, usually a shorter version of the\n     * name.\n     */\n    function symbol() public view virtual returns (string memory) {\n        return _symbol;\n    }\n\n    /**\n     * @dev Returns the number of decimals used to get its user representation.\n     * For example, if `decimals` equals `2`, a balance of `505` tokens should\n     * be displayed to a user as `5,05` (`505 / 10 ** 2`).\n     *\n     * Tokens usually opt for a value of 18, imitating the relationship between\n     * Ether and Wei. This is the value {ERC20} uses, unless {_setupDecimals} is\n     * called.\n     *\n     * NOTE: This information is only used for _display_ purposes: it in\n     * no way affects any of the arithmetic of the contract, including\n     * {IERC20-balanceOf} and {IERC20-transfer}.\n     */\n    function decimals() public view virtual returns (uint8) {\n        return _decimals;\n    }\n\n    /**\n     * @dev See {IERC20-totalSupply}.\n     */\n    function totalSupply() public view virtual override returns (uint256) {\n        return _totalSupply;\n    }\n\n    /**\n     * @dev See {IERC20-balanceOf}.\n     */\n    function balanceOf(address account) public view virtual override returns (uint256) {\n        return _balances[account];\n    }\n\n    /**\n     * @dev See {IERC20-transfer}.\n     *\n     * Requirements:\n     *\n     * - `recipient` cannot be the zero address.\n     * - the caller must have a balance of at least `amount`.\n     */\n    function transfer(address recipient, uint256 amount) public virtual override returns (bool) {\n        _transfer(_msgSender(), recipient, amount);\n        return true;\n    }\n\n    /**\n     * @dev See {IERC20-allowance}.\n     */\n    function allowance(address owner, address spender) public view virtual override returns (uint256) {\n        return _allowances[owner][spender];\n    }\n\n    /**\n     * @dev See {IERC20-approve}.\n     *\n     * Requirements:\n     *\n     * - `spender` cannot be the zero address.\n     */\n    function approve(address spender, uint256 amount) public virtual override returns (bool) {\n        _approve(_msgSender(), spender, amount);\n        return true;\n    }\n\n    /**\n     * @dev See {IERC20-transferFrom}.\n     *\n     * Emits an {Approval} event indicating the updated allowance. This is not\n     * required by the EIP. See the note at the beginning of {ERC20}.\n     *\n     * Requirements:\n     *\n     * - `sender` and `recipient` cannot be the zero address.\n     * - `sender` must have a balance of at least `amount`.\n     * - the caller must have allowance for ``sender``'s tokens of at least\n     * `amount`.\n     */\n    function transferFrom(address sender, address recipient, uint256 amount) public virtual override returns (bool) {\n        _transfer(sender, recipient, amount);\n        _approve(sender, _msgSender(), _allowances[sender][_msgSender()].sub(amount, \"ERC20: transfer amount exceeds allowance\"));\n        return true;\n    }\n\n    /**\n     * @dev Atomically increases the allowance granted to `spender` by the caller.\n     *\n     * This is an alternative to {approve} that can be used as a mitigation for\n     * problems described in {IERC20-approve}.\n     *\n     * Emits an {Approval} event indicating the updated allowance.\n     *\n     * Requirements:\n     *\n     * - `spender` cannot be the zero address.\n     */\n    function increaseAllowance(address spender, uint256 addedValue) public virtual returns (bool) {\n        _approve(_msgSender(), spender, _allowances[_msgSender()][spender].add(addedValue));\n        return true;\n    }\n\n    /**\n     * @dev Atomically decreases the allowance granted to `spender` by the caller.\n     *\n     * This is an alternative to {approve} that can be used as a mitigation for\n     * problems described in {IERC20-approve}.\n     *\n     * Emits an {Approval} event indicating the updated allowance.\n     *\n     * Requirements:\n     *\n     * - `spender` cannot be the zero address.\n     * - `spender` must have allowance for the caller of at least\n     * `subtractedValue`.\n     */\n    function decreaseAllowance(address spender, uint256 subtractedValue) public virtual returns (bool) {\n        _approve(_msgSender(), spender, _allowances[_msgSender()][spender].sub(subtractedValue, \"ERC20: decreased allowance below zero\"));\n        return true;\n    }\n\n    /**\n     * @dev Moves tokens `amount` from `sender` to `recipient`.\n     *\n     * This is internal function is equivalent to {transfer}, and can be used to\n     * e.g. implement automatic token fees, slashing mechanisms, etc.\n     *\n     * Emits a {Transfer} event.\n     *\n     * Requirements:\n     *\n     * - `sender` cannot be the zero address.\n     * - `recipient` cannot be the zero address.\n     * - `sender` must have a balance of at least `amount`.\n     */\n    function _transfer(address sender, address recipient, uint256 amount) internal virtual {\n        require(sender != address(0), \"ERC20: transfer from the zero address\");\n        require(recipient != address(0), \"ERC20: transfer to the zero address\");\n\n        _beforeTokenTransfer(sender, recipient, amount);\n\n        _balances[sender] = _balances[sender].sub(amount, \"ERC20: transfer amount exceeds balance\");\n        _balances[recipient] = _balances[recipient].add(amount);\n        emit Transfer(sender, recipient, amount);\n    }\n\n    /** @dev Creates `amount` tokens and assigns them to `account`, increasing\n     * the total supply.\n     *\n     * Emits a {Transfer} event with `from` set to the zero address.\n     *\n     * Requirements:\n     *\n     * - `to` cannot be the zero address.\n     */\n    function _mint(address account, uint256 amount) internal virtual {\n        require(account != address(0), \"ERC20: mint to the zero address\");\n\n        _beforeTokenTransfer(address(0), account, amount);\n\n        _totalSupply = _totalSupply.add(amount);\n        _balances[account] = _balances[account].add(amount);\n        emit Transfer(address(0), account, amount);\n    }\n\n    /**\n     * @dev Destroys `amount` tokens from `account`, reducing the\n     * total supply.\n     *\n     * Emits a {Transfer} event with `to` set to the zero address.\n     *\n     * Requirements:\n     *\n     * - `account` cannot be the zero address.\n     * - `account` must have at least `amount` tokens.\n     */\n    function _burn(address account, uint256 amount) internal virtual {\n        require(account != address(0), \"ERC20: burn from the zero address\");\n\n        _beforeTokenTransfer(account, address(0), amount);\n\n        _balances[account] = _balances[account].sub(amount, \"ERC20: burn amount exceeds balance\");\n        _totalSupply = _totalSupply.sub(amount);\n        emit Transfer(account, address(0), amount);\n    }\n\n    /**\n     * @dev Sets `amount` as the allowance of `spender` over the `owner` s tokens.\n     *\n     * This internal function is equivalent to `approve`, and can be used to\n     * e.g. set automatic allowances for certain subsystems, etc.\n     *\n     * Emits an {Approval} event.\n     *\n     * Requirements:\n     *\n     * - `owner` cannot be the zero address.\n     * - `spender` cannot be the zero address.\n     */\n    function _approve(address owner, address spender, uint256 amount) internal virtual {\n        require(owner != address(0), \"ERC20: approve from the zero address\");\n        require(spender != address(0), \"ERC20: approve to the zero address\");\n\n        _allowances[owner][spender] = amount;\n        emit Approval(owner, spender, amount);\n    }\n\n    /**\n     * @dev Sets {decimals} to a value other than the default one of 18.\n     *\n     * WARNING: This function should only be called from the constructor. Most\n     * applications that interact with token contracts will not expect\n     * {decimals} to ever change, and may work incorrectly if it does.\n     */\n    function _setupDecimals(uint8 decimals_) internal virtual {\n        _decimals = decimals_;\n    }\n\n    /**\n     * @dev Hook that is called before any transfer of tokens. This includes\n     * minting and burning.\n     *\n     * Calling conditions:\n     *\n     * - when `from` and `to` are both non-zero, `amount` of ``from``'s tokens\n     * will be to transferred to `to`.\n     * - when `from` is zero, `amount` tokens will be minted for `to`.\n     * - when `to` is zero, `amount` of ``from``'s tokens will be burned.\n     * - `from` and `to` are never both zero.\n     *\n     * To learn more about hooks, head to xref:ROOT:extending-contracts.adoc#using-hooks[Using Hooks].\n     */\n    function _beforeTokenTransfer(address from, address to, uint256 amount) internal virtual { }\n}\n\n// File: @openzeppelin/contracts/token/ERC20/ERC20Burnable.sol\n\n\n\npragma solidity ^0.7.0;\n\n\n\n/**\n * @dev Extension of {ERC20} that allows token holders to destroy both their own\n * tokens and those that they have an allowance for, in a way that can be\n * recognized off-chain (via event analysis).\n */\nabstract contract ERC20Burnable is Context, ERC20 {\n    using SafeMath for uint256;\n\n    /**\n     * @dev Destroys `amount` tokens from the caller.\n     *\n     * See {ERC20-_burn}.\n     */\n    function burn(uint256 amount) public virtual {\n        _burn(_msgSender(), amount);\n    }\n\n    /**\n     * @dev Destroys `amount` tokens from `account`, deducting from the caller's\n     * allowance.\n     *\n     * See {ERC20-_burn} and {ERC20-allowance}.\n     *\n     * Requirements:\n     *\n     * - the caller must have allowance for ``accounts``'s tokens of at least\n     * `amount`.\n     */\n    function burnFrom(address account, uint256 amount) public virtual {\n        uint256 decreasedAllowance = allowance(account, _msgSender()).sub(amount, \"ERC20: burn amount exceeds allowance\");\n\n        _approve(account, _msgSender(), decreasedAllowance);\n        _burn(account, amount);\n    }\n}\n\n// File: @openzeppelin/contracts/token/ERC20/ERC20Capped.sol\n\n\n\npragma solidity ^0.7.0;\n\n\n/**\n * @dev Extension of {ERC20} that adds a cap to the supply of tokens.\n */\nabstract contract ERC20Capped is ERC20 {\n    using SafeMath for uint256;\n\n    uint256 private _cap;\n\n    /**\n     * @dev Sets the value of the `cap`. This value is immutable, it can only be\n     * set once during construction.\n     */\n    constructor (uint256 cap_) {\n        require(cap_ > 0, \"ERC20Capped: cap is 0\");\n        _cap = cap_;\n    }\n\n    /**\n     * @dev Returns the cap on the token's total supply.\n     */\n    function cap() public view virtual returns (uint256) {\n        return _cap;\n    }\n\n    /**\n     * @dev See {ERC20-_beforeTokenTransfer}.\n     *\n     * Requirements:\n     *\n     * - minted tokens must not cause the total supply to go over the cap.\n     */\n    function _beforeTokenTransfer(address from, address to, uint256 amount) internal virtual override {\n        super._beforeTokenTransfer(from, to, amount);\n\n        if (from == address(0)) { // When minting tokens\n            require(totalSupply().add(amount) <= cap(), \"ERC20Capped: cap exceeded\");\n        }\n    }\n}\n\n// File: @openzeppelin/contracts/introspection/IERC165.sol\n\n\n\npragma solidity ^0.7.0;\n\n/**\n * @dev Interface of the ERC165 standard, as defined in the\n * https://eips.ethereum.org/EIPS/eip-165[EIP].\n *\n * Implementers can declare support of contract interfaces, which can then be\n * queried by others ({ERC165Checker}).\n *\n * For an implementation, see {ERC165}.\n */\ninterface IERC165 {\n    /**\n     * @dev Returns true if this contract implements the interface defined by\n     * `interfaceId`. See the corresponding\n     * https://eips.ethereum.org/EIPS/eip-165#how-interfaces-are-identified[EIP section]\n     * to learn more about how these ids are created.\n     *\n     * This function call must use less than 30 000 gas.\n     */\n    function supportsInterface(bytes4 interfaceId) external view returns (bool);\n}\n\n// File: erc-payable-token/contracts/token/ERC1363/IERC1363.sol\n\n\n\npragma solidity ^0.7.0;\n\n\n\n/**\n * @title IERC1363 Interface\n * @dev Interface for a Payable Token contract as defined in\n *  https://eips.ethereum.org/EIPS/eip-1363\n */\ninterface IERC1363 is IERC20, IERC165 {\n    /*\n     * Note: the ERC-165 identifier for this interface is 0x4bbee2df.\n     * 0x4bbee2df ===\n     *   bytes4(keccak256('transferAndCall(address,uint256)')) ^\n     *   bytes4(keccak256('transferAndCall(address,uint256,bytes)')) ^\n     *   bytes4(keccak256('transferFromAndCall(address,address,uint256)')) ^\n     *   bytes4(keccak256('transferFromAndCall(address,address,uint256,bytes)'))\n     */\n\n    /*\n     * Note: the ERC-165 identifier for this interface is 0xfb9ec8ce.\n     * 0xfb9ec8ce ===\n     *   bytes4(keccak256('approveAndCall(address,uint256)')) ^\n     *   bytes4(keccak256('approveAndCall(address,uint256,bytes)'))\n     */\n\n    /**\n     * @notice Transfer tokens from `msg.sender` to another address and then call `onTransferReceived` on receiver\n     * @param recipient address The address which you want to transfer to\n     * @param amount uint256 The amount of tokens to be transferred\n     * @return true unless throwing\n     */\n    function transferAndCall(address recipient, uint256 amount) external returns (bool);\n\n    /**\n     * @notice Transfer tokens from `msg.sender` to another address and then call `onTransferReceived` on receiver\n     * @param recipient address The address which you want to transfer to\n     * @param amount uint256 The amount of tokens to be transferred\n     * @param data bytes Additional data with no specified format, sent in call to `recipient`\n     * @return true unless throwing\n     */\n    function transferAndCall(address recipient, uint256 amount, bytes calldata data) external returns (bool);\n\n    /**\n     * @notice Transfer tokens from one address to another and then call `onTransferReceived` on receiver\n     * @param sender address The address which you want to send tokens from\n     * @param recipient address The address which you want to transfer to\n     * @param amount uint256 The amount of tokens to be transferred\n     * @return true unless throwing\n     */\n    function transferFromAndCall(address sender, address recipient, uint256 amount) external returns (bool);\n\n    /**\n     * @notice Transfer tokens from one address to another and then call `onTransferReceived` on receiver\n     * @param sender address The address which you want to send tokens from\n     * @param recipient address The address which you want to transfer to\n     * @param amount uint256 The amount of tokens to be transferred\n     * @param data bytes Additional data with no specified format, sent in call to `recipient`\n     * @return true unless throwing\n     */\n    function transferFromAndCall(address sender, address recipient, uint256 amount, bytes calldata data) external returns (bool);\n\n    /**\n     * @notice Approve the passed address to spend the specified amount of tokens on behalf of msg.sender\n     * and then call `onApprovalReceived` on spender.\n     * Beware that changing an allowance with this method brings the risk that someone may use both the old\n     * and the new allowance by unfortunate transaction ordering. One possible solution to mitigate this\n     * race condition is to first reduce the spender's allowance to 0 and set the desired value afterwards:\n     * https://github.com/ethereum/EIPs/issues/20#issuecomment-263524729\n     * @param spender address The address which will spend the funds\n     * @param amount uint256 The amount of tokens to be spent\n     */\n    function approveAndCall(address spender, uint256 amount) external returns (bool);\n\n    /**\n     * @notice Approve the passed address to spend the specified amount of tokens on behalf of msg.sender\n     * and then call `onApprovalReceived` on spender.\n     * Beware that changing an allowance with this method brings the risk that someone may use both the old\n     * and the new allowance by unfortunate transaction ordering. One possible solution to mitigate this\n     * race condition is to first reduce the spender's allowance to 0 and set the desired value afterwards:\n     * https://github.com/ethereum/EIPs/issues/20#issuecomment-263524729\n     * @param spender address The address which will spend the funds\n     * @param amount uint256 The amount of tokens to be spent\n     * @param data bytes Additional data with no specified format, sent in call to `spender`\n     */\n    function approveAndCall(address spender, uint256 amount, bytes calldata data) external returns (bool);\n}\n\n// File: erc-payable-token/contracts/token/ERC1363/IERC1363Receiver.sol\n\n\n\npragma solidity ^0.7.0;\n\n/**\n * @title IERC1363Receiver Interface\n * @dev Interface for any contract that wants to support transferAndCall or transferFromAndCall\n *  from ERC1363 token contracts as defined in\n *  https://eips.ethereum.org/EIPS/eip-1363\n */\ninterface IERC1363Receiver {\n    /*\n     * Note: the ERC-165 identifier for this interface is 0x88a7ca5c.\n     * 0x88a7ca5c === bytes4(keccak256(\"onTransferReceived(address,address,uint256,bytes)\"))\n     */\n\n    /**\n     * @notice Handle the receipt of ERC1363 tokens\n     * @dev Any ERC1363 smart contract calls this function on the recipient\n     * after a `transfer` or a `transferFrom`. This function MAY throw to revert and reject the\n     * transfer. Return of other than the magic value MUST result in the\n     * transaction being reverted.\n     * Note: the token contract address is always the message sender.\n     * @param operator address The address which called `transferAndCall` or `transferFromAndCall` function\n     * @param sender address The address which are token transferred from\n     * @param amount uint256 The amount of tokens transferred\n     * @param data bytes Additional data with no specified format\n     * @return `bytes4(keccak256(\"onTransferReceived(address,address,uint256,bytes)\"))` unless throwing\n     */\n    function onTransferReceived(address operator, address sender, uint256 amount, bytes calldata data) external returns (bytes4);\n}\n\n// File: erc-payable-token/contracts/token/ERC1363/IERC1363Spender.sol\n\n\n\npragma solidity ^0.7.0;\n\n/**\n * @title IERC1363Spender Interface\n * @dev Interface for any contract that wants to support approveAndCall\n *  from ERC1363 token contracts as defined in\n *  https://eips.ethereum.org/EIPS/eip-1363\n */\ninterface IERC1363Spender {\n    /*\n     * Note: the ERC-165 identifier for this interface is 0x7b04a2d0.\n     * 0x7b04a2d0 === bytes4(keccak256(\"onApprovalReceived(address,uint256,bytes)\"))\n     */\n\n    /**\n     * @notice Handle the approval of ERC1363 tokens\n     * @dev Any ERC1363 smart contract calls this function on the recipient\n     * after an `approve`. This function MAY throw to revert and reject the\n     * approval. Return of other than the magic value MUST result in the\n     * transaction being reverted.\n     * Note: the token contract address is always the message sender.\n     * @param sender address The address which called `approveAndCall` function\n     * @param amount uint256 The amount of tokens to be spent\n     * @param data bytes Additional data with no specified format\n     * @return `bytes4(keccak256(\"onApprovalReceived(address,uint256,bytes)\"))` unless throwing\n     */\n    function onApprovalReceived(address sender, uint256 amount, bytes calldata data) external returns (bytes4);\n}\n\n// File: @openzeppelin/contracts/utils/Address.sol\n\n\n\npragma solidity ^0.7.0;\n\n/**\n * @dev Collection of functions related to the address type\n */\nlibrary Address {\n    /**\n     * @dev Returns true if `account` is a contract.\n     *\n     * [IMPORTANT]\n     * ====\n     * It is unsafe to assume that an address for which this function returns\n     * false is an externally-owned account (EOA) and not a contract.\n     *\n     * Among others, `isContract` will return false for the following\n     * types of addresses:\n     *\n     *  - an externally-owned account\n     *  - a contract in construction\n     *  - an address where a contract will be created\n     *  - an address where a contract lived, but was destroyed\n     * ====\n     */\n    function isContract(address account) internal view returns (bool) {\n        // This method relies on extcodesize, which returns 0 for contracts in\n        // construction, since the code is only stored at the end of the\n        // constructor execution.\n\n        uint256 size;\n        // solhint-disable-next-line no-inline-assembly\n        assembly { size := extcodesize(account) }\n        return size > 0;\n    }\n\n    /**\n     * @dev Replacement for Solidity's `transfer`: sends `amount` wei to\n     * `recipient`, forwarding all available gas and reverting on errors.\n     *\n     * https://eips.ethereum.org/EIPS/eip-1884[EIP1884] increases the gas cost\n     * of certain opcodes, possibly making contracts go over the 2300 gas limit\n     * imposed by `transfer`, making them unable to receive funds via\n     * `transfer`. {sendValue} removes this limitation.\n     *\n     * https://diligence.consensys.net/posts/2019/09/stop-using-soliditys-transfer-now/[Learn more].\n     *\n     * IMPORTANT: because control is transferred to `recipient`, care must be\n     * taken to not create reentrancy vulnerabilities. Consider using\n     * {ReentrancyGuard} or the\n     * https://solidity.readthedocs.io/en/v0.5.11/security-considerations.html#use-the-checks-effects-interactions-pattern[checks-effects-interactions pattern].\n     */\n    function sendValue(address payable recipient, uint256 amount) internal {\n        require(address(this).balance >= amount, \"Address: insufficient balance\");\n\n        // solhint-disable-next-line avoid-low-level-calls, avoid-call-value\n        (bool success, ) = recipient.call{ value: amount }(\"\");\n        require(success, \"Address: unable to send value, recipient may have reverted\");\n    }\n\n    /**\n     * @dev Performs a Solidity function call using a low level `call`. A\n     * plain`call` is an unsafe replacement for a function call: use this\n     * function instead.\n     *\n     * If `target` reverts with a revert reason, it is bubbled up by this\n     * function (like regular Solidity function calls).\n     *\n     * Returns the raw returned data. To convert to the expected return value,\n     * use https://solidity.readthedocs.io/en/latest/units-and-global-variables.html?highlight=abi.decode#abi-encoding-and-decoding-functions[`abi.decode`].\n     *\n     * Requirements:\n     *\n     * - `target` must be a contract.\n     * - calling `target` with `data` must not revert.\n     *\n     * _Available since v3.1._\n     */\n    function functionCall(address target, bytes memory data) internal returns (bytes memory) {\n      return functionCall(target, data, \"Address: low-level call failed\");\n    }\n\n    /**\n     * @dev Same as {xref-Address-functionCall-address-bytes-}[`functionCall`], but with\n     * `errorMessage` as a fallback revert reason when `target` reverts.\n     *\n     * _Available since v3.1._\n     */\n    function functionCall(address target, bytes memory data, string memory errorMessage) internal returns (bytes memory) {\n        return functionCallWithValue(target, data, 0, errorMessage);\n    }\n\n    /**\n     * @dev Same as {xref-Address-functionCall-address-bytes-}[`functionCall`],\n     * but also transferring `value` wei to `target`.\n     *\n     * Requirements:\n     *\n     * - the calling contract must have an ETH balance of at least `value`.\n     * - the called Solidity function must be `payable`.\n     *\n     * _Available since v3.1._\n     */\n    function functionCallWithValue(address target, bytes memory data, uint256 value) internal returns (bytes memory) {\n        return functionCallWithValue(target, data, value, \"Address: low-level call with value failed\");\n    }\n\n    /**\n     * @dev Same as {xref-Address-functionCallWithValue-address-bytes-uint256-}[`functionCallWithValue`], but\n     * with `errorMessage` as a fallback revert reason when `target` reverts.\n     *\n     * _Available since v3.1._\n     */\n    function functionCallWithValue(address target, bytes memory data, uint256 value, string memory errorMessage) internal returns (bytes memory) {\n        require(address(this).balance >= value, \"Address: insufficient balance for call\");\n        require(isContract(target), \"Address: call to non-contract\");\n\n        // solhint-disable-next-line avoid-low-level-calls\n        (bool success, bytes memory returndata) = target.call{ value: value }(data);\n        return _verifyCallResult(success, returndata, errorMessage);\n    }\n\n    /**\n     * @dev Same as {xref-Address-functionCall-address-bytes-}[`functionCall`],\n     * but performing a static call.\n     *\n     * _Available since v3.3._\n     */\n    function functionStaticCall(address target, bytes memory data) internal view returns (bytes memory) {\n        return functionStaticCall(target, data, \"Address: low-level static call failed\");\n    }\n\n    /**\n     * @dev Same as {xref-Address-functionCall-address-bytes-string-}[`functionCall`],\n     * but performing a static call.\n     *\n     * _Available since v3.3._\n     */\n    function functionStaticCall(address target, bytes memory data, string memory errorMessage) internal view returns (bytes memory) {\n        require(isContract(target), \"Address: static call to non-contract\");\n\n        // solhint-disable-next-line avoid-low-level-calls\n        (bool success, bytes memory returndata) = target.staticcall(data);\n        return _verifyCallResult(success, returndata, errorMessage);\n    }\n\n    /**\n     * @dev Same as {xref-Address-functionCall-address-bytes-}[`functionCall`],\n     * but performing a delegate call.\n     *\n     * _Available since v3.4._\n     */\n    function functionDelegateCall(address target, bytes memory data) internal returns (bytes memory) {\n        return functionDelegateCall(target, data, \"Address: low-level delegate call failed\");\n    }\n\n    /**\n     * @dev Same as {xref-Address-functionCall-address-bytes-string-}[`functionCall`],\n     * but performing a delegate call.\n     *\n     * _Available since v3.4._\n     */\n    function functionDelegateCall(address target, bytes memory data, string memory errorMessage) internal returns (bytes memory) {\n        require(isContract(target), \"Address: delegate call to non-contract\");\n\n        // solhint-disable-next-line avoid-low-level-calls\n        (bool success, bytes memory returndata) = target.delegatecall(data);\n        return _verifyCallResult(success, returndata, errorMessage);\n    }\n\n    function _verifyCallResult(bool success, bytes memory returndata, string memory errorMessage) private pure returns(bytes memory) {\n        if (success) {\n            return returndata;\n        } else {\n            // Look for revert reason and bubble it up if present\n            if (returndata.length > 0) {\n                // The easiest way to bubble the revert reason is using memory via assembly\n\n                // solhint-disable-next-line no-inline-assembly\n                assembly {\n                    let returndata_size := mload(returndata)\n                    revert(add(32, returndata), returndata_size)\n                }\n            } else {\n                revert(errorMessage);\n            }\n        }\n    }\n}\n\n// File: @openzeppelin/contracts/introspection/ERC165Checker.sol\n\n\n\npragma solidity ^0.7.0;\n\n/**\n * @dev Library used to query support of an interface declared via {IERC165}.\n *\n * Note that these functions return the actual result of the query: they do not\n * `revert` if an interface is not supported. It is up to the caller to decide\n * what to do in these cases.\n */\nlibrary ERC165Checker {\n    // As per the EIP-165 spec, no interface should ever match 0xffffffff\n    bytes4 private constant _INTERFACE_ID_INVALID = 0xffffffff;\n\n    /*\n     * bytes4(keccak256('supportsInterface(bytes4)')) == 0x01ffc9a7\n     */\n    bytes4 private constant _INTERFACE_ID_ERC165 = 0x01ffc9a7;\n\n    /**\n     * @dev Returns true if `account` supports the {IERC165} interface,\n     */\n    function supportsERC165(address account) internal view returns (bool) {\n        // Any contract that implements ERC165 must explicitly indicate support of\n        // InterfaceId_ERC165 and explicitly indicate non-support of InterfaceId_Invalid\n        return _supportsERC165Interface(account, _INTERFACE_ID_ERC165) &&\n            !_supportsERC165Interface(account, _INTERFACE_ID_INVALID);\n    }\n\n    /**\n     * @dev Returns true if `account` supports the interface defined by\n     * `interfaceId`. Support for {IERC165} itself is queried automatically.\n     *\n     * See {IERC165-supportsInterface}.\n     */\n    function supportsInterface(address account, bytes4 interfaceId) internal view returns (bool) {\n        // query support of both ERC165 as per the spec and support of _interfaceId\n        return supportsERC165(account) &&\n            _supportsERC165Interface(account, interfaceId);\n    }\n\n    /**\n     * @dev Returns a boolean array where each value corresponds to the\n     * interfaces passed in and whether they're supported or not. This allows\n     * you to batch check interfaces for a contract where your expectation\n     * is that some interfaces may not be supported.\n     *\n     * See {IERC165-supportsInterface}.\n     *\n     * _Available since v3.4._\n     */\n    function getSupportedInterfaces(address account, bytes4[] memory interfaceIds) internal view returns (bool[] memory) {\n        // an array of booleans corresponding to interfaceIds and whether they're supported or not\n        bool[] memory interfaceIdsSupported = new bool[](interfaceIds.length);\n\n        // query support of ERC165 itself\n        if (supportsERC165(account)) {\n            // query support of each interface in interfaceIds\n            for (uint256 i = 0; i < interfaceIds.length; i++) {\n                interfaceIdsSupported[i] = _supportsERC165Interface(account, interfaceIds[i]);\n            }\n        }\n\n        return interfaceIdsSupported;\n    }\n\n    /**\n     * @dev Returns true if `account` supports all the interfaces defined in\n     * `interfaceIds`. Support for {IERC165} itself is queried automatically.\n     *\n     * Batch-querying can lead to gas savings by skipping repeated checks for\n     * {IERC165} support.\n     *\n     * See {IERC165-supportsInterface}.\n     */\n    function supportsAllInterfaces(address account, bytes4[] memory interfaceIds) internal view returns (bool) {\n        // query support of ERC165 itself\n        if (!supportsERC165(account)) {\n            return false;\n        }\n\n        // query support of each interface in _interfaceIds\n        for (uint256 i = 0; i < interfaceIds.length; i++) {\n            if (!_supportsERC165Interface(account, interfaceIds[i])) {\n                return false;\n            }\n        }\n\n        // all interfaces supported\n        return true;\n    }\n\n    /**\n     * @notice Query if a contract implements an interface, does not check ERC165 support\n     * @param account The address of the contract to query for support of an interface\n     * @param interfaceId The interface identifier, as specified in ERC-165\n     * @return true if the contract at account indicates support of the interface with\n     * identifier interfaceId, false otherwise\n     * @dev Assumes that account contains a contract that supports ERC165, otherwise\n     * the behavior of this method is undefined. This precondition can be checked\n     * with {supportsERC165}.\n     * Interface identification is specified in ERC-165.\n     */\n    function _supportsERC165Interface(address account, bytes4 interfaceId) private view returns (bool) {\n        // success determines whether the staticcall succeeded and result determines\n        // whether the contract at account indicates support of _interfaceId\n        (bool success, bool result) = _callERC165SupportsInterface(account, interfaceId);\n\n        return (success && result);\n    }\n\n    /**\n     * @notice Calls the function with selector 0x01ffc9a7 (ERC165) and suppresses throw\n     * @param account The address of the contract to query for support of an interface\n     * @param interfaceId The interface identifier, as specified in ERC-165\n     * @return success true if the STATICCALL succeeded, false otherwise\n     * @return result true if the STATICCALL succeeded and the contract at account\n     * indicates support of the interface with identifier interfaceId, false otherwise\n     */\n    function _callERC165SupportsInterface(address account, bytes4 interfaceId)\n        private\n        view\n        returns (bool, bool)\n    {\n        bytes memory encodedParams = abi.encodeWithSelector(_INTERFACE_ID_ERC165, interfaceId);\n        (bool success, bytes memory result) = account.staticcall{ gas: 30000 }(encodedParams);\n        if (result.length < 32) return (false, false);\n        return (success, abi.decode(result, (bool)));\n    }\n}\n\n// File: @openzeppelin/contracts/introspection/ERC165.sol\n\n\n\npragma solidity ^0.7.0;\n\n\n/**\n * @dev Implementation of the {IERC165} interface.\n *\n * Contracts may inherit from this and call {_registerInterface} to declare\n * their support of an interface.\n */\nabstract contract ERC165 is IERC165 {\n    /*\n     * bytes4(keccak256('supportsInterface(bytes4)')) == 0x01ffc9a7\n     */\n    bytes4 private constant _INTERFACE_ID_ERC165 = 0x01ffc9a7;\n\n    /**\n     * @dev Mapping of interface ids to whether or not it's supported.\n     */\n    mapping(bytes4 => bool) private _supportedInterfaces;\n\n    constructor () {\n        // Derived contracts need only register support for their own interfaces,\n        // we register support for ERC165 itself here\n        _registerInterface(_INTERFACE_ID_ERC165);\n    }\n\n    /**\n     * @dev See {IERC165-supportsInterface}.\n     *\n     * Time complexity O(1), guaranteed to always use less than 30 000 gas.\n     */\n    function supportsInterface(bytes4 interfaceId) public view virtual override returns (bool) {\n        return _supportedInterfaces[interfaceId];\n    }\n\n    /**\n     * @dev Registers the contract as an implementer of the interface defined by\n     * `interfaceId`. Support of the actual ERC165 interface is automatic and\n     * registering its interface id is not required.\n     *\n     * See {IERC165-supportsInterface}.\n     *\n     * Requirements:\n     *\n     * - `interfaceId` cannot be the ERC165 invalid interface (`0xffffffff`).\n     */\n    function _registerInterface(bytes4 interfaceId) internal virtual {\n        require(interfaceId != 0xffffffff, \"ERC165: invalid interface id\");\n        _supportedInterfaces[interfaceId] = true;\n    }\n}\n\n// File: erc-payable-token/contracts/token/ERC1363/ERC1363.sol\n\n\n\npragma solidity ^0.7.0;\n\n\n\n\n\n\n\n\n/**\n * @title ERC1363\n * @dev Implementation of an ERC1363 interface\n */\ncontract ERC1363 is ERC20, IERC1363, ERC165 {\n    using Address for address;\n\n    /*\n     * Note: the ERC-165 identifier for this interface is 0x4bbee2df.\n     * 0x4bbee2df ===\n     *   bytes4(keccak256('transferAndCall(address,uint256)')) ^\n     *   bytes4(keccak256('transferAndCall(address,uint256,bytes)')) ^\n     *   bytes4(keccak256('transferFromAndCall(address,address,uint256)')) ^\n     *   bytes4(keccak256('transferFromAndCall(address,address,uint256,bytes)'))\n     */\n    bytes4 internal constant _INTERFACE_ID_ERC1363_TRANSFER = 0x4bbee2df;\n\n    /*\n     * Note: the ERC-165 identifier for this interface is 0xfb9ec8ce.\n     * 0xfb9ec8ce ===\n     *   bytes4(keccak256('approveAndCall(address,uint256)')) ^\n     *   bytes4(keccak256('approveAndCall(address,uint256,bytes)'))\n     */\n    bytes4 internal constant _INTERFACE_ID_ERC1363_APPROVE = 0xfb9ec8ce;\n\n    // Equals to `bytes4(keccak256(\"onTransferReceived(address,address,uint256,bytes)\"))`\n    // which can be also obtained as `IERC1363Receiver(0).onTransferReceived.selector`\n    bytes4 private constant _ERC1363_RECEIVED = 0x88a7ca5c;\n\n    // Equals to `bytes4(keccak256(\"onApprovalReceived(address,uint256,bytes)\"))`\n    // which can be also obtained as `IERC1363Spender(0).onApprovalReceived.selector`\n    bytes4 private constant _ERC1363_APPROVED = 0x7b04a2d0;\n\n    /**\n     * @param name Name of the token\n     * @param symbol A symbol to be used as ticker\n     */\n    constructor (string memory name, string memory symbol) ERC20(name, symbol) {\n        // register the supported interfaces to conform to ERC1363 via ERC165\n        _registerInterface(_INTERFACE_ID_ERC1363_TRANSFER);\n        _registerInterface(_INTERFACE_ID_ERC1363_APPROVE);\n    }\n\n    /**\n     * @dev Transfer tokens to a specified address and then execute a callback on recipient.\n     * @param recipient The address to transfer to.\n     * @param amount The amount to be transferred.\n     * @return A boolean that indicates if the operation was successful.\n     */\n    function transferAndCall(address recipient, uint256 amount) public virtual override returns (bool) {\n        return transferAndCall(recipient, amount, \"\");\n    }\n\n    /**\n     * @dev Transfer tokens to a specified address and then execute a callback on recipient.\n     * @param recipient The address to transfer to\n     * @param amount The amount to be transferred\n     * @param data Additional data with no specified format\n     * @return A boolean that indicates if the operation was successful.\n     */\n    function transferAndCall(address recipient, uint256 amount, bytes memory data) public virtual override returns (bool) {\n        transfer(recipient, amount);\n        require(_checkAndCallTransfer(_msgSender(), recipient, amount, data), \"ERC1363: _checkAndCallTransfer reverts\");\n        return true;\n    }\n\n    /**\n     * @dev Transfer tokens from one address to another and then execute a callback on recipient.\n     * @param sender The address which you want to send tokens from\n     * @param recipient The address which you want to transfer to\n     * @param amount The amount of tokens to be transferred\n     * @return A boolean that indicates if the operation was successful.\n     */\n    function transferFromAndCall(address sender, address recipient, uint256 amount) public virtual override returns (bool) {\n        return transferFromAndCall(sender, recipient, amount, \"\");\n    }\n\n    /**\n     * @dev Transfer tokens from one address to another and then execute a callback on recipient.\n     * @param sender The address which you want to send tokens from\n     * @param recipient The address which you want to transfer to\n     * @param amount The amount of tokens to be transferred\n     * @param data Additional data with no specified format\n     * @return A boolean that indicates if the operation was successful.\n     */\n    function transferFromAndCall(address sender, address recipient, uint256 amount, bytes memory data) public virtual override returns (bool) {\n        transferFrom(sender, recipient, amount);\n        require(_checkAndCallTransfer(sender, recipient, amount, data), \"ERC1363: _checkAndCallTransfer reverts\");\n        return true;\n    }\n\n    /**\n     * @dev Approve spender to transfer tokens and then execute a callback on recipient.\n     * @param spender The address allowed to transfer to\n     * @param amount The amount allowed to be transferred\n     * @return A boolean that indicates if the operation was successful.\n     */\n    function approveAndCall(address spender, uint256 amount) public virtual override returns (bool) {\n        return approveAndCall(spender, amount, \"\");\n    }\n\n    /**\n     * @dev Approve spender to transfer tokens and then execute a callback on recipient.\n     * @param spender The address allowed to transfer to.\n     * @param amount The amount allowed to be transferred.\n     * @param data Additional data with no specified format.\n     * @return A boolean that indicates if the operation was successful.\n     */\n    function approveAndCall(address spender, uint256 amount, bytes memory data) public virtual override returns (bool) {\n        approve(spender, amount);\n        require(_checkAndCallApprove(spender, amount, data), \"ERC1363: _checkAndCallApprove reverts\");\n        return true;\n    }\n\n    /**\n     * @dev Internal function to invoke `onTransferReceived` on a target address\n     *  The call is not executed if the target address is not a contract\n     * @param sender address Representing the previous owner of the given token value\n     * @param recipient address Target address that will receive the tokens\n     * @param amount uint256 The amount mount of tokens to be transferred\n     * @param data bytes Optional data to send along with the call\n     * @return whether the call correctly returned the expected magic value\n     */\n    function _checkAndCallTransfer(address sender, address recipient, uint256 amount, bytes memory data) internal virtual returns (bool) {\n        if (!recipient.isContract()) {\n            return false;\n        }\n        bytes4 retval = IERC1363Receiver(recipient).onTransferReceived(\n            _msgSender(), sender, amount, data\n        );\n        return (retval == _ERC1363_RECEIVED);\n    }\n\n    /**\n     * @dev Internal function to invoke `onApprovalReceived` on a target address\n     *  The call is not executed if the target address is not a contract\n     * @param spender address The address which will spend the funds\n     * @param amount uint256 The amount of tokens to be spent\n     * @param data bytes Optional data to send along with the call\n     * @return whether the call correctly returned the expected magic value\n     */\n    function _checkAndCallApprove(address spender, uint256 amount, bytes memory data) internal virtual returns (bool) {\n        if (!spender.isContract()) {\n            return false;\n        }\n        bytes4 retval = IERC1363Spender(spender).onApprovalReceived(\n            _msgSender(), amount, data\n        );\n        return (retval == _ERC1363_APPROVED);\n    }\n}\n\n// File: @openzeppelin/contracts/access/Ownable.sol\n\n\n\npragma solidity ^0.7.0;\n\n/**\n * @dev Contract module which provides a basic access control mechanism, where\n * there is an account (an owner) that can be granted exclusive access to\n * specific functions.\n *\n * By default, the owner account will be the one that deploys the contract. This\n * can later be changed with {transferOwnership}.\n *\n * This module is used through inheritance. It will make available the modifier\n * `onlyOwner`, which can be applied to your functions to restrict their use to\n * the owner.\n */\nabstract contract Ownable is Context {\n    address private _owner;\n\n    event OwnershipTransferred(address indexed previousOwner, address indexed newOwner);\n\n    /**\n     * @dev Initializes the contract setting the deployer as the initial owner.\n     */\n    constructor () {\n        address msgSender = _msgSender();\n        _owner = msgSender;\n        emit OwnershipTransferred(address(0), msgSender);\n    }\n\n    /**\n     * @dev Returns the address of the current owner.\n     */\n    function owner() public view virtual returns (address) {\n        return _owner;\n    }\n\n    /**\n     * @dev Throws if called by any account other than the owner.\n     */\n    modifier onlyOwner() {\n        require(owner() == _msgSender(), \"Ownable: caller is not the owner\");\n        _;\n    }\n\n    /**\n     * @dev Leaves the contract without owner. It will not be possible to call\n     * `onlyOwner` functions anymore. Can only be called by the current owner.\n     *\n     * NOTE: Renouncing ownership will leave the contract without an owner,\n     * thereby removing any functionality that is only available to the owner.\n     */\n    function renounceOwnership() public virtual onlyOwner {\n        emit OwnershipTransferred(_owner, address(0));\n        _owner = address(0);\n    }\n\n    /**\n     * @dev Transfers ownership of the contract to a new account (`newOwner`).\n     * Can only be called by the current owner.\n     */\n    function transferOwnership(address newOwner) public virtual onlyOwner {\n        require(newOwner != address(0), \"Ownable: new owner is the zero address\");\n        emit OwnershipTransferred(_owner, newOwner);\n        _owner = newOwner;\n    }\n}\n\n// File: eth-token-recover/contracts/TokenRecover.sol\n\n\n\npragma solidity ^0.7.0;\n\n\n\n/**\n * @title TokenRecover\n * @dev Allow to recover any ERC20 sent into the contract for error\n */\ncontract TokenRecover is Ownable {\n\n    /**\n     * @dev Remember that only owner can call so be careful when use on contracts generated from other contracts.\n     * @param tokenAddress The token contract address\n     * @param tokenAmount Number of tokens to be sent\n     */\n    function recoverERC20(address tokenAddress, uint256 tokenAmount) public onlyOwner {\n        IERC20(tokenAddress).transfer(owner(), tokenAmount);\n    }\n}\n\n// File: contracts/token/ERC20/behaviours/ERC20Mintable.sol\n\n\n\npragma solidity ^0.7.0;\n\n\n/**\n * @title ERC20Mintable\n * @dev Implementation of the ERC20Mintable. Extension of {ERC20} that adds a minting behaviour.\n */\nabstract contract ERC20Mintable is ERC20 {\n\n    // indicates if minting is finished\n    bool private _mintingFinished = false;\n\n    /**\n     * @dev Emitted during finish minting\n     */\n    event MintFinished();\n\n    /**\n     * @dev Tokens can be minted only before minting finished.\n     */\n    modifier canMint() {\n        require(!_mintingFinished, \"ERC20Mintable: minting is finished\");\n        _;\n    }\n\n    /**\n     * @return if minting is finished or not.\n     */\n    function mintingFinished() public view returns (bool) {\n        return _mintingFinished;\n    }\n\n    /**\n     * @dev Function to mint tokens.\n     *\n     * WARNING: it allows everyone to mint new tokens. Access controls MUST be defined in derived contracts.\n     *\n     * @param account The address that will receive the minted tokens\n     * @param amount The amount of tokens to mint\n     */\n    function mint(address account, uint256 amount) public canMint {\n        _mint(account, amount);\n    }\n\n    /**\n     * @dev Function to stop minting new tokens.\n     *\n     * WARNING: it allows everyone to finish minting. Access controls MUST be defined in derived contracts.\n     */\n    function finishMinting() public canMint {\n        _finishMinting();\n    }\n\n    /**\n     * @dev Function to stop minting new tokens.\n     */\n    function _finishMinting() internal virtual {\n        _mintingFinished = true;\n\n        emit MintFinished();\n    }\n}\n\n// File: @openzeppelin/contracts/utils/EnumerableSet.sol\n\n\n\npragma solidity ^0.7.0;\n\n/**\n * @dev Library for managing\n * https://en.wikipedia.org/wiki/Set_(abstract_data_type)[sets] of primitive\n * types.\n *\n * Sets have the following properties:\n *\n * - Elements are added, removed, and checked for existence in constant time\n * (O(1)).\n * - Elements are enumerated in O(n). No guarantees are made on the ordering.\n *\n * ```\n * contract Example {\n *     // Add the library methods\n *     using EnumerableSet for EnumerableSet.AddressSet;\n *\n *     // Declare a set state variable\n *     EnumerableSet.AddressSet private mySet;\n * }\n * ```\n *\n * As of v3.3.0, sets of type `bytes32` (`Bytes32Set`), `address` (`AddressSet`)\n * and `uint256` (`UintSet`) are supported.\n */\nlibrary EnumerableSet {\n    // To implement this library for multiple types with as little code\n    // repetition as possible, we write it in terms of a generic Set type with\n    // bytes32 values.\n    // The Set implementation uses private functions, and user-facing\n    // implementations (such as AddressSet) are just wrappers around the\n    // underlying Set.\n    // This means that we can only create new EnumerableSets for types that fit\n    // in bytes32.\n\n    struct Set {\n        // Storage of set values\n        bytes32[] _values;\n\n        // Position of the value in the `values` array, plus 1 because index 0\n        // means a value is not in the set.\n        mapping (bytes32 => uint256) _indexes;\n    }\n\n    /**\n     * @dev Add a value to a set. O(1).\n     *\n     * Returns true if the value was added to the set, that is if it was not\n     * already present.\n     */\n    function _add(Set storage set, bytes32 value) private returns (bool) {\n        if (!_contains(set, value)) {\n            set._values.push(value);\n            // The value is stored at length-1, but we add 1 to all indexes\n            // and use 0 as a sentinel value\n            set._indexes[value] = set._values.length;\n            return true;\n        } else {\n            return false;\n        }\n    }\n\n    /**\n     * @dev Removes a value from a set. O(1).\n     *\n     * Returns true if the value was removed from the set, that is if it was\n     * present.\n     */\n    function _remove(Set storage set, bytes32 value) private returns (bool) {\n        // We read and store the value's index to prevent multiple reads from the same storage slot\n        uint256 valueIndex = set._indexes[value];\n\n        if (valueIndex != 0) { // Equivalent to contains(set, value)\n            // To delete an element from the _values array in O(1), we swap the element to delete with the last one in\n            // the array, and then remove the last element (sometimes called as 'swap and pop').\n            // This modifies the order of the array, as noted in {at}.\n\n            uint256 toDeleteIndex = valueIndex - 1;\n            uint256 lastIndex = set._values.length - 1;\n\n            // When the value to delete is the last one, the swap operation is unnecessary. However, since this occurs\n            // so rarely, we still do the swap anyway to avoid the gas cost of adding an 'if' statement.\n\n            bytes32 lastvalue = set._values[lastIndex];\n\n            // Move the last value to the index where the value to delete is\n            set._values[toDeleteIndex] = lastvalue;\n            // Update the index for the moved value\n            set._indexes[lastvalue] = toDeleteIndex + 1; // All indexes are 1-based\n\n            // Delete the slot where the moved value was stored\n            set._values.pop();\n\n            // Delete the index for the deleted slot\n            delete set._indexes[value];\n\n            return true;\n        } else {\n            return false;\n        }\n    }\n\n    /**\n     * @dev Returns true if the value is in the set. O(1).\n     */\n    function _contains(Set storage set, bytes32 value) private view returns (bool) {\n        return set._indexes[value] != 0;\n    }\n\n    /**\n     * @dev Returns the number of values on the set. O(1).\n     */\n    function _length(Set storage set) private view returns (uint256) {\n        return set._values.length;\n    }\n\n   /**\n    * @dev Returns the value stored at position `index` in the set. O(1).\n    *\n    * Note that there are no guarantees on the ordering of values inside the\n    * array, and it may change when more values are added or removed.\n    *\n    * Requirements:\n    *\n    * - `index` must be strictly less than {length}.\n    */\n    function _at(Set storage set, uint256 index) private view returns (bytes32) {\n        require(set._values.length > index, \"EnumerableSet: index out of bounds\");\n        return set._values[index];\n    }\n\n    // Bytes32Set\n\n    struct Bytes32Set {\n        Set _inner;\n    }\n\n    /**\n     * @dev Add a value to a set. O(1).\n     *\n     * Returns true if the value was added to the set, that is if it was not\n     * already present.\n     */\n    function add(Bytes32Set storage set, bytes32 value) internal returns (bool) {\n        return _add(set._inner, value);\n    }\n\n    /**\n     * @dev Removes a value from a set. O(1).\n     *\n     * Returns true if the value was removed from the set, that is if it was\n     * present.\n     */\n    function remove(Bytes32Set storage set, bytes32 value) internal returns (bool) {\n        return _remove(set._inner, value);\n    }\n\n    /**\n     * @dev Returns true if the value is in the set. O(1).\n     */\n    function contains(Bytes32Set storage set, bytes32 value) internal view returns (bool) {\n        return _contains(set._inner, value);\n    }\n\n    /**\n     * @dev Returns the number of values in the set. O(1).\n     */\n    function length(Bytes32Set storage set) internal view returns (uint256) {\n        return _length(set._inner);\n    }\n\n   /**\n    * @dev Returns the value stored at position `index` in the set. O(1).\n    *\n    * Note that there are no guarantees on the ordering of values inside the\n    * array, and it may change when more values are added or removed.\n    *\n    * Requirements:\n    *\n    * - `index` must be strictly less than {length}.\n    */\n    function at(Bytes32Set storage set, uint256 index) internal view returns (bytes32) {\n        return _at(set._inner, index);\n    }\n\n    // AddressSet\n\n    struct AddressSet {\n        Set _inner;\n    }\n\n    /**\n     * @dev Add a value to a set. O(1).\n     *\n     * Returns true if the value was added to the set, that is if it was not\n     * already present.\n     */\n    function add(AddressSet storage set, address value) internal returns (bool) {\n        return _add(set._inner, bytes32(uint256(uint160(value))));\n    }\n\n    /**\n     * @dev Removes a value from a set. O(1).\n     *\n     * Returns true if the value was removed from the set, that is if it was\n     * present.\n     */\n    function remove(AddressSet storage set, address value) internal returns (bool) {\n        return _remove(set._inner, bytes32(uint256(uint160(value))));\n    }\n\n    /**\n     * @dev Returns true if the value is in the set. O(1).\n     */\n    function contains(AddressSet storage set, address value) internal view returns (bool) {\n        return _contains(set._inner, bytes32(uint256(uint160(value))));\n    }\n\n    /**\n     * @dev Returns the number of values in the set. O(1).\n     */\n    function length(AddressSet storage set) internal view returns (uint256) {\n        return _length(set._inner);\n    }\n\n   /**\n    * @dev Returns the value stored at position `index` in the set. O(1).\n    *\n    * Note that there are no guarantees on the ordering of values inside the\n    * array, and it may change when more values are added or removed.\n    *\n    * Requirements:\n    *\n    * - `index` must be strictly less than {length}.\n    */\n    function at(AddressSet storage set, uint256 index) internal view returns (address) {\n        return address(uint160(uint256(_at(set._inner, index))));\n    }\n\n\n    // UintSet\n\n    struct UintSet {\n        Set _inner;\n    }\n\n    /**\n     * @dev Add a value to a set. O(1).\n     *\n     * Returns true if the value was added to the set, that is if it was not\n     * already present.\n     */\n    function add(UintSet storage set, uint256 value) internal returns (bool) {\n        return _add(set._inner, bytes32(value));\n    }\n\n    /**\n     * @dev Removes a value from a set. O(1).\n     *\n     * Returns true if the value was removed from the set, that is if it was\n     * present.\n     */\n    function remove(UintSet storage set, uint256 value) internal returns (bool) {\n        return _remove(set._inner, bytes32(value));\n    }\n\n    /**\n     * @dev Returns true if the value is in the set. O(1).\n     */\n    function contains(UintSet storage set, uint256 value) internal view returns (bool) {\n        return _contains(set._inner, bytes32(value));\n    }\n\n    /**\n     * @dev Returns the number of values on the set. O(1).\n     */\n    function length(UintSet storage set) internal view returns (uint256) {\n        return _length(set._inner);\n    }\n\n   /**\n    * @dev Returns the value stored at position `index` in the set. O(1).\n    *\n    * Note that there are no guarantees on the ordering of values inside the\n    * array, and it may change when more values are added or removed.\n    *\n    * Requirements:\n    *\n    * - `index` must be strictly less than {length}.\n    */\n    function at(UintSet storage set, uint256 index) internal view returns (uint256) {\n        return uint256(_at(set._inner, index));\n    }\n}\n\n// File: @openzeppelin/contracts/access/AccessControl.sol\n\n\n\npragma solidity ^0.7.0;\n\n\n\n\n/**\n * @dev Contract module that allows children to implement role-based access\n * control mechanisms.\n *\n * Roles are referred to by their `bytes32` identifier. These should be exposed\n * in the external API and be unique. The best way to achieve this is by\n * using `public constant` hash digests:\n *\n * ```\n * bytes32 public constant MY_ROLE = keccak256(\"MY_ROLE\");\n * ```\n *\n * Roles can be used to represent a set of permissions. To restrict access to a\n * function call, use {hasRole}:\n *\n * ```\n * function foo() public {\n *     require(hasRole(MY_ROLE, msg.sender));\n *     ...\n * }\n * ```\n *\n * Roles can be granted and revoked dynamically via the {grantRole} and\n * {revokeRole} functions. Each role has an associated admin role, and only\n * accounts that have a role's admin role can call {grantRole} and {revokeRole}.\n *\n * By default, the admin role for all roles is `DEFAULT_ADMIN_ROLE`, which means\n * that only accounts with this role will be able to grant or revoke other\n * roles. More complex role relationships can be created by using\n * {_setRoleAdmin}.\n *\n * WARNING: The `DEFAULT_ADMIN_ROLE` is also its own admin: it has permission to\n * grant and revoke this role. Extra precautions should be taken to secure\n * accounts that have been granted it.\n */\nabstract contract AccessControl is Context {\n    using EnumerableSet for EnumerableSet.AddressSet;\n    using Address for address;\n\n    struct RoleData {\n        EnumerableSet.AddressSet members;\n        bytes32 adminRole;\n    }\n\n    mapping (bytes32 => RoleData) private _roles;\n\n    bytes32 public constant DEFAULT_ADMIN_ROLE = 0x00;\n\n    /**\n     * @dev Emitted when `newAdminRole` is set as ``role``'s admin role, replacing `previousAdminRole`\n     *\n     * `DEFAULT_ADMIN_ROLE` is the starting admin for all roles, despite\n     * {RoleAdminChanged} not being emitted signaling this.\n     *\n     * _Available since v3.1._\n     */\n    event RoleAdminChanged(bytes32 indexed role, bytes32 indexed previousAdminRole, bytes32 indexed newAdminRole);\n\n    /**\n     * @dev Emitted when `account` is granted `role`.\n     *\n     * `sender` is the account that originated the contract call, an admin role\n     * bearer except when using {_setupRole}.\n     */\n    event RoleGranted(bytes32 indexed role, address indexed account, address indexed sender);\n\n    /**\n     * @dev Emitted when `account` is revoked `role`.\n     *\n     * `sender` is the account that originated the contract call:\n     *   - if using `revokeRole`, it is the admin role bearer\n     *   - if using `renounceRole`, it is the role bearer (i.e. `account`)\n     */\n    event RoleRevoked(bytes32 indexed role, address indexed account, address indexed sender);\n\n    /**\n     * @dev Returns `true` if `account` has been granted `role`.\n     */\n    function hasRole(bytes32 role, address account) public view returns (bool) {\n        return _roles[role].members.contains(account);\n    }\n\n    /**\n     * @dev Returns the number of accounts that have `role`. Can be used\n     * together with {getRoleMember} to enumerate all bearers of a role.\n     */\n    function getRoleMemberCount(bytes32 role) public view returns (uint256) {\n        return _roles[role].members.length();\n    }\n\n    /**\n     * @dev Returns one of the accounts that have `role`. `index` must be a\n     * value between 0 and {getRoleMemberCount}, non-inclusive.\n     *\n     * Role bearers are not sorted in any particular way, and their ordering may\n     * change at any point.\n     *\n     * WARNING: When using {getRoleMember} and {getRoleMemberCount}, make sure\n     * you perform all queries on the same block. See the following\n     * https://forum.openzeppelin.com/t/iterating-over-elements-on-enumerableset-in-openzeppelin-contracts/2296[forum post]\n     * for more information.\n     */\n    function getRoleMember(bytes32 role, uint256 index) public view returns (address) {\n        return _roles[role].members.at(index);\n    }\n\n    /**\n     * @dev Returns the admin role that controls `role`. See {grantRole} and\n     * {revokeRole}.\n     *\n     * To change a role's admin, use {_setRoleAdmin}.\n     */\n    function getRoleAdmin(bytes32 role) public view returns (bytes32) {\n        return _roles[role].adminRole;\n    }\n\n    /**\n     * @dev Grants `role` to `account`.\n     *\n     * If `account` had not been already granted `role`, emits a {RoleGranted}\n     * event.\n     *\n     * Requirements:\n     *\n     * - the caller must have ``role``'s admin role.\n     */\n    function grantRole(bytes32 role, address account) public virtual {\n        require(hasRole(_roles[role].adminRole, _msgSender()), \"AccessControl: sender must be an admin to grant\");\n\n        _grantRole(role, account);\n    }\n\n    /**\n     * @dev Revokes `role` from `account`.\n     *\n     * If `account` had been granted `role`, emits a {RoleRevoked} event.\n     *\n     * Requirements:\n     *\n     * - the caller must have ``role``'s admin role.\n     */\n    function revokeRole(bytes32 role, address account) public virtual {\n        require(hasRole(_roles[role].adminRole, _msgSender()), \"AccessControl: sender must be an admin to revoke\");\n\n        _revokeRole(role, account);\n    }\n\n    /**\n     * @dev Revokes `role` from the calling account.\n     *\n     * Roles are often managed via {grantRole} and {revokeRole}: this function's\n     * purpose is to provide a mechanism for accounts to lose their privileges\n     * if they are compromised (such as when a trusted device is misplaced).\n     *\n     * If the calling account had been granted `role`, emits a {RoleRevoked}\n     * event.\n     *\n     * Requirements:\n     *\n     * - the caller must be `account`.\n     */\n    function renounceRole(bytes32 role, address account) public virtual {\n        require(account == _msgSender(), \"AccessControl: can only renounce roles for self\");\n\n        _revokeRole(role, account);\n    }\n\n    /**\n     * @dev Grants `role` to `account`.\n     *\n     * If `account` had not been already granted `role`, emits a {RoleGranted}\n     * event. Note that unlike {grantRole}, this function doesn't perform any\n     * checks on the calling account.\n     *\n     * [WARNING]\n     * ====\n     * This function should only be called from the constructor when setting\n     * up the initial roles for the system.\n     *\n     * Using this function in any other way is effectively circumventing the admin\n     * system imposed by {AccessControl}.\n     * ====\n     */\n    function _setupRole(bytes32 role, address account) internal virtual {\n        _grantRole(role, account);\n    }\n\n    /**\n     * @dev Sets `adminRole` as ``role``'s admin role.\n     *\n     * Emits a {RoleAdminChanged} event.\n     */\n    function _setRoleAdmin(bytes32 role, bytes32 adminRole) internal virtual {\n        emit RoleAdminChanged(role, _roles[role].adminRole, adminRole);\n        _roles[role].adminRole = adminRole;\n    }\n\n    function _grantRole(bytes32 role, address account) private {\n        if (_roles[role].members.add(account)) {\n            emit RoleGranted(role, account, _msgSender());\n        }\n    }\n\n    function _revokeRole(bytes32 role, address account) private {\n        if (_roles[role].members.remove(account)) {\n            emit RoleRevoked(role, account, _msgSender());\n        }\n    }\n}\n\n// File: contracts/access/Roles.sol\n\n\n\npragma solidity ^0.7.0;\n\n\ncontract Roles is AccessControl {\n\n    bytes32 public constant MINTER_ROLE = keccak256(\"MINTER\");\n\n    constructor () {\n        _setupRole(DEFAULT_ADMIN_ROLE, _msgSender());\n        _setupRole(MINTER_ROLE, _msgSender());\n    }\n\n    modifier onlyMinter() {\n        require(hasRole(MINTER_ROLE, _msgSender()), \"Roles: caller does not have the MINTER role\");\n        _;\n    }\n}\n\n// File: contracts/service/ServicePayer.sol\n\n\n\npragma solidity ^0.7.0;\n\ninterface IPayable {\n    function pay(string memory serviceName) external payable;\n}\n\n/**\n * @title ServicePayer\n * @dev Implementation of the ServicePayer\n */\nabstract contract ServicePayer {\n\n    constructor (address payable receiver, string memory serviceName) payable {\n        IPayable(receiver).pay{value: msg.value}(serviceName);\n    }\n}\n\n// File: contracts/token/ERC20/Ultimate.sol\n\n\n\npragma solidity ^0.7.0;\n\n\n\n\n\n\n\n\n/**\n * @title Ultimate\n * @dev Implementation of the Ultimate\n */\ncontract Ultimate is ERC20Capped, ERC20Mintable, ERC20Burnable, ERC1363, TokenRecover, Roles, ServicePayer {\n\n    constructor (\n        string memory name,\n        string memory symbol,\n        uint8 decimals,\n        uint256 cap,\n        uint256 initialBalance,\n        address payable feeReceiver\n    )\n        ERC1363(name, symbol)\n        ERC20Capped(cap)\n        ServicePayer(feeReceiver, \"Ultimate\")\n        payable\n    {\n        _setupDecimals(decimals);\n        _mint(_msgSender(), initialBalance);\n    }\n\n    /**\n     * @dev Function to mint tokens.\n     *\n     * NOTE: restricting access to addresses with MINTER role. See {ERC20Mintable-mint}.\n     *\n     * @param account The address that will receive the minted tokens\n     * @param amount The amount of tokens to mint\n     */\n    function _mint(address account, uint256 amount) internal override onlyMinter {\n        super._mint(account, amount);\n    }\n\n    /**\n     * @dev Function to stop minting new tokens.\n     *\n     * NOTE: restricting access to owner only. See {ERC20Mintable-finishMinting}.\n     */\n    function _finishMinting() internal override onlyOwner {\n        super._finishMinting();\n    }\n\n    /**\n     * @dev See {ERC20-_beforeTokenTransfer}. See {ERC20Capped-_beforeTokenTransfer}.\n     */\n    function _beforeTokenTransfer(address from, address to, uint256 amount) internal override(ERC20, ERC20Capped) {\n        super._beforeTokenTransfer(from, to, amount);\n    }\n}\n",
  "sourcePath": "/home/boyd/bep20MASTER/erc20-generator/contracts/token/ERC20/Ultimate.sol",
  "compiler": {
    "name": "solc",
    "version": "0.7.6+commit.7338295f.Emscripten.clang"
  },
  "schemaVersion": "3.4.1",
  "updatedAt": "2021-07-14T15:44:46.649Z",
  "devdoc": {
    "details": "Implementation of the Ultimate",
    "kind": "dev",
    "methods": {
      "allowance(address,address)": {
        "details": "See {IERC20-allowance}."
      },
      "approve(address,uint256)": {
        "details": "See {IERC20-approve}. Requirements: - `spender` cannot be the zero address."
      },
      "approveAndCall(address,uint256)": {
        "details": "Approve spender to transfer tokens and then execute a callback on recipient.",
        "params": {
          "amount": "The amount allowed to be transferred",
          "spender": "The address allowed to transfer to"
        },
        "returns": {
          "_0": "A boolean that indicates if the operation was successful."
        }
      },
      "approveAndCall(address,uint256,bytes)": {
        "details": "Approve spender to transfer tokens and then execute a callback on recipient.",
        "params": {
          "amount": "The amount allowed to be transferred.",
          "data": "Additional data with no specified format.",
          "spender": "The address allowed to transfer to."
        },
        "returns": {
          "_0": "A boolean that indicates if the operation was successful."
        }
      },
      "balanceOf(address)": {
        "details": "See {IERC20-balanceOf}."
      },
      "burn(uint256)": {
        "details": "Destroys `amount` tokens from the caller. See {ERC20-_burn}."
      },
      "burnFrom(address,uint256)": {
        "details": "Destroys `amount` tokens from `account`, deducting from the caller's allowance. See {ERC20-_burn} and {ERC20-allowance}. Requirements: - the caller must have allowance for ``accounts``'s tokens of at least `amount`."
      },
      "cap()": {
        "details": "Returns the cap on the token's total supply."
      },
      "decimals()": {
        "details": "Returns the number of decimals used to get its user representation. For example, if `decimals` equals `2`, a balance of `505` tokens should be displayed to a user as `5,05` (`505 / 10 ** 2`). Tokens usually opt for a value of 18, imitating the relationship between Ether and Wei. This is the value {ERC20} uses, unless {_setupDecimals} is called. NOTE: This information is only used for _display_ purposes: it in no way affects any of the arithmetic of the contract, including {IERC20-balanceOf} and {IERC20-transfer}."
      },
      "decreaseAllowance(address,uint256)": {
        "details": "Atomically decreases the allowance granted to `spender` by the caller. This is an alternative to {approve} that can be used as a mitigation for problems described in {IERC20-approve}. Emits an {Approval} event indicating the updated allowance. Requirements: - `spender` cannot be the zero address. - `spender` must have allowance for the caller of at least `subtractedValue`."
      },
      "finishMinting()": {
        "details": "Function to stop minting new tokens. WARNING: it allows everyone to finish minting. Access controls MUST be defined in derived contracts."
      },
      "getRoleAdmin(bytes32)": {
        "details": "Returns the admin role that controls `role`. See {grantRole} and {revokeRole}. To change a role's admin, use {_setRoleAdmin}."
      },
      "getRoleMember(bytes32,uint256)": {
        "details": "Returns one of the accounts that have `role`. `index` must be a value between 0 and {getRoleMemberCount}, non-inclusive. Role bearers are not sorted in any particular way, and their ordering may change at any point. WARNING: When using {getRoleMember} and {getRoleMemberCount}, make sure you perform all queries on the same block. See the following https://forum.openzeppelin.com/t/iterating-over-elements-on-enumerableset-in-openzeppelin-contracts/2296[forum post] for more information."
      },
      "getRoleMemberCount(bytes32)": {
        "details": "Returns the number of accounts that have `role`. Can be used together with {getRoleMember} to enumerate all bearers of a role."
      },
      "grantRole(bytes32,address)": {
        "details": "Grants `role` to `account`. If `account` had not been already granted `role`, emits a {RoleGranted} event. Requirements: - the caller must have ``role``'s admin role."
      },
      "hasRole(bytes32,address)": {
        "details": "Returns `true` if `account` has been granted `role`."
      },
      "increaseAllowance(address,uint256)": {
        "details": "Atomically increases the allowance granted to `spender` by the caller. This is an alternative to {approve} that can be used as a mitigation for problems described in {IERC20-approve}. Emits an {Approval} event indicating the updated allowance. Requirements: - `spender` cannot be the zero address."
      },
      "mint(address,uint256)": {
        "details": "Function to mint tokens. WARNING: it allows everyone to mint new tokens. Access controls MUST be defined in derived contracts.",
        "params": {
          "account": "The address that will receive the minted tokens",
          "amount": "The amount of tokens to mint"
        }
      },
      "mintingFinished()": {
        "returns": {
          "_0": "if minting is finished or not."
        }
      },
      "name()": {
        "details": "Returns the name of the token."
      },
      "owner()": {
        "details": "Returns the address of the current owner."
      },
      "recoverERC20(address,uint256)": {
        "details": "Remember that only owner can call so be careful when use on contracts generated from other contracts.",
        "params": {
          "tokenAddress": "The token contract address",
          "tokenAmount": "Number of tokens to be sent"
        }
      },
      "renounceOwnership()": {
        "details": "Leaves the contract without owner. It will not be possible to call `onlyOwner` functions anymore. Can only be called by the current owner. NOTE: Renouncing ownership will leave the contract without an owner, thereby removing any functionality that is only available to the owner."
      },
      "renounceRole(bytes32,address)": {
        "details": "Revokes `role` from the calling account. Roles are often managed via {grantRole} and {revokeRole}: this function's purpose is to provide a mechanism for accounts to lose their privileges if they are compromised (such as when a trusted device is misplaced). If the calling account had been granted `role`, emits a {RoleRevoked} event. Requirements: - the caller must be `account`."
      },
      "revokeRole(bytes32,address)": {
        "details": "Revokes `role` from `account`. If `account` had been granted `role`, emits a {RoleRevoked} event. Requirements: - the caller must have ``role``'s admin role."
      },
      "supportsInterface(bytes4)": {
        "details": "See {IERC165-supportsInterface}. Time complexity O(1), guaranteed to always use less than 30 000 gas."
      },
      "symbol()": {
        "details": "Returns the symbol of the token, usually a shorter version of the name."
      },
      "totalSupply()": {
        "details": "See {IERC20-totalSupply}."
      },
      "transfer(address,uint256)": {
        "details": "See {IERC20-transfer}. Requirements: - `recipient` cannot be the zero address. - the caller must have a balance of at least `amount`."
      },
      "transferAndCall(address,uint256)": {
        "details": "Transfer tokens to a specified address and then execute a callback on recipient.",
        "params": {
          "amount": "The amount to be transferred.",
          "recipient": "The address to transfer to."
        },
        "returns": {
          "_0": "A boolean that indicates if the operation was successful."
        }
      },
      "transferAndCall(address,uint256,bytes)": {
        "details": "Transfer tokens to a specified address and then execute a callback on recipient.",
        "params": {
          "amount": "The amount to be transferred",
          "data": "Additional data with no specified format",
          "recipient": "The address to transfer to"
        },
        "returns": {
          "_0": "A boolean that indicates if the operation was successful."
        }
      },
      "transferFrom(address,address,uint256)": {
        "details": "See {IERC20-transferFrom}. Emits an {Approval} event indicating the updated allowance. This is not required by the EIP. See the note at the beginning of {ERC20}. Requirements: - `sender` and `recipient` cannot be the zero address. - `sender` must have a balance of at least `amount`. - the caller must have allowance for ``sender``'s tokens of at least `amount`."
      },
      "transferFromAndCall(address,address,uint256)": {
        "details": "Transfer tokens from one address to another and then execute a callback on recipient.",
        "params": {
          "amount": "The amount of tokens to be transferred",
          "recipient": "The address which you want to transfer to",
          "sender": "The address which you want to send tokens from"
        },
        "returns": {
          "_0": "A boolean that indicates if the operation was successful."
        }
      },
      "transferFromAndCall(address,address,uint256,bytes)": {
        "details": "Transfer tokens from one address to another and then execute a callback on recipient.",
        "params": {
          "amount": "The amount of tokens to be transferred",
          "data": "Additional data with no specified format",
          "recipient": "The address which you want to transfer to",
          "sender": "The address which you want to send tokens from"
        },
        "returns": {
          "_0": "A boolean that indicates if the operation was successful."
        }
      },
      "transferOwnership(address)": {
        "details": "Transfers ownership of the contract to a new account (`newOwner`). Can only be called by the current owner."
      }
    },
    "title": "Ultimate",
    "version": 1
  },
  "userdoc": {
    "kind": "user",
    "methods": {},
    "version": 1
  }
}